{
  "_format": "hh-sol-artifact-1",
  "contractName": "MerkleTreeWithHistory",
  "sourceName": "contracts/MerkleTree.sol",
  "abi": [
    {
      "inputs": [
        {
          "internalType": "uint32",
          "name": "_levels",
          "type": "uint32"
        },
        {
          "internalType": "contract IHasher",
          "name": "_hasher",
          "type": "address"
        }
      ],
      "stateMutability": "nonpayable",
      "type": "constructor"
    },
    {
      "inputs": [],
      "name": "FIELD_SIZE",
      "outputs": [
        {
          "internalType": "uint256",
          "name": "",
          "type": "uint256"
        }
      ],
      "stateMutability": "view",
      "type": "function"
    },
    {
      "inputs": [],
      "name": "ROOT_HISTORY_SIZE",
      "outputs": [
        {
          "internalType": "uint32",
          "name": "",
          "type": "uint32"
        }
      ],
      "stateMutability": "view",
      "type": "function"
    },
    {
      "inputs": [],
      "name": "ZERO_VALUE",
      "outputs": [
        {
          "internalType": "uint256",
          "name": "",
          "type": "uint256"
        }
      ],
      "stateMutability": "view",
      "type": "function"
    },
    {
      "inputs": [],
      "name": "currentRootIndex",
      "outputs": [
        {
          "internalType": "uint32",
          "name": "",
          "type": "uint32"
        }
      ],
      "stateMutability": "view",
      "type": "function"
    },
    {
      "inputs": [
        {
          "internalType": "uint256",
          "name": "",
          "type": "uint256"
        }
      ],
      "name": "filledSubtrees",
      "outputs": [
        {
          "internalType": "bytes32",
          "name": "",
          "type": "bytes32"
        }
      ],
      "stateMutability": "view",
      "type": "function"
    },
    {
      "inputs": [],
      "name": "getLastRoot",
      "outputs": [
        {
          "internalType": "bytes32",
          "name": "",
          "type": "bytes32"
        }
      ],
      "stateMutability": "view",
      "type": "function"
    },
    {
      "inputs": [
        {
          "internalType": "contract IHasher",
          "name": "_hasher",
          "type": "address"
        },
        {
          "internalType": "bytes32",
          "name": "_left",
          "type": "bytes32"
        },
        {
          "internalType": "bytes32",
          "name": "_right",
          "type": "bytes32"
        }
      ],
      "name": "hashLeftRight",
      "outputs": [
        {
          "internalType": "bytes32",
          "name": "",
          "type": "bytes32"
        }
      ],
      "stateMutability": "pure",
      "type": "function"
    },
    {
      "inputs": [],
      "name": "hasher",
      "outputs": [
        {
          "internalType": "contract IHasher",
          "name": "",
          "type": "address"
        }
      ],
      "stateMutability": "view",
      "type": "function"
    },
    {
      "inputs": [
        {
          "internalType": "bytes32",
          "name": "_root",
          "type": "bytes32"
        }
      ],
      "name": "isKnownRoot",
      "outputs": [
        {
          "internalType": "bool",
          "name": "",
          "type": "bool"
        }
      ],
      "stateMutability": "view",
      "type": "function"
    },
    {
      "inputs": [],
      "name": "levels",
      "outputs": [
        {
          "internalType": "uint32",
          "name": "",
          "type": "uint32"
        }
      ],
      "stateMutability": "view",
      "type": "function"
    },
    {
      "inputs": [],
      "name": "nextIndex",
      "outputs": [
        {
          "internalType": "uint32",
          "name": "",
          "type": "uint32"
        }
      ],
      "stateMutability": "view",
      "type": "function"
    },
    {
      "inputs": [
        {
          "internalType": "uint256",
          "name": "",
          "type": "uint256"
        }
      ],
      "name": "roots",
      "outputs": [
        {
          "internalType": "bytes32",
          "name": "",
          "type": "bytes32"
        }
      ],
      "stateMutability": "view",
      "type": "function"
    },
    {
      "inputs": [
        {
          "internalType": "uint256",
          "name": "i",
          "type": "uint256"
        }
      ],
      "name": "zeros",
      "outputs": [
        {
          "internalType": "bytes32",
          "name": "",
          "type": "bytes32"
        }
      ],
      "stateMutability": "pure",
      "type": "function"
    }
  ],
  "bytecode": "0x60a0604052600380546001600160401b03191690553480156200002157600080fd5b506040516200144f3803806200144f833981810160405260408110156200004757600080fd5b50805160209091015163ffffffff8216620000945760405162461bcd60e51b81526004018080602001828103825260238152602001806200142c6023913960400191505060405180910390fd5b60208263ffffffff1610620000f0576040805162461bcd60e51b815260206004820152601e60248201527f5f6c6576656c732073686f756c64206265206c657373207468616e2033320000604482015290519081900360640190fd5b6000805463ffffffff191663ffffffff8416178155606082901b6001600160601b0319166080525b8263ffffffff168163ffffffff16101562000161576200013e63ffffffff8216620001ab565b63ffffffff82166000908152600160208190526040909120919091550162000118565b506200017763ffffffff600019840116620001ab565b6000805260026020527fac33ff75c19e70fe83507db0d683fd3465c996598dc972688b7ace676c89077b5550620008399050565b600081620001db57507f2fe54c60d3acabf3343a35b6eba15db4821b340f76e741e2249685ed4899af6c62000834565b81600114156200020d57507f256a6135777eee2fd26f54b8b7037a25439d5235caee224154186d2b8a52e31d62000834565b81600214156200023f57507f1151949895e82ab19924de92c40a3d6f7bcb60d92b00504b8199613683f0c20062000834565b81600314156200027157507f20121ee811489ff8d61f09fb89e313f14959a0f28bb428a20dba6b0b068b3bdb62000834565b8160041415620002a357507f0a89ca6ffa14cc462cfedb842c30ed221a50a3d6bf022a6a57dc82ab24c157c962000834565b8160051415620002d557507f24ca05c2b5cd42e890d6be94c68d0689f4f21c9cec9c0f13fe41d566dfb5495962000834565b81600614156200030757507f1ccb97c932565a92c60156bdba2d08f3bf1377464e025cee765679e604a7315c62000834565b81600714156200033957507f19156fbd7d1a8bf5cba8909367de1b624534ebab4f0f79e003bccdd1b182bdb462000834565b81600814156200036b57507f261af8c1f0912e465744641409f622d466c3920ac6e5ff37e36604cb11dfff8062000834565b81600914156200039c57507e58459724ff6ca5a1652fcbc3e82b93895cf08e975b19beab3f54c217d1c00762000834565b81600a1415620003ce57507f1f04ef20dee48d39984d8eabe768a70eafa6310ad20849d4573c3c40c2ad1e3062000834565b81600b14156200040057507f1bea3dec5dab51567ce7e200a30f7ba6d4276aeaa53e2686f962a46c66d511e562000834565b81600c14156200043257507f0ee0f941e2da4b9e31c3ca97a40d8fa9ce68d97c084177071b3cb46cd3372f0f62000834565b81600d14156200046457507f1ca9503e8935884501bbaf20be14eb4c46b89772c97b96e3b2ebf3a36a948bbd62000834565b81600e14156200049657507f133a80e30697cd55d8f7d4b0965b7be24057ba5dc3da898ee2187232446cb10862000834565b81600f1415620004c857507f13e6d8fc88839ed76e182c2a779af5b2c0da9dd18c90427a644f7e148a6253b662000834565b8160101415620004fa57507f1eb16b057a477f4bc8f572ea6bee39561098f78f15bfb3699dcbb7bd8db6185462000834565b81601114156200052c57507f0da2cb16a1ceaabf1c16b838f7a9e3f2a3a3088d9e0a6debaa748114620696ea62000834565b81601214156200055e57507f24a3b3d822420b14b5d8cb6c28a574f01e98ea9e940551d2ebd75cee12649f9d62000834565b81601314156200059057507f198622acbd783d1b0d9064105b1fc8e4d8889de95c4c519b3f635809fe6afc0562000834565b8160141415620005c257507f29d7ed391256ccc3ea596c86e933b89ff339d25ea8ddced975ae2fe30b5296d462000834565b8160151415620005f457507f19be59f2f0413ce78c0c3703a3a5451b1d7f39629fa33abd11548a76065b296762000834565b81601614156200062657507f1ff3f61797e538b70e619310d33f2a063e7eb59104e112e95738da1254dc345362000834565b81601714156200065857507f10c16ae9959cf8358980d9dd9616e48228737310a10e2b6b731c1a548f036c4862000834565b81601814156200068a57507f0ba433a63174a90ac20992e75e3095496812b652685b5e1a2eae0b1bf4e8fcd162000834565b8160191415620006bc57507f019ddb9df2bc98d987d0dfeca9d2b643deafab8f7036562e627c3667266a044c62000834565b81601a1415620006ee57507f2d3c88b23175c5a5565db928414c66d1912b11acf974b2e644caaac04739ce9962000834565b81601b14156200072057507f2eab55f6ae4e66e32c5189eed5c470840863445760f5ed7e7b69b2a62600f35462000834565b81601c14156200075157507e2df37a2642621802383cf952bf4dd1f32e05433beeb1fd41031fb7eace979d62000834565b81601d14156200078357507f104aeb41435db66c3e62feccc1d6f5d98d0a0ed75d1374db457cf462e3a1f42762000834565b81601e1415620007b557507f1f3c6fd858e9a7d4b0d1f38e256a09d81d5a5e3c963987e2d4b814cfab7c6ebb62000834565b81601f1415620007e757507f2c7a07d20dff79d01fecedc1134284a8d08436606c93693b67e333f671bf69cc62000834565b6040805162461bcd60e51b815260206004820152601360248201527f496e646578206f7574206f6620626f756e647300000000000000000000000000604482015290519081900360640190fd5b919050565b60805160601c610bd56200085760003980610b165250610bd56000f3fe608060405234801561001057600080fd5b50600436106100cf5760003560e01c8063c2b40ae41161008c578063ec73295911610066578063ec732959146101c4578063ed33639f146101cc578063f178e47c146101f0578063fc7e9c6f1461020d576100cf565b8063c2b40ae414610182578063cd87a3b41461019f578063e8295588146101a7576100cf565b8063414a37ba146100d45780634ecf518b146100ee5780636d9833e31461010f5780638ea3099e1461014057806390eeb02b14610172578063ba70f7571461017a575b600080fd5b6100dc610215565b60408051918252519081900360200190f35b6100f6610227565b6040805163ffffffff9092168252519081900360200190f35b61012c6004803603602081101561012557600080fd5b5035610233565b604080519115158252519081900360200190f35b6100dc6004803603606081101561015657600080fd5b506001600160a01b0381351690602081013590604001356102a7565b6100f6610473565b6100dc61047f565b6100dc6004803603602081101561019857600080fd5b503561049a565b6100f66104ac565b6100dc600480360360208110156101bd57600080fd5b50356104b1565b6100dc610af0565b6101d4610b14565b604080516001600160a01b039092168252519081900360200190f35b6100dc6004803603602081101561020657600080fd5b5035610b38565b6100f6610b4a565b600080516020610b8083398151915281565b60005463ffffffff1681565b600081610242575060006102a2565b60035463ffffffff165b63ffffffff81166000908152600260205260409020548314156102735760019150506102a2565b63ffffffff81166102825750601e5b6003546000199091019063ffffffff8083169116141561024c5760009150505b919050565b6000600080516020610b80833981519152831061030b576040805162461bcd60e51b815260206004820181905260248201527f5f6c6566742073686f756c6420626520696e7369646520746865206669656c64604482015290519081900360640190fd5b600080516020610b8083398151915282106103575760405162461bcd60e51b8152600401808060200182810382526021815260200180610b5f6021913960400191505060405180910390fd5b6040805163f47d33b560e01b8152600481018590526000602482018190528251869391926001600160a01b0389169263f47d33b592604480840193829003018186803b1580156103a657600080fd5b505afa1580156103ba573d6000803e3d6000fd5b505050506040513d60408110156103d057600080fd5b5080516020909101519092509050600080516020610b808339815191528483089150856001600160a01b031663f47d33b583836040518363ffffffff1660e01b81526004018083815260200182815260200192505050604080518083038186803b15801561043d57600080fd5b505afa158015610451573d6000803e3d6000fd5b505050506040513d604081101561046757600080fd5b50519695505050505050565b60035463ffffffff1681565b60035463ffffffff1660009081526002602052604090205490565b60026020526000908152604090205481565b601e81565b6000816104df57507f2fe54c60d3acabf3343a35b6eba15db4821b340f76e741e2249685ed4899af6c6102a2565b816001141561050f57507f256a6135777eee2fd26f54b8b7037a25439d5235caee224154186d2b8a52e31d6102a2565b816002141561053f57507f1151949895e82ab19924de92c40a3d6f7bcb60d92b00504b8199613683f0c2006102a2565b816003141561056f57507f20121ee811489ff8d61f09fb89e313f14959a0f28bb428a20dba6b0b068b3bdb6102a2565b816004141561059f57507f0a89ca6ffa14cc462cfedb842c30ed221a50a3d6bf022a6a57dc82ab24c157c96102a2565b81600514156105cf57507f24ca05c2b5cd42e890d6be94c68d0689f4f21c9cec9c0f13fe41d566dfb549596102a2565b81600614156105ff57507f1ccb97c932565a92c60156bdba2d08f3bf1377464e025cee765679e604a7315c6102a2565b816007141561062f57507f19156fbd7d1a8bf5cba8909367de1b624534ebab4f0f79e003bccdd1b182bdb46102a2565b816008141561065f57507f261af8c1f0912e465744641409f622d466c3920ac6e5ff37e36604cb11dfff806102a2565b816009141561068e57507e58459724ff6ca5a1652fcbc3e82b93895cf08e975b19beab3f54c217d1c0076102a2565b81600a14156106be57507f1f04ef20dee48d39984d8eabe768a70eafa6310ad20849d4573c3c40c2ad1e306102a2565b81600b14156106ee57507f1bea3dec5dab51567ce7e200a30f7ba6d4276aeaa53e2686f962a46c66d511e56102a2565b81600c141561071e57507f0ee0f941e2da4b9e31c3ca97a40d8fa9ce68d97c084177071b3cb46cd3372f0f6102a2565b81600d141561074e57507f1ca9503e8935884501bbaf20be14eb4c46b89772c97b96e3b2ebf3a36a948bbd6102a2565b81600e141561077e57507f133a80e30697cd55d8f7d4b0965b7be24057ba5dc3da898ee2187232446cb1086102a2565b81600f14156107ae57507f13e6d8fc88839ed76e182c2a779af5b2c0da9dd18c90427a644f7e148a6253b66102a2565b81601014156107de57507f1eb16b057a477f4bc8f572ea6bee39561098f78f15bfb3699dcbb7bd8db618546102a2565b816011141561080e57507f0da2cb16a1ceaabf1c16b838f7a9e3f2a3a3088d9e0a6debaa748114620696ea6102a2565b816012141561083e57507f24a3b3d822420b14b5d8cb6c28a574f01e98ea9e940551d2ebd75cee12649f9d6102a2565b816013141561086e57507f198622acbd783d1b0d9064105b1fc8e4d8889de95c4c519b3f635809fe6afc056102a2565b816014141561089e57507f29d7ed391256ccc3ea596c86e933b89ff339d25ea8ddced975ae2fe30b5296d46102a2565b81601514156108ce57507f19be59f2f0413ce78c0c3703a3a5451b1d7f39629fa33abd11548a76065b29676102a2565b81601614156108fe57507f1ff3f61797e538b70e619310d33f2a063e7eb59104e112e95738da1254dc34536102a2565b816017141561092e57507f10c16ae9959cf8358980d9dd9616e48228737310a10e2b6b731c1a548f036c486102a2565b816018141561095e57507f0ba433a63174a90ac20992e75e3095496812b652685b5e1a2eae0b1bf4e8fcd16102a2565b816019141561098e57507f019ddb9df2bc98d987d0dfeca9d2b643deafab8f7036562e627c3667266a044c6102a2565b81601a14156109be57507f2d3c88b23175c5a5565db928414c66d1912b11acf974b2e644caaac04739ce996102a2565b81601b14156109ee57507f2eab55f6ae4e66e32c5189eed5c470840863445760f5ed7e7b69b2a62600f3546102a2565b81601c1415610a1d57507e2df37a2642621802383cf952bf4dd1f32e05433beeb1fd41031fb7eace979d6102a2565b81601d1415610a4d57507f104aeb41435db66c3e62feccc1d6f5d98d0a0ed75d1374db457cf462e3a1f4276102a2565b81601e1415610a7d57507f1f3c6fd858e9a7d4b0d1f38e256a09d81d5a5e3c963987e2d4b814cfab7c6ebb6102a2565b81601f1415610aad57507f2c7a07d20dff79d01fecedc1134284a8d08436606c93693b67e333f671bf69cc6102a2565b6040805162461bcd60e51b8152602060048201526013602482015272496e646578206f7574206f6620626f756e647360681b604482015290519081900360640190fd5b7f2fe54c60d3acabf3343a35b6eba15db4821b340f76e741e2249685ed4899af6c81565b7f000000000000000000000000000000000000000000000000000000000000000081565b60016020526000908152604090205481565b600354640100000000900463ffffffff168156fe5f72696768742073686f756c6420626520696e7369646520746865206669656c6430644e72e131a029b85045b68181585d2833e84879b9709143e1f593f0000001a264697066735822122068a92858143fa42d5fa9d02475ac45b0c89bb998728ee0e0e77ad3bc6eafbd9064736f6c634300070000335f6c6576656c732073686f756c642062652067726561746572207468616e207a65726f",
  "linkReferences": {},
  "deployedLinkReferences": {}
}