{"contracts/ETHTornado.sol":{"ETHTornado":{"abi":[{"inputs":[{"internalType":"contract IVerifier","name":"_verifier","type":"address"},{"internalType":"contract IHasher","name":"_hasher","type":"address"},{"internalType":"uint256","name":"_denomination","type":"uint256"},{"internalType":"uint32","name":"_merkleTreeHeight","type":"uint32"}],"stateMutability":"nonpayable","type":"constructor"},{"anonymous":false,"inputs":[{"indexed":true,"internalType":"bytes32","name":"commitment","type":"bytes32"},{"indexed":false,"internalType":"uint32","name":"leafIndex","type":"uint32"},{"indexed":false,"internalType":"uint256","name":"timestamp","type":"uint256"}],"name":"Deposit","type":"event"},{"anonymous":false,"inputs":[{"indexed":false,"internalType":"address","name":"to","type":"address"},{"indexed":false,"internalType":"bytes32","name":"nullifierHash","type":"bytes32"},{"indexed":true,"internalType":"address","name":"relayer","type":"address"},{"indexed":false,"internalType":"uint256","name":"fee","type":"uint256"}],"name":"Withdrawal","type":"event"},{"inputs":[],"name":"FIELD_SIZE","outputs":[{"internalType":"uint256","name":"","type":"uint256"}],"stateMutability":"view","type":"function"},{"inputs":[],"name":"ROOT_HISTORY_SIZE","outputs":[{"internalType":"uint32","name":"","type":"uint32"}],"stateMutability":"view","type":"function"},{"inputs":[],"name":"ZERO_VALUE","outputs":[{"internalType":"uint256","name":"","type":"uint256"}],"stateMutability":"view","type":"function"},{"inputs":[],"name":"currentRootIndex","outputs":[{"internalType":"uint32","name":"","type":"uint32"}],"stateMutability":"view","type":"function"},{"inputs":[],"name":"denomination","outputs":[{"internalType":"uint256","name":"","type":"uint256"}],"stateMutability":"view","type":"function"},{"inputs":[{"internalType":"bytes32","name":"_commitment","type":"bytes32"}],"name":"deposit","outputs":[],"stateMutability":"payable","type":"function"},{"inputs":[{"internalType":"uint256","name":"","type":"uint256"}],"name":"filledSubtrees","outputs":[{"internalType":"bytes32","name":"","type":"bytes32"}],"stateMutability":"view","type":"function"},{"inputs":[],"name":"getLastRoot","outputs":[{"internalType":"bytes32","name":"","type":"bytes32"}],"stateMutability":"view","type":"function"},{"inputs":[{"internalType":"contract IHasher","name":"_hasher","type":"address"},{"internalType":"bytes32","name":"_left","type":"bytes32"},{"internalType":"bytes32","name":"_right","type":"bytes32"}],"name":"hashLeftRight","outputs":[{"internalType":"bytes32","name":"","type":"bytes32"}],"stateMutability":"pure","type":"function"},{"inputs":[],"name":"hasher","outputs":[{"internalType":"contract IHasher","name":"","type":"address"}],"stateMutability":"view","type":"function"},{"inputs":[{"internalType":"bytes32","name":"_root","type":"bytes32"}],"name":"isKnownRoot","outputs":[{"internalType":"bool","name":"","type":"bool"}],"stateMutability":"view","type":"function"},{"inputs":[{"internalType":"bytes32","name":"_nullifierHash","type":"bytes32"}],"name":"isSpent","outputs":[{"internalType":"bool","name":"","type":"bool"}],"stateMutability":"view","type":"function"},{"inputs":[{"internalType":"bytes32[]","name":"_nullifierHashes","type":"bytes32[]"}],"name":"isSpentArray","outputs":[{"internalType":"bool[]","name":"spent","type":"bool[]"}],"stateMutability":"view","type":"function"},{"inputs":[],"name":"levels","outputs":[{"internalType":"uint32","name":"","type":"uint32"}],"stateMutability":"view","type":"function"},{"inputs":[],"name":"nextIndex","outputs":[{"internalType":"uint32","name":"","type":"uint32"}],"stateMutability":"view","type":"function"},{"inputs":[{"internalType":"bytes32","name":"","type":"bytes32"}],"name":"nullifierHashes","outputs":[{"internalType":"bool","name":"","type":"bool"}],"stateMutability":"view","type":"function"},{"inputs":[{"internalType":"uint256","name":"","type":"uint256"}],"name":"roots","outputs":[{"internalType":"bytes32","name":"","type":"bytes32"}],"stateMutability":"view","type":"function"},{"inputs":[],"name":"verifier","outputs":[{"internalType":"contract IVerifier","name":"","type":"address"}],"stateMutability":"view","type":"function"},{"inputs":[{"internalType":"uint256[2]","name":"_proof_a","type":"uint256[2]"},{"internalType":"uint256[2][2]","name":"_proof_b","type":"uint256[2][2]"},{"internalType":"uint256[2]","name":"_proof_c","type":"uint256[2]"},{"internalType":"bytes32","name":"_root","type":"bytes32"},{"internalType":"bytes32","name":"_nullifierHash","type":"bytes32"},{"internalType":"address payable","name":"_recipient","type":"address"},{"internalType":"address payable","name":"_relayer","type":"address"},{"internalType":"uint256","name":"_fee","type":"uint256"},{"internalType":"uint256","name":"_refund","type":"uint256"}],"name":"withdraw","outputs":[],"stateMutability":"payable","type":"function"},{"inputs":[{"internalType":"uint256","name":"i","type":"uint256"}],"name":"zeros","outputs":[{"internalType":"bytes32","name":"","type":"bytes32"}],"stateMutability":"pure","type":"function"}],"evm":{"bytecode":{"linkReferences":{},"object":"60c0604052600380546001600160401b03191690553480156200002157600080fd5b506040516200227338038062002273833981810160405260808110156200004757600080fd5b508051602082015160408301516060909301519192909183838383808363ffffffff8216620000a85760405162461bcd60e51b8152600401808060200182810382526023815260200180620022506023913960400191505060405180910390fd5b60208263ffffffff161062000104576040805162461bcd60e51b815260206004820152601e60248201527f5f6c6576656c732073686f756c64206265206c657373207468616e2033320000604482015290519081900360640190fd5b6000805463ffffffff191663ffffffff8416178155606082901b6001600160601b0319166080525b8263ffffffff168163ffffffff16101562000175576200015263ffffffff821662000233565b63ffffffff8216600090815260016020819052604090912091909155016200012c565b506200018b63ffffffff60001984011662000233565b6000805260026020527fac33ff75c19e70fe83507db0d683fd3465c996598dc972688b7ace676c89077b55505060016004558162000210576040805162461bcd60e51b815260206004820152601a60248201527f64656e6f6d696e6174696f6e2063616e206e6f74206265203021000000000000604482015290519081900360640190fd5b5060609290921b6001600160601b03191660a0525060055550620008c192505050565b6000816200026357507f2fe54c60d3acabf3343a35b6eba15db4821b340f76e741e2249685ed4899af6c620008bc565b81600114156200029557507f256a6135777eee2fd26f54b8b7037a25439d5235caee224154186d2b8a52e31d620008bc565b8160021415620002c757507f1151949895e82ab19924de92c40a3d6f7bcb60d92b00504b8199613683f0c200620008bc565b8160031415620002f957507f20121ee811489ff8d61f09fb89e313f14959a0f28bb428a20dba6b0b068b3bdb620008bc565b81600414156200032b57507f0a89ca6ffa14cc462cfedb842c30ed221a50a3d6bf022a6a57dc82ab24c157c9620008bc565b81600514156200035d57507f24ca05c2b5cd42e890d6be94c68d0689f4f21c9cec9c0f13fe41d566dfb54959620008bc565b81600614156200038f57507f1ccb97c932565a92c60156bdba2d08f3bf1377464e025cee765679e604a7315c620008bc565b8160071415620003c157507f19156fbd7d1a8bf5cba8909367de1b624534ebab4f0f79e003bccdd1b182bdb4620008bc565b8160081415620003f357507f261af8c1f0912e465744641409f622d466c3920ac6e5ff37e36604cb11dfff80620008bc565b81600914156200042457507e58459724ff6ca5a1652fcbc3e82b93895cf08e975b19beab3f54c217d1c007620008bc565b81600a14156200045657507f1f04ef20dee48d39984d8eabe768a70eafa6310ad20849d4573c3c40c2ad1e30620008bc565b81600b14156200048857507f1bea3dec5dab51567ce7e200a30f7ba6d4276aeaa53e2686f962a46c66d511e5620008bc565b81600c1415620004ba57507f0ee0f941e2da4b9e31c3ca97a40d8fa9ce68d97c084177071b3cb46cd3372f0f620008bc565b81600d1415620004ec57507f1ca9503e8935884501bbaf20be14eb4c46b89772c97b96e3b2ebf3a36a948bbd620008bc565b81600e14156200051e57507f133a80e30697cd55d8f7d4b0965b7be24057ba5dc3da898ee2187232446cb108620008bc565b81600f14156200055057507f13e6d8fc88839ed76e182c2a779af5b2c0da9dd18c90427a644f7e148a6253b6620008bc565b81601014156200058257507f1eb16b057a477f4bc8f572ea6bee39561098f78f15bfb3699dcbb7bd8db61854620008bc565b8160111415620005b457507f0da2cb16a1ceaabf1c16b838f7a9e3f2a3a3088d9e0a6debaa748114620696ea620008bc565b8160121415620005e657507f24a3b3d822420b14b5d8cb6c28a574f01e98ea9e940551d2ebd75cee12649f9d620008bc565b81601314156200061857507f198622acbd783d1b0d9064105b1fc8e4d8889de95c4c519b3f635809fe6afc05620008bc565b81601414156200064a57507f29d7ed391256ccc3ea596c86e933b89ff339d25ea8ddced975ae2fe30b5296d4620008bc565b81601514156200067c57507f19be59f2f0413ce78c0c3703a3a5451b1d7f39629fa33abd11548a76065b2967620008bc565b8160161415620006ae57507f1ff3f61797e538b70e619310d33f2a063e7eb59104e112e95738da1254dc3453620008bc565b8160171415620006e057507f10c16ae9959cf8358980d9dd9616e48228737310a10e2b6b731c1a548f036c48620008bc565b81601814156200071257507f0ba433a63174a90ac20992e75e3095496812b652685b5e1a2eae0b1bf4e8fcd1620008bc565b81601914156200074457507f019ddb9df2bc98d987d0dfeca9d2b643deafab8f7036562e627c3667266a044c620008bc565b81601a14156200077657507f2d3c88b23175c5a5565db928414c66d1912b11acf974b2e644caaac04739ce99620008bc565b81601b1415620007a857507f2eab55f6ae4e66e32c5189eed5c470840863445760f5ed7e7b69b2a62600f354620008bc565b81601c1415620007d957507e2df37a2642621802383cf952bf4dd1f32e05433beeb1fd41031fb7eace979d620008bc565b81601d14156200080b57507f104aeb41435db66c3e62feccc1d6f5d98d0a0ed75d1374db457cf462e3a1f427620008bc565b81601e14156200083d57507f1f3c6fd858e9a7d4b0d1f38e256a09d81d5a5e3c963987e2d4b814cfab7c6ebb620008bc565b81601f14156200086f57507f2c7a07d20dff79d01fecedc1134284a8d08436606c93693b67e333f671bf69cc620008bc565b6040805162461bcd60e51b815260206004820152601360248201527f496e646578206f7574206f6620626f756e647300000000000000000000000000604482015290519081900360640190fd5b919050565b60805160601c60a05160601c61195b620008f5600039806106fb528061096252508061145e5280611775525061195b6000f3fe60806040526004361061011f5760003560e01c8063b214faa5116100a0578063e829558811610064578063e8295588146104df578063ec73295914610509578063ed33639f1461051e578063f178e47c14610533578063fc7e9c6f1461055d5761011f565b8063b214faa514610444578063ba70f75714610461578063c2b40ae414610476578063cd87a3b4146104a0578063e5285dcc146104b55761011f565b80636d9833e3116100e75780636d9833e3146102e45780638bca6d161461030e5780638ea3099e1461032357806390eeb02b146103625780639fa12d0b146103775761011f565b806317cc915c146101245780632aa4eeec146101625780632b7ac3f31461025e578063414a37ba1461028f5780634ecf518b146102b6575b600080fd5b34801561013057600080fd5b5061014e6004803603602081101561014757600080fd5b5035610572565b604080519115158252519081900360200190f35b61025c60048036036101c081101561017957600080fd5b6040805180820182529183019291818301918390600290839083908082843760009201829052506040805180820190915293969594608081019493509150600290835b828210156101fa57604080518082018252908084028601906002908390839080828437600092019190915250505081526001909101906020016101bc565b505060408051808201825293969594818101949350915060029083908390808284376000920191909152509194505081359250506020810135906001600160a01b03604082013581169160608101359091169060808101359060a00135610587565b005b34801561026a57600080fd5b50610273610960565b604080516001600160a01b039092168252519081900360200190f35b34801561029b57600080fd5b506102a4610984565b60408051918252519081900360200190f35b3480156102c257600080fd5b506102cb610996565b6040805163ffffffff9092168252519081900360200190f35b3480156102f057600080fd5b5061014e6004803603602081101561030757600080fd5b50356109a2565b34801561031a57600080fd5b506102a4610a16565b34801561032f57600080fd5b506102a46004803603606081101561034657600080fd5b506001600160a01b038135169060208101359060400135610a1c565b34801561036e57600080fd5b506102cb610be8565b34801561038357600080fd5b506103f46004803603602081101561039a57600080fd5b8101906020810181356401000000008111156103b557600080fd5b8201836020820111156103c757600080fd5b803590602001918460208302840111640100000000831117156103e957600080fd5b509092509050610bf4565b60408051602080825283518183015283519192839290830191858101910280838360005b83811015610430578181015183820152602001610418565b505050509050019250505060405180910390f35b61025c6004803603602081101561045a57600080fd5b5035610c93565b34801561046d57600080fd5b506102a4610db2565b34801561048257600080fd5b506102a46004803603602081101561049957600080fd5b5035610dcd565b3480156104ac57600080fd5b506102cb610ddf565b3480156104c157600080fd5b5061014e600480360360208110156104d857600080fd5b5035610de4565b3480156104eb57600080fd5b506102a46004803603602081101561050257600080fd5b5035610df9565b34801561051557600080fd5b506102a4611438565b34801561052a57600080fd5b5061027361145c565b34801561053f57600080fd5b506102a46004803603602081101561055657600080fd5b5035611480565b34801561056957600080fd5b506102cb611492565b60066020526000908152604090205460ff1681565b600260045414156105df576040805162461bcd60e51b815260206004820152601f60248201527f5265656e7472616e637947756172643a207265656e7472616e742063616c6c00604482015290519081900360640190fd5b600260045560055482111561063b576040805162461bcd60e51b815260206004820152601a60248201527f4665652065786365656473207472616e736665722076616c7565000000000000604482015290519081900360640190fd5b60008581526006602052604090205460ff161561069f576040805162461bcd60e51b815260206004820152601f60248201527f546865206e6f746520686173206265656e20616c7265616479207370656e7400604482015290519081900360640190fd5b6106a8866109a2565b6106f9576040805162461bcd60e51b815260206004820152601c60248201527f43616e6e6f742066696e6420796f7572206d65726b6c6520726f6f7400000000604482015290519081900360640190fd5b7f00000000000000000000000000000000000000000000000000000000000000006001600160a01b031663f398789b8a8a8a6040518060c001604052808c60001c81526020018b60001c81526020018a6001600160a01b03168152602001896001600160a01b03168152602001888152602001878152506040518563ffffffff1660e01b81526004018085600260200280838360005b838110156107a757818101518382015260200161078f565b505050509050018460026000925b818410156107f55760208402830151604080838360005b838110156107e45781810151838201526020016107cc565b5050505090500192600101926107b5565b9250505083600260200280838360005b8381101561081d578181015183820152602001610805565b5050505090500182600660200280838360005b83811015610848578181015183820152602001610830565b50505050905001945050505050602060405180830381600087803b15801561086f57600080fd5b505af1158015610883573d6000803e3d6000fd5b505050506040513d602081101561089957600080fd5b50516108dd576040805162461bcd60e51b815260206004820152600e60248201526d70726f6f6620696e76616c69646560901b604482015290519081900360640190fd5b6000858152600660205260409020805460ff19166001179055610902848484846114a6565b604080516001600160a01b038681168252602082018890528183018590529151918516917fe9e508bad6d4c3227e881ca19068f099da81b5164dd6d62b2eaf1e8bc6c349319181900360600190a25050600160045550505050505050565b7f000000000000000000000000000000000000000000000000000000000000000081565b6000805160206118d683398151915281565b60005463ffffffff1681565b6000816109b157506000610a11565b60035463ffffffff165b63ffffffff81166000908152600260205260409020548314156109e2576001915050610a11565b63ffffffff81166109f15750601e5b6003546000199091019063ffffffff808316911614156109bb5760009150505b919050565b60055481565b60006000805160206118d68339815191528310610a80576040805162461bcd60e51b815260206004820181905260248201527f5f6c6566742073686f756c6420626520696e7369646520746865206669656c64604482015290519081900360640190fd5b6000805160206118d68339815191528210610acc5760405162461bcd60e51b81526004018080602001828103825260218152602001806118936021913960400191505060405180910390fd5b6040805163f47d33b560e01b8152600481018590526000602482018190528251869391926001600160a01b0389169263f47d33b592604480840193829003018186803b158015610b1b57600080fd5b505afa158015610b2f573d6000803e3d6000fd5b505050506040513d6040811015610b4557600080fd5b50805160209091015190925090506000805160206118d68339815191528483089150856001600160a01b031663f47d33b583836040518363ffffffff1660e01b81526004018083815260200182815260200192505050604080518083038186803b158015610bb257600080fd5b505afa158015610bc6573d6000803e3d6000fd5b505050506040513d6040811015610bdc57600080fd5b50519695505050505050565b60035463ffffffff1681565b60608167ffffffffffffffff81118015610c0d57600080fd5b50604051908082528060200260200182016040528015610c37578160200160208202803683370190505b50905060005b82811015610c8c57610c60848483818110610c5457fe5b90506020020135610de4565b15610c84576001828281518110610c7357fe5b911515602092830291909101909101525b600101610c3d565b5092915050565b60026004541415610ceb576040805162461bcd60e51b815260206004820152601f60248201527f5265656e7472616e637947756172643a207265656e7472616e742063616c6c00604482015290519081900360640190fd5b600260045560008181526007602052604090205460ff1615610d3e5760405162461bcd60e51b81526004018080602001828103825260228152602001806118b46022913960400191505060405180910390fd5b6000818152600760205260408120805460ff19166001179055610d60826116a2565b9050610d6a611818565b6040805163ffffffff83168152426020820152815184927fa945e51eec50ab98c161376f0db4cf2aeba3ec92755fe2fcd388bdbbb80ff196928290030190a250506001600455565b60035463ffffffff1660009081526002602052604090205490565b60026020526000908152604090205481565b601e81565b60009081526006602052604090205460ff1690565b600081610e2757507f2fe54c60d3acabf3343a35b6eba15db4821b340f76e741e2249685ed4899af6c610a11565b8160011415610e5757507f256a6135777eee2fd26f54b8b7037a25439d5235caee224154186d2b8a52e31d610a11565b8160021415610e8757507f1151949895e82ab19924de92c40a3d6f7bcb60d92b00504b8199613683f0c200610a11565b8160031415610eb757507f20121ee811489ff8d61f09fb89e313f14959a0f28bb428a20dba6b0b068b3bdb610a11565b8160041415610ee757507f0a89ca6ffa14cc462cfedb842c30ed221a50a3d6bf022a6a57dc82ab24c157c9610a11565b8160051415610f1757507f24ca05c2b5cd42e890d6be94c68d0689f4f21c9cec9c0f13fe41d566dfb54959610a11565b8160061415610f4757507f1ccb97c932565a92c60156bdba2d08f3bf1377464e025cee765679e604a7315c610a11565b8160071415610f7757507f19156fbd7d1a8bf5cba8909367de1b624534ebab4f0f79e003bccdd1b182bdb4610a11565b8160081415610fa757507f261af8c1f0912e465744641409f622d466c3920ac6e5ff37e36604cb11dfff80610a11565b8160091415610fd657507e58459724ff6ca5a1652fcbc3e82b93895cf08e975b19beab3f54c217d1c007610a11565b81600a141561100657507f1f04ef20dee48d39984d8eabe768a70eafa6310ad20849d4573c3c40c2ad1e30610a11565b81600b141561103657507f1bea3dec5dab51567ce7e200a30f7ba6d4276aeaa53e2686f962a46c66d511e5610a11565b81600c141561106657507f0ee0f941e2da4b9e31c3ca97a40d8fa9ce68d97c084177071b3cb46cd3372f0f610a11565b81600d141561109657507f1ca9503e8935884501bbaf20be14eb4c46b89772c97b96e3b2ebf3a36a948bbd610a11565b81600e14156110c657507f133a80e30697cd55d8f7d4b0965b7be24057ba5dc3da898ee2187232446cb108610a11565b81600f14156110f657507f13e6d8fc88839ed76e182c2a779af5b2c0da9dd18c90427a644f7e148a6253b6610a11565b816010141561112657507f1eb16b057a477f4bc8f572ea6bee39561098f78f15bfb3699dcbb7bd8db61854610a11565b816011141561115657507f0da2cb16a1ceaabf1c16b838f7a9e3f2a3a3088d9e0a6debaa748114620696ea610a11565b816012141561118657507f24a3b3d822420b14b5d8cb6c28a574f01e98ea9e940551d2ebd75cee12649f9d610a11565b81601314156111b657507f198622acbd783d1b0d9064105b1fc8e4d8889de95c4c519b3f635809fe6afc05610a11565b81601414156111e657507f29d7ed391256ccc3ea596c86e933b89ff339d25ea8ddced975ae2fe30b5296d4610a11565b816015141561121657507f19be59f2f0413ce78c0c3703a3a5451b1d7f39629fa33abd11548a76065b2967610a11565b816016141561124657507f1ff3f61797e538b70e619310d33f2a063e7eb59104e112e95738da1254dc3453610a11565b816017141561127657507f10c16ae9959cf8358980d9dd9616e48228737310a10e2b6b731c1a548f036c48610a11565b81601814156112a657507f0ba433a63174a90ac20992e75e3095496812b652685b5e1a2eae0b1bf4e8fcd1610a11565b81601914156112d657507f019ddb9df2bc98d987d0dfeca9d2b643deafab8f7036562e627c3667266a044c610a11565b81601a141561130657507f2d3c88b23175c5a5565db928414c66d1912b11acf974b2e644caaac04739ce99610a11565b81601b141561133657507f2eab55f6ae4e66e32c5189eed5c470840863445760f5ed7e7b69b2a62600f354610a11565b81601c141561136557507e2df37a2642621802383cf952bf4dd1f32e05433beeb1fd41031fb7eace979d610a11565b81601d141561139557507f104aeb41435db66c3e62feccc1d6f5d98d0a0ed75d1374db457cf462e3a1f427610a11565b81601e14156113c557507f1f3c6fd858e9a7d4b0d1f38e256a09d81d5a5e3c963987e2d4b814cfab7c6ebb610a11565b81601f14156113f557507f2c7a07d20dff79d01fecedc1134284a8d08436606c93693b67e333f671bf69cc610a11565b6040805162461bcd60e51b8152602060048201526013602482015272496e646578206f7574206f6620626f756e647360681b604482015290519081900360640190fd5b7f2fe54c60d3acabf3343a35b6eba15db4821b340f76e741e2249685ed4899af6c81565b7f000000000000000000000000000000000000000000000000000000000000000081565b60016020526000908152604090205481565b600354640100000000900463ffffffff1681565b34156114f9576040805162461bcd60e51b815260206004820152601d60248201527f43616e6e6f742073656e6420455448207768656e207769746864726177000000604482015290519081900360640190fd5b801561154c576040805162461bcd60e51b815260206004820152601b60248201527f526566756e642076616c75652063616e6e6f74206265207a65726f0000000000604482015290519081900360640190fd5b6005546040516000916001600160a01b0387169190859003908381818185875af1925050503d806000811461159d576040519150601f19603f3d011682016040523d82523d6000602084013e6115a2565b606091505b50509050806115ef576040805162461bcd60e51b8152602060048201526014602482015273455448207472616e73666572206661696c65642160601b604482015290519081900360640190fd5b821561169b576040516001600160a01b038516908490600081818185875af1925050503d806000811461163e576040519150601f19603f3d011682016040523d82523d6000602084013e611643565b606091505b5050809150508061169b576040805162461bcd60e51b815260206004820181905260248201527f455448207472616e7366657220746f205f72656c61796572206661696c656421604482015290519081900360640190fd5b5050505050565b60035460008054909163ffffffff640100000000909104811691811660020a168114156117005760405162461bcd60e51b81526004018080602001828103825260308152602001806118f66030913960400191505060405180910390fd5b8083600080805b60005463ffffffff90811690821610156117b15760018516611754578392506117358163ffffffff16610df9565b63ffffffff821660009081526001602052604090208590559150611770565b63ffffffff811660009081526001602052604090205492508391505b61179b7f00000000000000000000000000000000000000000000000000000000000000008484610a1c565b9350600263ffffffff8616049450600101611707565b505060038054601e63ffffffff8083166001908101821692909206811663ffffffff1990931683178455600092835260026020526040909220949094558154938601166401000000000267ffffffff00000000199093169290921790915550909392505050565b60055434146118585760405162461bcd60e51b815260040180806020018281038252603881526020018061185b6038913960400191505060405180910390fd5b56fe506c656173652073656e6420606d697844656e6f6d696e6174696f6e602045544820616c6f6e672077697468207472616e73616374696f6e5f72696768742073686f756c6420626520696e7369646520746865206669656c64636f6d6d69746d656e742068617665206265656e207573656420616c72656164792130644e72e131a029b85045b68181585d2833e84879b9709143e1f593f00000014d65726b6c6520747265652069732066756c6c2e204e6f206d6f7265206c65617665732063616e206265206164646564a2646970667358221220c4f700cb3dacb6f86fcfcd7a2675f2e45adbae33739228907988ecd43fd7dfee64736f6c634300070000335f6c6576656c732073686f756c642062652067726561746572207468616e207a65726f","opcodes":"PUSH1 0xC0 PUSH1 0x40 MSTORE PUSH1 0x3 DUP1 SLOAD PUSH1 0x1 PUSH1 0x1 PUSH1 0x40 SHL SUB NOT AND SWAP1 SSTORE CALLVALUE DUP1 ISZERO PUSH3 0x21 JUMPI PUSH1 0x0 DUP1 REVERT JUMPDEST POP PUSH1 0x40 MLOAD PUSH3 0x2273 CODESIZE SUB DUP1 PUSH3 0x2273 DUP4 CODECOPY DUP2 DUP2 ADD PUSH1 0x40 MSTORE PUSH1 0x80 DUP2 LT ISZERO PUSH3 0x47 JUMPI PUSH1 0x0 DUP1 REVERT JUMPDEST POP DUP1 MLOAD PUSH1 0x20 DUP3 ADD MLOAD PUSH1 0x40 DUP4 ADD MLOAD PUSH1 0x60 SWAP1 SWAP4 ADD MLOAD SWAP2 SWAP3 SWAP1 SWAP2 DUP4 DUP4 DUP4 DUP4 DUP1 DUP4 PUSH4 0xFFFFFFFF DUP3 AND PUSH3 0xA8 JUMPI PUSH1 0x40 MLOAD PUSH3 0x461BCD PUSH1 0xE5 SHL DUP2 MSTORE PUSH1 0x4 ADD DUP1 DUP1 PUSH1 0x20 ADD DUP3 DUP2 SUB DUP3 MSTORE PUSH1 0x23 DUP2 MSTORE PUSH1 0x20 ADD DUP1 PUSH3 0x2250 PUSH1 0x23 SWAP2 CODECOPY PUSH1 0x40 ADD SWAP2 POP POP PUSH1 0x40 MLOAD DUP1 SWAP2 SUB SWAP1 REVERT JUMPDEST PUSH1 0x20 DUP3 PUSH4 0xFFFFFFFF AND LT PUSH3 0x104 JUMPI PUSH1 0x40 DUP1 MLOAD PUSH3 0x461BCD PUSH1 0xE5 SHL DUP2 MSTORE PUSH1 0x20 PUSH1 0x4 DUP3 ADD MSTORE PUSH1 0x1E PUSH1 0x24 DUP3 ADD MSTORE PUSH32 0x5F6C6576656C732073686F756C64206265206C657373207468616E2033320000 PUSH1 0x44 DUP3 ADD MSTORE SWAP1 MLOAD SWAP1 DUP2 SWAP1 SUB PUSH1 0x64 ADD SWAP1 REVERT JUMPDEST PUSH1 0x0 DUP1 SLOAD PUSH4 0xFFFFFFFF NOT AND PUSH4 0xFFFFFFFF DUP5 AND OR DUP2 SSTORE PUSH1 0x60 DUP3 SWAP1 SHL PUSH1 0x1 PUSH1 0x1 PUSH1 0x60 SHL SUB NOT AND PUSH1 0x80 MSTORE JUMPDEST DUP3 PUSH4 0xFFFFFFFF AND DUP2 PUSH4 0xFFFFFFFF AND LT ISZERO PUSH3 0x175 JUMPI PUSH3 0x152 PUSH4 0xFFFFFFFF DUP3 AND PUSH3 0x233 JUMP JUMPDEST PUSH4 0xFFFFFFFF DUP3 AND PUSH1 0x0 SWAP1 DUP2 MSTORE PUSH1 0x1 PUSH1 0x20 DUP2 SWAP1 MSTORE PUSH1 0x40 SWAP1 SWAP2 KECCAK256 SWAP2 SWAP1 SWAP2 SSTORE ADD PUSH3 0x12C JUMP JUMPDEST POP PUSH3 0x18B PUSH4 0xFFFFFFFF PUSH1 0x0 NOT DUP5 ADD AND PUSH3 0x233 JUMP JUMPDEST PUSH1 0x0 DUP1 MSTORE PUSH1 0x2 PUSH1 0x20 MSTORE PUSH32 0xAC33FF75C19E70FE83507DB0D683FD3465C996598DC972688B7ACE676C89077B SSTORE POP POP PUSH1 0x1 PUSH1 0x4 SSTORE DUP2 PUSH3 0x210 JUMPI PUSH1 0x40 DUP1 MLOAD PUSH3 0x461BCD PUSH1 0xE5 SHL DUP2 MSTORE PUSH1 0x20 PUSH1 0x4 DUP3 ADD MSTORE PUSH1 0x1A PUSH1 0x24 DUP3 ADD MSTORE PUSH32 0x64656E6F6D696E6174696F6E2063616E206E6F74206265203021000000000000 PUSH1 0x44 DUP3 ADD MSTORE SWAP1 MLOAD SWAP1 DUP2 SWAP1 SUB PUSH1 0x64 ADD SWAP1 REVERT JUMPDEST POP PUSH1 0x60 SWAP3 SWAP1 SWAP3 SHL PUSH1 0x1 PUSH1 0x1 PUSH1 0x60 SHL SUB NOT AND PUSH1 0xA0 MSTORE POP PUSH1 0x5 SSTORE POP PUSH3 0x8C1 SWAP3 POP POP POP JUMP JUMPDEST PUSH1 0x0 DUP2 PUSH3 0x263 JUMPI POP PUSH32 0x2FE54C60D3ACABF3343A35B6EBA15DB4821B340F76E741E2249685ED4899AF6C PUSH3 0x8BC JUMP JUMPDEST DUP2 PUSH1 0x1 EQ ISZERO PUSH3 0x295 JUMPI POP PUSH32 0x256A6135777EEE2FD26F54B8B7037A25439D5235CAEE224154186D2B8A52E31D PUSH3 0x8BC JUMP JUMPDEST DUP2 PUSH1 0x2 EQ ISZERO PUSH3 0x2C7 JUMPI POP PUSH32 0x1151949895E82AB19924DE92C40A3D6F7BCB60D92B00504B8199613683F0C200 PUSH3 0x8BC JUMP JUMPDEST DUP2 PUSH1 0x3 EQ ISZERO PUSH3 0x2F9 JUMPI POP PUSH32 0x20121EE811489FF8D61F09FB89E313F14959A0F28BB428A20DBA6B0B068B3BDB PUSH3 0x8BC JUMP JUMPDEST DUP2 PUSH1 0x4 EQ ISZERO PUSH3 0x32B JUMPI POP PUSH32 0xA89CA6FFA14CC462CFEDB842C30ED221A50A3D6BF022A6A57DC82AB24C157C9 PUSH3 0x8BC JUMP JUMPDEST DUP2 PUSH1 0x5 EQ ISZERO PUSH3 0x35D JUMPI POP PUSH32 0x24CA05C2B5CD42E890D6BE94C68D0689F4F21C9CEC9C0F13FE41D566DFB54959 PUSH3 0x8BC JUMP JUMPDEST DUP2 PUSH1 0x6 EQ ISZERO PUSH3 0x38F JUMPI POP PUSH32 0x1CCB97C932565A92C60156BDBA2D08F3BF1377464E025CEE765679E604A7315C PUSH3 0x8BC JUMP JUMPDEST DUP2 PUSH1 0x7 EQ ISZERO PUSH3 0x3C1 JUMPI POP PUSH32 0x19156FBD7D1A8BF5CBA8909367DE1B624534EBAB4F0F79E003BCCDD1B182BDB4 PUSH3 0x8BC JUMP JUMPDEST DUP2 PUSH1 0x8 EQ ISZERO PUSH3 0x3F3 JUMPI POP PUSH32 0x261AF8C1F0912E465744641409F622D466C3920AC6E5FF37E36604CB11DFFF80 PUSH3 0x8BC JUMP JUMPDEST DUP2 PUSH1 0x9 EQ ISZERO PUSH3 0x424 JUMPI POP PUSH31 0x58459724FF6CA5A1652FCBC3E82B93895CF08E975B19BEAB3F54C217D1C007 PUSH3 0x8BC JUMP JUMPDEST DUP2 PUSH1 0xA EQ ISZERO PUSH3 0x456 JUMPI POP PUSH32 0x1F04EF20DEE48D39984D8EABE768A70EAFA6310AD20849D4573C3C40C2AD1E30 PUSH3 0x8BC JUMP JUMPDEST DUP2 PUSH1 0xB EQ ISZERO PUSH3 0x488 JUMPI POP PUSH32 0x1BEA3DEC5DAB51567CE7E200A30F7BA6D4276AEAA53E2686F962A46C66D511E5 PUSH3 0x8BC JUMP JUMPDEST DUP2 PUSH1 0xC EQ ISZERO PUSH3 0x4BA JUMPI POP PUSH32 0xEE0F941E2DA4B9E31C3CA97A40D8FA9CE68D97C084177071B3CB46CD3372F0F PUSH3 0x8BC JUMP JUMPDEST DUP2 PUSH1 0xD EQ ISZERO PUSH3 0x4EC JUMPI POP PUSH32 0x1CA9503E8935884501BBAF20BE14EB4C46B89772C97B96E3B2EBF3A36A948BBD PUSH3 0x8BC JUMP JUMPDEST DUP2 PUSH1 0xE EQ ISZERO PUSH3 0x51E JUMPI POP PUSH32 0x133A80E30697CD55D8F7D4B0965B7BE24057BA5DC3DA898EE2187232446CB108 PUSH3 0x8BC JUMP JUMPDEST DUP2 PUSH1 0xF EQ ISZERO PUSH3 0x550 JUMPI POP PUSH32 0x13E6D8FC88839ED76E182C2A779AF5B2C0DA9DD18C90427A644F7E148A6253B6 PUSH3 0x8BC JUMP JUMPDEST DUP2 PUSH1 0x10 EQ ISZERO PUSH3 0x582 JUMPI POP PUSH32 0x1EB16B057A477F4BC8F572EA6BEE39561098F78F15BFB3699DCBB7BD8DB61854 PUSH3 0x8BC JUMP JUMPDEST DUP2 PUSH1 0x11 EQ ISZERO PUSH3 0x5B4 JUMPI POP PUSH32 0xDA2CB16A1CEAABF1C16B838F7A9E3F2A3A3088D9E0A6DEBAA748114620696EA PUSH3 0x8BC JUMP JUMPDEST DUP2 PUSH1 0x12 EQ ISZERO PUSH3 0x5E6 JUMPI POP PUSH32 0x24A3B3D822420B14B5D8CB6C28A574F01E98EA9E940551D2EBD75CEE12649F9D PUSH3 0x8BC JUMP JUMPDEST DUP2 PUSH1 0x13 EQ ISZERO PUSH3 0x618 JUMPI POP PUSH32 0x198622ACBD783D1B0D9064105B1FC8E4D8889DE95C4C519B3F635809FE6AFC05 PUSH3 0x8BC JUMP JUMPDEST DUP2 PUSH1 0x14 EQ ISZERO PUSH3 0x64A JUMPI POP PUSH32 0x29D7ED391256CCC3EA596C86E933B89FF339D25EA8DDCED975AE2FE30B5296D4 PUSH3 0x8BC JUMP JUMPDEST DUP2 PUSH1 0x15 EQ ISZERO PUSH3 0x67C JUMPI POP PUSH32 0x19BE59F2F0413CE78C0C3703A3A5451B1D7F39629FA33ABD11548A76065B2967 PUSH3 0x8BC JUMP JUMPDEST DUP2 PUSH1 0x16 EQ ISZERO PUSH3 0x6AE JUMPI POP PUSH32 0x1FF3F61797E538B70E619310D33F2A063E7EB59104E112E95738DA1254DC3453 PUSH3 0x8BC JUMP JUMPDEST DUP2 PUSH1 0x17 EQ ISZERO PUSH3 0x6E0 JUMPI POP PUSH32 0x10C16AE9959CF8358980D9DD9616E48228737310A10E2B6B731C1A548F036C48 PUSH3 0x8BC JUMP JUMPDEST DUP2 PUSH1 0x18 EQ ISZERO PUSH3 0x712 JUMPI POP PUSH32 0xBA433A63174A90AC20992E75E3095496812B652685B5E1A2EAE0B1BF4E8FCD1 PUSH3 0x8BC JUMP JUMPDEST DUP2 PUSH1 0x19 EQ ISZERO PUSH3 0x744 JUMPI POP PUSH32 0x19DDB9DF2BC98D987D0DFECA9D2B643DEAFAB8F7036562E627C3667266A044C PUSH3 0x8BC JUMP JUMPDEST DUP2 PUSH1 0x1A EQ ISZERO PUSH3 0x776 JUMPI POP PUSH32 0x2D3C88B23175C5A5565DB928414C66D1912B11ACF974B2E644CAAAC04739CE99 PUSH3 0x8BC JUMP JUMPDEST DUP2 PUSH1 0x1B EQ ISZERO PUSH3 0x7A8 JUMPI POP PUSH32 0x2EAB55F6AE4E66E32C5189EED5C470840863445760F5ED7E7B69B2A62600F354 PUSH3 0x8BC JUMP JUMPDEST DUP2 PUSH1 0x1C EQ ISZERO PUSH3 0x7D9 JUMPI POP PUSH31 0x2DF37A2642621802383CF952BF4DD1F32E05433BEEB1FD41031FB7EACE979D PUSH3 0x8BC JUMP JUMPDEST DUP2 PUSH1 0x1D EQ ISZERO PUSH3 0x80B JUMPI POP PUSH32 0x104AEB41435DB66C3E62FECCC1D6F5D98D0A0ED75D1374DB457CF462E3A1F427 PUSH3 0x8BC JUMP JUMPDEST DUP2 PUSH1 0x1E EQ ISZERO PUSH3 0x83D JUMPI POP PUSH32 0x1F3C6FD858E9A7D4B0D1F38E256A09D81D5A5E3C963987E2D4B814CFAB7C6EBB PUSH3 0x8BC JUMP JUMPDEST DUP2 PUSH1 0x1F EQ ISZERO PUSH3 0x86F JUMPI POP PUSH32 0x2C7A07D20DFF79D01FECEDC1134284A8D08436606C93693B67E333F671BF69CC PUSH3 0x8BC JUMP JUMPDEST PUSH1 0x40 DUP1 MLOAD PUSH3 0x461BCD PUSH1 0xE5 SHL DUP2 MSTORE PUSH1 0x20 PUSH1 0x4 DUP3 ADD MSTORE PUSH1 0x13 PUSH1 0x24 DUP3 ADD MSTORE PUSH32 0x496E646578206F7574206F6620626F756E647300000000000000000000000000 PUSH1 0x44 DUP3 ADD MSTORE SWAP1 MLOAD SWAP1 DUP2 SWAP1 SUB PUSH1 0x64 ADD SWAP1 REVERT JUMPDEST SWAP2 SWAP1 POP JUMP JUMPDEST PUSH1 0x80 MLOAD PUSH1 0x60 SHR PUSH1 0xA0 MLOAD PUSH1 0x60 SHR PUSH2 0x195B PUSH3 0x8F5 PUSH1 0x0 CODECOPY DUP1 PUSH2 0x6FB MSTORE DUP1 PUSH2 0x962 MSTORE POP DUP1 PUSH2 0x145E MSTORE DUP1 PUSH2 0x1775 MSTORE POP PUSH2 0x195B PUSH1 0x0 RETURN INVALID PUSH1 0x80 PUSH1 0x40 MSTORE PUSH1 0x4 CALLDATASIZE LT PUSH2 0x11F JUMPI PUSH1 0x0 CALLDATALOAD PUSH1 0xE0 SHR DUP1 PUSH4 0xB214FAA5 GT PUSH2 0xA0 JUMPI DUP1 PUSH4 0xE8295588 GT PUSH2 0x64 JUMPI DUP1 PUSH4 0xE8295588 EQ PUSH2 0x4DF JUMPI DUP1 PUSH4 0xEC732959 EQ PUSH2 0x509 JUMPI DUP1 PUSH4 0xED33639F EQ PUSH2 0x51E JUMPI DUP1 PUSH4 0xF178E47C EQ PUSH2 0x533 JUMPI DUP1 PUSH4 0xFC7E9C6F EQ PUSH2 0x55D JUMPI PUSH2 0x11F JUMP JUMPDEST DUP1 PUSH4 0xB214FAA5 EQ PUSH2 0x444 JUMPI DUP1 PUSH4 0xBA70F757 EQ PUSH2 0x461 JUMPI DUP1 PUSH4 0xC2B40AE4 EQ PUSH2 0x476 JUMPI DUP1 PUSH4 0xCD87A3B4 EQ PUSH2 0x4A0 JUMPI DUP1 PUSH4 0xE5285DCC EQ PUSH2 0x4B5 JUMPI PUSH2 0x11F JUMP JUMPDEST DUP1 PUSH4 0x6D9833E3 GT PUSH2 0xE7 JUMPI DUP1 PUSH4 0x6D9833E3 EQ PUSH2 0x2E4 JUMPI DUP1 PUSH4 0x8BCA6D16 EQ PUSH2 0x30E JUMPI DUP1 PUSH4 0x8EA3099E EQ PUSH2 0x323 JUMPI DUP1 PUSH4 0x90EEB02B EQ PUSH2 0x362 JUMPI DUP1 PUSH4 0x9FA12D0B EQ PUSH2 0x377 JUMPI PUSH2 0x11F JUMP JUMPDEST DUP1 PUSH4 0x17CC915C EQ PUSH2 0x124 JUMPI DUP1 PUSH4 0x2AA4EEEC EQ PUSH2 0x162 JUMPI DUP1 PUSH4 0x2B7AC3F3 EQ PUSH2 0x25E JUMPI DUP1 PUSH4 0x414A37BA EQ PUSH2 0x28F JUMPI DUP1 PUSH4 0x4ECF518B EQ PUSH2 0x2B6 JUMPI JUMPDEST PUSH1 0x0 DUP1 REVERT JUMPDEST CALLVALUE DUP1 ISZERO PUSH2 0x130 JUMPI PUSH1 0x0 DUP1 REVERT JUMPDEST POP PUSH2 0x14E PUSH1 0x4 DUP1 CALLDATASIZE SUB PUSH1 0x20 DUP2 LT ISZERO PUSH2 0x147 JUMPI PUSH1 0x0 DUP1 REVERT JUMPDEST POP CALLDATALOAD PUSH2 0x572 JUMP JUMPDEST PUSH1 0x40 DUP1 MLOAD SWAP2 ISZERO ISZERO DUP3 MSTORE MLOAD SWAP1 DUP2 SWAP1 SUB PUSH1 0x20 ADD SWAP1 RETURN JUMPDEST PUSH2 0x25C PUSH1 0x4 DUP1 CALLDATASIZE SUB PUSH2 0x1C0 DUP2 LT ISZERO PUSH2 0x179 JUMPI PUSH1 0x0 DUP1 REVERT JUMPDEST PUSH1 0x40 DUP1 MLOAD DUP1 DUP3 ADD DUP3 MSTORE SWAP2 DUP4 ADD SWAP3 SWAP2 DUP2 DUP4 ADD SWAP2 DUP4 SWAP1 PUSH1 0x2 SWAP1 DUP4 SWAP1 DUP4 SWAP1 DUP1 DUP3 DUP5 CALLDATACOPY PUSH1 0x0 SWAP3 ADD DUP3 SWAP1 MSTORE POP PUSH1 0x40 DUP1 MLOAD DUP1 DUP3 ADD SWAP1 SWAP2 MSTORE SWAP4 SWAP7 SWAP6 SWAP5 PUSH1 0x80 DUP2 ADD SWAP5 SWAP4 POP SWAP2 POP PUSH1 0x2 SWAP1 DUP4 JUMPDEST DUP3 DUP3 LT ISZERO PUSH2 0x1FA JUMPI PUSH1 0x40 DUP1 MLOAD DUP1 DUP3 ADD DUP3 MSTORE SWAP1 DUP1 DUP5 MUL DUP7 ADD SWAP1 PUSH1 0x2 SWAP1 DUP4 SWAP1 DUP4 SWAP1 DUP1 DUP3 DUP5 CALLDATACOPY PUSH1 0x0 SWAP3 ADD SWAP2 SWAP1 SWAP2 MSTORE POP POP POP DUP2 MSTORE PUSH1 0x1 SWAP1 SWAP2 ADD SWAP1 PUSH1 0x20 ADD PUSH2 0x1BC JUMP JUMPDEST POP POP PUSH1 0x40 DUP1 MLOAD DUP1 DUP3 ADD DUP3 MSTORE SWAP4 SWAP7 SWAP6 SWAP5 DUP2 DUP2 ADD SWAP5 SWAP4 POP SWAP2 POP PUSH1 0x2 SWAP1 DUP4 SWAP1 DUP4 SWAP1 DUP1 DUP3 DUP5 CALLDATACOPY PUSH1 0x0 SWAP3 ADD SWAP2 SWAP1 SWAP2 MSTORE POP SWAP2 SWAP5 POP POP DUP2 CALLDATALOAD SWAP3 POP POP PUSH1 0x20 DUP2 ADD CALLDATALOAD SWAP1 PUSH1 0x1 PUSH1 0x1 PUSH1 0xA0 SHL SUB PUSH1 0x40 DUP3 ADD CALLDATALOAD DUP2 AND SWAP2 PUSH1 0x60 DUP2 ADD CALLDATALOAD SWAP1 SWAP2 AND SWAP1 PUSH1 0x80 DUP2 ADD CALLDATALOAD SWAP1 PUSH1 0xA0 ADD CALLDATALOAD PUSH2 0x587 JUMP JUMPDEST STOP JUMPDEST CALLVALUE DUP1 ISZERO PUSH2 0x26A JUMPI PUSH1 0x0 DUP1 REVERT JUMPDEST POP PUSH2 0x273 PUSH2 0x960 JUMP JUMPDEST PUSH1 0x40 DUP1 MLOAD PUSH1 0x1 PUSH1 0x1 PUSH1 0xA0 SHL SUB SWAP1 SWAP3 AND DUP3 MSTORE MLOAD SWAP1 DUP2 SWAP1 SUB PUSH1 0x20 ADD SWAP1 RETURN JUMPDEST CALLVALUE DUP1 ISZERO PUSH2 0x29B JUMPI PUSH1 0x0 DUP1 REVERT JUMPDEST POP PUSH2 0x2A4 PUSH2 0x984 JUMP JUMPDEST PUSH1 0x40 DUP1 MLOAD SWAP2 DUP3 MSTORE MLOAD SWAP1 DUP2 SWAP1 SUB PUSH1 0x20 ADD SWAP1 RETURN JUMPDEST CALLVALUE DUP1 ISZERO PUSH2 0x2C2 JUMPI PUSH1 0x0 DUP1 REVERT JUMPDEST POP PUSH2 0x2CB PUSH2 0x996 JUMP JUMPDEST PUSH1 0x40 DUP1 MLOAD PUSH4 0xFFFFFFFF SWAP1 SWAP3 AND DUP3 MSTORE MLOAD SWAP1 DUP2 SWAP1 SUB PUSH1 0x20 ADD SWAP1 RETURN JUMPDEST CALLVALUE DUP1 ISZERO PUSH2 0x2F0 JUMPI PUSH1 0x0 DUP1 REVERT JUMPDEST POP PUSH2 0x14E PUSH1 0x4 DUP1 CALLDATASIZE SUB PUSH1 0x20 DUP2 LT ISZERO PUSH2 0x307 JUMPI PUSH1 0x0 DUP1 REVERT JUMPDEST POP CALLDATALOAD PUSH2 0x9A2 JUMP JUMPDEST CALLVALUE DUP1 ISZERO PUSH2 0x31A JUMPI PUSH1 0x0 DUP1 REVERT JUMPDEST POP PUSH2 0x2A4 PUSH2 0xA16 JUMP JUMPDEST CALLVALUE DUP1 ISZERO PUSH2 0x32F JUMPI PUSH1 0x0 DUP1 REVERT JUMPDEST POP PUSH2 0x2A4 PUSH1 0x4 DUP1 CALLDATASIZE SUB PUSH1 0x60 DUP2 LT ISZERO PUSH2 0x346 JUMPI PUSH1 0x0 DUP1 REVERT JUMPDEST POP PUSH1 0x1 PUSH1 0x1 PUSH1 0xA0 SHL SUB DUP2 CALLDATALOAD AND SWAP1 PUSH1 0x20 DUP2 ADD CALLDATALOAD SWAP1 PUSH1 0x40 ADD CALLDATALOAD PUSH2 0xA1C JUMP JUMPDEST CALLVALUE DUP1 ISZERO PUSH2 0x36E JUMPI PUSH1 0x0 DUP1 REVERT JUMPDEST POP PUSH2 0x2CB PUSH2 0xBE8 JUMP JUMPDEST CALLVALUE DUP1 ISZERO PUSH2 0x383 JUMPI PUSH1 0x0 DUP1 REVERT JUMPDEST POP PUSH2 0x3F4 PUSH1 0x4 DUP1 CALLDATASIZE SUB PUSH1 0x20 DUP2 LT ISZERO PUSH2 0x39A JUMPI PUSH1 0x0 DUP1 REVERT JUMPDEST DUP2 ADD SWAP1 PUSH1 0x20 DUP2 ADD DUP2 CALLDATALOAD PUSH5 0x100000000 DUP2 GT ISZERO PUSH2 0x3B5 JUMPI PUSH1 0x0 DUP1 REVERT JUMPDEST DUP3 ADD DUP4 PUSH1 0x20 DUP3 ADD GT ISZERO PUSH2 0x3C7 JUMPI PUSH1 0x0 DUP1 REVERT JUMPDEST DUP1 CALLDATALOAD SWAP1 PUSH1 0x20 ADD SWAP2 DUP5 PUSH1 0x20 DUP4 MUL DUP5 ADD GT PUSH5 0x100000000 DUP4 GT OR ISZERO PUSH2 0x3E9 JUMPI PUSH1 0x0 DUP1 REVERT JUMPDEST POP SWAP1 SWAP3 POP SWAP1 POP PUSH2 0xBF4 JUMP JUMPDEST PUSH1 0x40 DUP1 MLOAD PUSH1 0x20 DUP1 DUP3 MSTORE DUP4 MLOAD DUP2 DUP4 ADD MSTORE DUP4 MLOAD SWAP2 SWAP3 DUP4 SWAP3 SWAP1 DUP4 ADD SWAP2 DUP6 DUP2 ADD SWAP2 MUL DUP1 DUP4 DUP4 PUSH1 0x0 JUMPDEST DUP4 DUP2 LT ISZERO PUSH2 0x430 JUMPI DUP2 DUP2 ADD MLOAD DUP4 DUP3 ADD MSTORE PUSH1 0x20 ADD PUSH2 0x418 JUMP JUMPDEST POP POP POP POP SWAP1 POP ADD SWAP3 POP POP POP PUSH1 0x40 MLOAD DUP1 SWAP2 SUB SWAP1 RETURN JUMPDEST PUSH2 0x25C PUSH1 0x4 DUP1 CALLDATASIZE SUB PUSH1 0x20 DUP2 LT ISZERO PUSH2 0x45A JUMPI PUSH1 0x0 DUP1 REVERT JUMPDEST POP CALLDATALOAD PUSH2 0xC93 JUMP JUMPDEST CALLVALUE DUP1 ISZERO PUSH2 0x46D JUMPI PUSH1 0x0 DUP1 REVERT JUMPDEST POP PUSH2 0x2A4 PUSH2 0xDB2 JUMP JUMPDEST CALLVALUE DUP1 ISZERO PUSH2 0x482 JUMPI PUSH1 0x0 DUP1 REVERT JUMPDEST POP PUSH2 0x2A4 PUSH1 0x4 DUP1 CALLDATASIZE SUB PUSH1 0x20 DUP2 LT ISZERO PUSH2 0x499 JUMPI PUSH1 0x0 DUP1 REVERT JUMPDEST POP CALLDATALOAD PUSH2 0xDCD JUMP JUMPDEST CALLVALUE DUP1 ISZERO PUSH2 0x4AC JUMPI PUSH1 0x0 DUP1 REVERT JUMPDEST POP PUSH2 0x2CB PUSH2 0xDDF JUMP JUMPDEST CALLVALUE DUP1 ISZERO PUSH2 0x4C1 JUMPI PUSH1 0x0 DUP1 REVERT JUMPDEST POP PUSH2 0x14E PUSH1 0x4 DUP1 CALLDATASIZE SUB PUSH1 0x20 DUP2 LT ISZERO PUSH2 0x4D8 JUMPI PUSH1 0x0 DUP1 REVERT JUMPDEST POP CALLDATALOAD PUSH2 0xDE4 JUMP JUMPDEST CALLVALUE DUP1 ISZERO PUSH2 0x4EB JUMPI PUSH1 0x0 DUP1 REVERT JUMPDEST POP PUSH2 0x2A4 PUSH1 0x4 DUP1 CALLDATASIZE SUB PUSH1 0x20 DUP2 LT ISZERO PUSH2 0x502 JUMPI PUSH1 0x0 DUP1 REVERT JUMPDEST POP CALLDATALOAD PUSH2 0xDF9 JUMP JUMPDEST CALLVALUE DUP1 ISZERO PUSH2 0x515 JUMPI PUSH1 0x0 DUP1 REVERT JUMPDEST POP PUSH2 0x2A4 PUSH2 0x1438 JUMP JUMPDEST CALLVALUE DUP1 ISZERO PUSH2 0x52A JUMPI PUSH1 0x0 DUP1 REVERT JUMPDEST POP PUSH2 0x273 PUSH2 0x145C JUMP JUMPDEST CALLVALUE DUP1 ISZERO PUSH2 0x53F JUMPI PUSH1 0x0 DUP1 REVERT JUMPDEST POP PUSH2 0x2A4 PUSH1 0x4 DUP1 CALLDATASIZE SUB PUSH1 0x20 DUP2 LT ISZERO PUSH2 0x556 JUMPI PUSH1 0x0 DUP1 REVERT JUMPDEST POP CALLDATALOAD PUSH2 0x1480 JUMP JUMPDEST CALLVALUE DUP1 ISZERO PUSH2 0x569 JUMPI PUSH1 0x0 DUP1 REVERT JUMPDEST POP PUSH2 0x2CB PUSH2 0x1492 JUMP JUMPDEST PUSH1 0x6 PUSH1 0x20 MSTORE PUSH1 0x0 SWAP1 DUP2 MSTORE PUSH1 0x40 SWAP1 KECCAK256 SLOAD PUSH1 0xFF AND DUP2 JUMP JUMPDEST PUSH1 0x2 PUSH1 0x4 SLOAD EQ ISZERO PUSH2 0x5DF JUMPI PUSH1 0x40 DUP1 MLOAD PUSH3 0x461BCD PUSH1 0xE5 SHL DUP2 MSTORE PUSH1 0x20 PUSH1 0x4 DUP3 ADD MSTORE PUSH1 0x1F PUSH1 0x24 DUP3 ADD MSTORE PUSH32 0x5265656E7472616E637947756172643A207265656E7472616E742063616C6C00 PUSH1 0x44 DUP3 ADD MSTORE SWAP1 MLOAD SWAP1 DUP2 SWAP1 SUB PUSH1 0x64 ADD SWAP1 REVERT JUMPDEST PUSH1 0x2 PUSH1 0x4 SSTORE PUSH1 0x5 SLOAD DUP3 GT ISZERO PUSH2 0x63B JUMPI PUSH1 0x40 DUP1 MLOAD PUSH3 0x461BCD PUSH1 0xE5 SHL DUP2 MSTORE PUSH1 0x20 PUSH1 0x4 DUP3 ADD MSTORE PUSH1 0x1A PUSH1 0x24 DUP3 ADD MSTORE PUSH32 0x4665652065786365656473207472616E736665722076616C7565000000000000 PUSH1 0x44 DUP3 ADD MSTORE SWAP1 MLOAD SWAP1 DUP2 SWAP1 SUB PUSH1 0x64 ADD SWAP1 REVERT JUMPDEST PUSH1 0x0 DUP6 DUP2 MSTORE PUSH1 0x6 PUSH1 0x20 MSTORE PUSH1 0x40 SWAP1 KECCAK256 SLOAD PUSH1 0xFF AND ISZERO PUSH2 0x69F JUMPI PUSH1 0x40 DUP1 MLOAD PUSH3 0x461BCD PUSH1 0xE5 SHL DUP2 MSTORE PUSH1 0x20 PUSH1 0x4 DUP3 ADD MSTORE PUSH1 0x1F PUSH1 0x24 DUP3 ADD MSTORE PUSH32 0x546865206E6F746520686173206265656E20616C7265616479207370656E7400 PUSH1 0x44 DUP3 ADD MSTORE SWAP1 MLOAD SWAP1 DUP2 SWAP1 SUB PUSH1 0x64 ADD SWAP1 REVERT JUMPDEST PUSH2 0x6A8 DUP7 PUSH2 0x9A2 JUMP JUMPDEST PUSH2 0x6F9 JUMPI PUSH1 0x40 DUP1 MLOAD PUSH3 0x461BCD PUSH1 0xE5 SHL DUP2 MSTORE PUSH1 0x20 PUSH1 0x4 DUP3 ADD MSTORE PUSH1 0x1C PUSH1 0x24 DUP3 ADD MSTORE PUSH32 0x43616E6E6F742066696E6420796F7572206D65726B6C6520726F6F7400000000 PUSH1 0x44 DUP3 ADD MSTORE SWAP1 MLOAD SWAP1 DUP2 SWAP1 SUB PUSH1 0x64 ADD SWAP1 REVERT JUMPDEST PUSH32 0x0 PUSH1 0x1 PUSH1 0x1 PUSH1 0xA0 SHL SUB AND PUSH4 0xF398789B DUP11 DUP11 DUP11 PUSH1 0x40 MLOAD DUP1 PUSH1 0xC0 ADD PUSH1 0x40 MSTORE DUP1 DUP13 PUSH1 0x0 SHR DUP2 MSTORE PUSH1 0x20 ADD DUP12 PUSH1 0x0 SHR DUP2 MSTORE PUSH1 0x20 ADD DUP11 PUSH1 0x1 PUSH1 0x1 PUSH1 0xA0 SHL SUB AND DUP2 MSTORE PUSH1 0x20 ADD DUP10 PUSH1 0x1 PUSH1 0x1 PUSH1 0xA0 SHL SUB AND DUP2 MSTORE PUSH1 0x20 ADD DUP9 DUP2 MSTORE PUSH1 0x20 ADD DUP8 DUP2 MSTORE POP PUSH1 0x40 MLOAD DUP6 PUSH4 0xFFFFFFFF AND PUSH1 0xE0 SHL DUP2 MSTORE PUSH1 0x4 ADD DUP1 DUP6 PUSH1 0x2 PUSH1 0x20 MUL DUP1 DUP4 DUP4 PUSH1 0x0 JUMPDEST DUP4 DUP2 LT ISZERO PUSH2 0x7A7 JUMPI DUP2 DUP2 ADD MLOAD DUP4 DUP3 ADD MSTORE PUSH1 0x20 ADD PUSH2 0x78F JUMP JUMPDEST POP POP POP POP SWAP1 POP ADD DUP5 PUSH1 0x2 PUSH1 0x0 SWAP3 JUMPDEST DUP2 DUP5 LT ISZERO PUSH2 0x7F5 JUMPI PUSH1 0x20 DUP5 MUL DUP4 ADD MLOAD PUSH1 0x40 DUP1 DUP4 DUP4 PUSH1 0x0 JUMPDEST DUP4 DUP2 LT ISZERO PUSH2 0x7E4 JUMPI DUP2 DUP2 ADD MLOAD DUP4 DUP3 ADD MSTORE PUSH1 0x20 ADD PUSH2 0x7CC JUMP JUMPDEST POP POP POP POP SWAP1 POP ADD SWAP3 PUSH1 0x1 ADD SWAP3 PUSH2 0x7B5 JUMP JUMPDEST SWAP3 POP POP POP DUP4 PUSH1 0x2 PUSH1 0x20 MUL DUP1 DUP4 DUP4 PUSH1 0x0 JUMPDEST DUP4 DUP2 LT ISZERO PUSH2 0x81D JUMPI DUP2 DUP2 ADD MLOAD DUP4 DUP3 ADD MSTORE PUSH1 0x20 ADD PUSH2 0x805 JUMP JUMPDEST POP POP POP POP SWAP1 POP ADD DUP3 PUSH1 0x6 PUSH1 0x20 MUL DUP1 DUP4 DUP4 PUSH1 0x0 JUMPDEST DUP4 DUP2 LT ISZERO PUSH2 0x848 JUMPI DUP2 DUP2 ADD MLOAD DUP4 DUP3 ADD MSTORE PUSH1 0x20 ADD PUSH2 0x830 JUMP JUMPDEST POP POP POP POP SWAP1 POP ADD SWAP5 POP POP POP POP POP PUSH1 0x20 PUSH1 0x40 MLOAD DUP1 DUP4 SUB DUP2 PUSH1 0x0 DUP8 DUP1 EXTCODESIZE ISZERO DUP1 ISZERO PUSH2 0x86F JUMPI PUSH1 0x0 DUP1 REVERT JUMPDEST POP GAS CALL ISZERO DUP1 ISZERO PUSH2 0x883 JUMPI RETURNDATASIZE PUSH1 0x0 DUP1 RETURNDATACOPY RETURNDATASIZE PUSH1 0x0 REVERT JUMPDEST POP POP POP POP PUSH1 0x40 MLOAD RETURNDATASIZE PUSH1 0x20 DUP2 LT ISZERO PUSH2 0x899 JUMPI PUSH1 0x0 DUP1 REVERT JUMPDEST POP MLOAD PUSH2 0x8DD JUMPI PUSH1 0x40 DUP1 MLOAD PUSH3 0x461BCD PUSH1 0xE5 SHL DUP2 MSTORE PUSH1 0x20 PUSH1 0x4 DUP3 ADD MSTORE PUSH1 0xE PUSH1 0x24 DUP3 ADD MSTORE PUSH14 0x70726F6F6620696E76616C696465 PUSH1 0x90 SHL PUSH1 0x44 DUP3 ADD MSTORE SWAP1 MLOAD SWAP1 DUP2 SWAP1 SUB PUSH1 0x64 ADD SWAP1 REVERT JUMPDEST PUSH1 0x0 DUP6 DUP2 MSTORE PUSH1 0x6 PUSH1 0x20 MSTORE PUSH1 0x40 SWAP1 KECCAK256 DUP1 SLOAD PUSH1 0xFF NOT AND PUSH1 0x1 OR SWAP1 SSTORE PUSH2 0x902 DUP5 DUP5 DUP5 DUP5 PUSH2 0x14A6 JUMP JUMPDEST PUSH1 0x40 DUP1 MLOAD PUSH1 0x1 PUSH1 0x1 PUSH1 0xA0 SHL SUB DUP7 DUP2 AND DUP3 MSTORE PUSH1 0x20 DUP3 ADD DUP9 SWAP1 MSTORE DUP2 DUP4 ADD DUP6 SWAP1 MSTORE SWAP2 MLOAD SWAP2 DUP6 AND SWAP2 PUSH32 0xE9E508BAD6D4C3227E881CA19068F099DA81B5164DD6D62B2EAF1E8BC6C34931 SWAP2 DUP2 SWAP1 SUB PUSH1 0x60 ADD SWAP1 LOG2 POP POP PUSH1 0x1 PUSH1 0x4 SSTORE POP POP POP POP POP POP POP JUMP JUMPDEST PUSH32 0x0 DUP2 JUMP JUMPDEST PUSH1 0x0 DUP1 MLOAD PUSH1 0x20 PUSH2 0x18D6 DUP4 CODECOPY DUP2 MLOAD SWAP2 MSTORE DUP2 JUMP JUMPDEST PUSH1 0x0 SLOAD PUSH4 0xFFFFFFFF AND DUP2 JUMP JUMPDEST PUSH1 0x0 DUP2 PUSH2 0x9B1 JUMPI POP PUSH1 0x0 PUSH2 0xA11 JUMP JUMPDEST PUSH1 0x3 SLOAD PUSH4 0xFFFFFFFF AND JUMPDEST PUSH4 0xFFFFFFFF DUP2 AND PUSH1 0x0 SWAP1 DUP2 MSTORE PUSH1 0x2 PUSH1 0x20 MSTORE PUSH1 0x40 SWAP1 KECCAK256 SLOAD DUP4 EQ ISZERO PUSH2 0x9E2 JUMPI PUSH1 0x1 SWAP2 POP POP PUSH2 0xA11 JUMP JUMPDEST PUSH4 0xFFFFFFFF DUP2 AND PUSH2 0x9F1 JUMPI POP PUSH1 0x1E JUMPDEST PUSH1 0x3 SLOAD PUSH1 0x0 NOT SWAP1 SWAP2 ADD SWAP1 PUSH4 0xFFFFFFFF DUP1 DUP4 AND SWAP2 AND EQ ISZERO PUSH2 0x9BB JUMPI PUSH1 0x0 SWAP2 POP POP JUMPDEST SWAP2 SWAP1 POP JUMP JUMPDEST PUSH1 0x5 SLOAD DUP2 JUMP JUMPDEST PUSH1 0x0 PUSH1 0x0 DUP1 MLOAD PUSH1 0x20 PUSH2 0x18D6 DUP4 CODECOPY DUP2 MLOAD SWAP2 MSTORE DUP4 LT PUSH2 0xA80 JUMPI PUSH1 0x40 DUP1 MLOAD PUSH3 0x461BCD PUSH1 0xE5 SHL DUP2 MSTORE PUSH1 0x20 PUSH1 0x4 DUP3 ADD DUP2 SWAP1 MSTORE PUSH1 0x24 DUP3 ADD MSTORE PUSH32 0x5F6C6566742073686F756C6420626520696E7369646520746865206669656C64 PUSH1 0x44 DUP3 ADD MSTORE SWAP1 MLOAD SWAP1 DUP2 SWAP1 SUB PUSH1 0x64 ADD SWAP1 REVERT JUMPDEST PUSH1 0x0 DUP1 MLOAD PUSH1 0x20 PUSH2 0x18D6 DUP4 CODECOPY DUP2 MLOAD SWAP2 MSTORE DUP3 LT PUSH2 0xACC JUMPI PUSH1 0x40 MLOAD PUSH3 0x461BCD PUSH1 0xE5 SHL DUP2 MSTORE PUSH1 0x4 ADD DUP1 DUP1 PUSH1 0x20 ADD DUP3 DUP2 SUB DUP3 MSTORE PUSH1 0x21 DUP2 MSTORE PUSH1 0x20 ADD DUP1 PUSH2 0x1893 PUSH1 0x21 SWAP2 CODECOPY PUSH1 0x40 ADD SWAP2 POP POP PUSH1 0x40 MLOAD DUP1 SWAP2 SUB SWAP1 REVERT JUMPDEST PUSH1 0x40 DUP1 MLOAD PUSH4 0xF47D33B5 PUSH1 0xE0 SHL DUP2 MSTORE PUSH1 0x4 DUP2 ADD DUP6 SWAP1 MSTORE PUSH1 0x0 PUSH1 0x24 DUP3 ADD DUP2 SWAP1 MSTORE DUP3 MLOAD DUP7 SWAP4 SWAP2 SWAP3 PUSH1 0x1 PUSH1 0x1 PUSH1 0xA0 SHL SUB DUP10 AND SWAP3 PUSH4 0xF47D33B5 SWAP3 PUSH1 0x44 DUP1 DUP5 ADD SWAP4 DUP3 SWAP1 SUB ADD DUP2 DUP7 DUP1 EXTCODESIZE ISZERO DUP1 ISZERO PUSH2 0xB1B JUMPI PUSH1 0x0 DUP1 REVERT JUMPDEST POP GAS STATICCALL ISZERO DUP1 ISZERO PUSH2 0xB2F JUMPI RETURNDATASIZE PUSH1 0x0 DUP1 RETURNDATACOPY RETURNDATASIZE PUSH1 0x0 REVERT JUMPDEST POP POP POP POP PUSH1 0x40 MLOAD RETURNDATASIZE PUSH1 0x40 DUP2 LT ISZERO PUSH2 0xB45 JUMPI PUSH1 0x0 DUP1 REVERT JUMPDEST POP DUP1 MLOAD PUSH1 0x20 SWAP1 SWAP2 ADD MLOAD SWAP1 SWAP3 POP SWAP1 POP PUSH1 0x0 DUP1 MLOAD PUSH1 0x20 PUSH2 0x18D6 DUP4 CODECOPY DUP2 MLOAD SWAP2 MSTORE DUP5 DUP4 ADDMOD SWAP2 POP DUP6 PUSH1 0x1 PUSH1 0x1 PUSH1 0xA0 SHL SUB AND PUSH4 0xF47D33B5 DUP4 DUP4 PUSH1 0x40 MLOAD DUP4 PUSH4 0xFFFFFFFF AND PUSH1 0xE0 SHL DUP2 MSTORE PUSH1 0x4 ADD DUP1 DUP4 DUP2 MSTORE PUSH1 0x20 ADD DUP3 DUP2 MSTORE PUSH1 0x20 ADD SWAP3 POP POP POP PUSH1 0x40 DUP1 MLOAD DUP1 DUP4 SUB DUP2 DUP7 DUP1 EXTCODESIZE ISZERO DUP1 ISZERO PUSH2 0xBB2 JUMPI PUSH1 0x0 DUP1 REVERT JUMPDEST POP GAS STATICCALL ISZERO DUP1 ISZERO PUSH2 0xBC6 JUMPI RETURNDATASIZE PUSH1 0x0 DUP1 RETURNDATACOPY RETURNDATASIZE PUSH1 0x0 REVERT JUMPDEST POP POP POP POP PUSH1 0x40 MLOAD RETURNDATASIZE PUSH1 0x40 DUP2 LT ISZERO PUSH2 0xBDC JUMPI PUSH1 0x0 DUP1 REVERT JUMPDEST POP MLOAD SWAP7 SWAP6 POP POP POP POP POP POP JUMP JUMPDEST PUSH1 0x3 SLOAD PUSH4 0xFFFFFFFF AND DUP2 JUMP JUMPDEST PUSH1 0x60 DUP2 PUSH8 0xFFFFFFFFFFFFFFFF DUP2 GT DUP1 ISZERO PUSH2 0xC0D JUMPI PUSH1 0x0 DUP1 REVERT JUMPDEST POP PUSH1 0x40 MLOAD SWAP1 DUP1 DUP3 MSTORE DUP1 PUSH1 0x20 MUL PUSH1 0x20 ADD DUP3 ADD PUSH1 0x40 MSTORE DUP1 ISZERO PUSH2 0xC37 JUMPI DUP2 PUSH1 0x20 ADD PUSH1 0x20 DUP3 MUL DUP1 CALLDATASIZE DUP4 CALLDATACOPY ADD SWAP1 POP JUMPDEST POP SWAP1 POP PUSH1 0x0 JUMPDEST DUP3 DUP2 LT ISZERO PUSH2 0xC8C JUMPI PUSH2 0xC60 DUP5 DUP5 DUP4 DUP2 DUP2 LT PUSH2 0xC54 JUMPI INVALID JUMPDEST SWAP1 POP PUSH1 0x20 MUL ADD CALLDATALOAD PUSH2 0xDE4 JUMP JUMPDEST ISZERO PUSH2 0xC84 JUMPI PUSH1 0x1 DUP3 DUP3 DUP2 MLOAD DUP2 LT PUSH2 0xC73 JUMPI INVALID JUMPDEST SWAP2 ISZERO ISZERO PUSH1 0x20 SWAP3 DUP4 MUL SWAP2 SWAP1 SWAP2 ADD SWAP1 SWAP2 ADD MSTORE JUMPDEST PUSH1 0x1 ADD PUSH2 0xC3D JUMP JUMPDEST POP SWAP3 SWAP2 POP POP JUMP JUMPDEST PUSH1 0x2 PUSH1 0x4 SLOAD EQ ISZERO PUSH2 0xCEB JUMPI PUSH1 0x40 DUP1 MLOAD PUSH3 0x461BCD PUSH1 0xE5 SHL DUP2 MSTORE PUSH1 0x20 PUSH1 0x4 DUP3 ADD MSTORE PUSH1 0x1F PUSH1 0x24 DUP3 ADD MSTORE PUSH32 0x5265656E7472616E637947756172643A207265656E7472616E742063616C6C00 PUSH1 0x44 DUP3 ADD MSTORE SWAP1 MLOAD SWAP1 DUP2 SWAP1 SUB PUSH1 0x64 ADD SWAP1 REVERT JUMPDEST PUSH1 0x2 PUSH1 0x4 SSTORE PUSH1 0x0 DUP2 DUP2 MSTORE PUSH1 0x7 PUSH1 0x20 MSTORE PUSH1 0x40 SWAP1 KECCAK256 SLOAD PUSH1 0xFF AND ISZERO PUSH2 0xD3E JUMPI PUSH1 0x40 MLOAD PUSH3 0x461BCD PUSH1 0xE5 SHL DUP2 MSTORE PUSH1 0x4 ADD DUP1 DUP1 PUSH1 0x20 ADD DUP3 DUP2 SUB DUP3 MSTORE PUSH1 0x22 DUP2 MSTORE PUSH1 0x20 ADD DUP1 PUSH2 0x18B4 PUSH1 0x22 SWAP2 CODECOPY PUSH1 0x40 ADD SWAP2 POP POP PUSH1 0x40 MLOAD DUP1 SWAP2 SUB SWAP1 REVERT JUMPDEST PUSH1 0x0 DUP2 DUP2 MSTORE PUSH1 0x7 PUSH1 0x20 MSTORE PUSH1 0x40 DUP2 KECCAK256 DUP1 SLOAD PUSH1 0xFF NOT AND PUSH1 0x1 OR SWAP1 SSTORE PUSH2 0xD60 DUP3 PUSH2 0x16A2 JUMP JUMPDEST SWAP1 POP PUSH2 0xD6A PUSH2 0x1818 JUMP JUMPDEST PUSH1 0x40 DUP1 MLOAD PUSH4 0xFFFFFFFF DUP4 AND DUP2 MSTORE TIMESTAMP PUSH1 0x20 DUP3 ADD MSTORE DUP2 MLOAD DUP5 SWAP3 PUSH32 0xA945E51EEC50AB98C161376F0DB4CF2AEBA3EC92755FE2FCD388BDBBB80FF196 SWAP3 DUP3 SWAP1 SUB ADD SWAP1 LOG2 POP POP PUSH1 0x1 PUSH1 0x4 SSTORE JUMP JUMPDEST PUSH1 0x3 SLOAD PUSH4 0xFFFFFFFF AND PUSH1 0x0 SWAP1 DUP2 MSTORE PUSH1 0x2 PUSH1 0x20 MSTORE PUSH1 0x40 SWAP1 KECCAK256 SLOAD SWAP1 JUMP JUMPDEST PUSH1 0x2 PUSH1 0x20 MSTORE PUSH1 0x0 SWAP1 DUP2 MSTORE PUSH1 0x40 SWAP1 KECCAK256 SLOAD DUP2 JUMP JUMPDEST PUSH1 0x1E DUP2 JUMP JUMPDEST PUSH1 0x0 SWAP1 DUP2 MSTORE PUSH1 0x6 PUSH1 0x20 MSTORE PUSH1 0x40 SWAP1 KECCAK256 SLOAD PUSH1 0xFF AND SWAP1 JUMP JUMPDEST PUSH1 0x0 DUP2 PUSH2 0xE27 JUMPI POP PUSH32 0x2FE54C60D3ACABF3343A35B6EBA15DB4821B340F76E741E2249685ED4899AF6C PUSH2 0xA11 JUMP JUMPDEST DUP2 PUSH1 0x1 EQ ISZERO PUSH2 0xE57 JUMPI POP PUSH32 0x256A6135777EEE2FD26F54B8B7037A25439D5235CAEE224154186D2B8A52E31D PUSH2 0xA11 JUMP JUMPDEST DUP2 PUSH1 0x2 EQ ISZERO PUSH2 0xE87 JUMPI POP PUSH32 0x1151949895E82AB19924DE92C40A3D6F7BCB60D92B00504B8199613683F0C200 PUSH2 0xA11 JUMP JUMPDEST DUP2 PUSH1 0x3 EQ ISZERO PUSH2 0xEB7 JUMPI POP PUSH32 0x20121EE811489FF8D61F09FB89E313F14959A0F28BB428A20DBA6B0B068B3BDB PUSH2 0xA11 JUMP JUMPDEST DUP2 PUSH1 0x4 EQ ISZERO PUSH2 0xEE7 JUMPI POP PUSH32 0xA89CA6FFA14CC462CFEDB842C30ED221A50A3D6BF022A6A57DC82AB24C157C9 PUSH2 0xA11 JUMP JUMPDEST DUP2 PUSH1 0x5 EQ ISZERO PUSH2 0xF17 JUMPI POP PUSH32 0x24CA05C2B5CD42E890D6BE94C68D0689F4F21C9CEC9C0F13FE41D566DFB54959 PUSH2 0xA11 JUMP JUMPDEST DUP2 PUSH1 0x6 EQ ISZERO PUSH2 0xF47 JUMPI POP PUSH32 0x1CCB97C932565A92C60156BDBA2D08F3BF1377464E025CEE765679E604A7315C PUSH2 0xA11 JUMP JUMPDEST DUP2 PUSH1 0x7 EQ ISZERO PUSH2 0xF77 JUMPI POP PUSH32 0x19156FBD7D1A8BF5CBA8909367DE1B624534EBAB4F0F79E003BCCDD1B182BDB4 PUSH2 0xA11 JUMP JUMPDEST DUP2 PUSH1 0x8 EQ ISZERO PUSH2 0xFA7 JUMPI POP PUSH32 0x261AF8C1F0912E465744641409F622D466C3920AC6E5FF37E36604CB11DFFF80 PUSH2 0xA11 JUMP JUMPDEST DUP2 PUSH1 0x9 EQ ISZERO PUSH2 0xFD6 JUMPI POP PUSH31 0x58459724FF6CA5A1652FCBC3E82B93895CF08E975B19BEAB3F54C217D1C007 PUSH2 0xA11 JUMP JUMPDEST DUP2 PUSH1 0xA EQ ISZERO PUSH2 0x1006 JUMPI POP PUSH32 0x1F04EF20DEE48D39984D8EABE768A70EAFA6310AD20849D4573C3C40C2AD1E30 PUSH2 0xA11 JUMP JUMPDEST DUP2 PUSH1 0xB EQ ISZERO PUSH2 0x1036 JUMPI POP PUSH32 0x1BEA3DEC5DAB51567CE7E200A30F7BA6D4276AEAA53E2686F962A46C66D511E5 PUSH2 0xA11 JUMP JUMPDEST DUP2 PUSH1 0xC EQ ISZERO PUSH2 0x1066 JUMPI POP PUSH32 0xEE0F941E2DA4B9E31C3CA97A40D8FA9CE68D97C084177071B3CB46CD3372F0F PUSH2 0xA11 JUMP JUMPDEST DUP2 PUSH1 0xD EQ ISZERO PUSH2 0x1096 JUMPI POP PUSH32 0x1CA9503E8935884501BBAF20BE14EB4C46B89772C97B96E3B2EBF3A36A948BBD PUSH2 0xA11 JUMP JUMPDEST DUP2 PUSH1 0xE EQ ISZERO PUSH2 0x10C6 JUMPI POP PUSH32 0x133A80E30697CD55D8F7D4B0965B7BE24057BA5DC3DA898EE2187232446CB108 PUSH2 0xA11 JUMP JUMPDEST DUP2 PUSH1 0xF EQ ISZERO PUSH2 0x10F6 JUMPI POP PUSH32 0x13E6D8FC88839ED76E182C2A779AF5B2C0DA9DD18C90427A644F7E148A6253B6 PUSH2 0xA11 JUMP JUMPDEST DUP2 PUSH1 0x10 EQ ISZERO PUSH2 0x1126 JUMPI POP PUSH32 0x1EB16B057A477F4BC8F572EA6BEE39561098F78F15BFB3699DCBB7BD8DB61854 PUSH2 0xA11 JUMP JUMPDEST DUP2 PUSH1 0x11 EQ ISZERO PUSH2 0x1156 JUMPI POP PUSH32 0xDA2CB16A1CEAABF1C16B838F7A9E3F2A3A3088D9E0A6DEBAA748114620696EA PUSH2 0xA11 JUMP JUMPDEST DUP2 PUSH1 0x12 EQ ISZERO PUSH2 0x1186 JUMPI POP PUSH32 0x24A3B3D822420B14B5D8CB6C28A574F01E98EA9E940551D2EBD75CEE12649F9D PUSH2 0xA11 JUMP JUMPDEST DUP2 PUSH1 0x13 EQ ISZERO PUSH2 0x11B6 JUMPI POP PUSH32 0x198622ACBD783D1B0D9064105B1FC8E4D8889DE95C4C519B3F635809FE6AFC05 PUSH2 0xA11 JUMP JUMPDEST DUP2 PUSH1 0x14 EQ ISZERO PUSH2 0x11E6 JUMPI POP PUSH32 0x29D7ED391256CCC3EA596C86E933B89FF339D25EA8DDCED975AE2FE30B5296D4 PUSH2 0xA11 JUMP JUMPDEST DUP2 PUSH1 0x15 EQ ISZERO PUSH2 0x1216 JUMPI POP PUSH32 0x19BE59F2F0413CE78C0C3703A3A5451B1D7F39629FA33ABD11548A76065B2967 PUSH2 0xA11 JUMP JUMPDEST DUP2 PUSH1 0x16 EQ ISZERO PUSH2 0x1246 JUMPI POP PUSH32 0x1FF3F61797E538B70E619310D33F2A063E7EB59104E112E95738DA1254DC3453 PUSH2 0xA11 JUMP JUMPDEST DUP2 PUSH1 0x17 EQ ISZERO PUSH2 0x1276 JUMPI POP PUSH32 0x10C16AE9959CF8358980D9DD9616E48228737310A10E2B6B731C1A548F036C48 PUSH2 0xA11 JUMP JUMPDEST DUP2 PUSH1 0x18 EQ ISZERO PUSH2 0x12A6 JUMPI POP PUSH32 0xBA433A63174A90AC20992E75E3095496812B652685B5E1A2EAE0B1BF4E8FCD1 PUSH2 0xA11 JUMP JUMPDEST DUP2 PUSH1 0x19 EQ ISZERO PUSH2 0x12D6 JUMPI POP PUSH32 0x19DDB9DF2BC98D987D0DFECA9D2B643DEAFAB8F7036562E627C3667266A044C PUSH2 0xA11 JUMP JUMPDEST DUP2 PUSH1 0x1A EQ ISZERO PUSH2 0x1306 JUMPI POP PUSH32 0x2D3C88B23175C5A5565DB928414C66D1912B11ACF974B2E644CAAAC04739CE99 PUSH2 0xA11 JUMP JUMPDEST DUP2 PUSH1 0x1B EQ ISZERO PUSH2 0x1336 JUMPI POP PUSH32 0x2EAB55F6AE4E66E32C5189EED5C470840863445760F5ED7E7B69B2A62600F354 PUSH2 0xA11 JUMP JUMPDEST DUP2 PUSH1 0x1C EQ ISZERO PUSH2 0x1365 JUMPI POP PUSH31 0x2DF37A2642621802383CF952BF4DD1F32E05433BEEB1FD41031FB7EACE979D PUSH2 0xA11 JUMP JUMPDEST DUP2 PUSH1 0x1D EQ ISZERO PUSH2 0x1395 JUMPI POP PUSH32 0x104AEB41435DB66C3E62FECCC1D6F5D98D0A0ED75D1374DB457CF462E3A1F427 PUSH2 0xA11 JUMP JUMPDEST DUP2 PUSH1 0x1E EQ ISZERO PUSH2 0x13C5 JUMPI POP PUSH32 0x1F3C6FD858E9A7D4B0D1F38E256A09D81D5A5E3C963987E2D4B814CFAB7C6EBB PUSH2 0xA11 JUMP JUMPDEST DUP2 PUSH1 0x1F EQ ISZERO PUSH2 0x13F5 JUMPI POP PUSH32 0x2C7A07D20DFF79D01FECEDC1134284A8D08436606C93693B67E333F671BF69CC PUSH2 0xA11 JUMP JUMPDEST PUSH1 0x40 DUP1 MLOAD PUSH3 0x461BCD PUSH1 0xE5 SHL DUP2 MSTORE PUSH1 0x20 PUSH1 0x4 DUP3 ADD MSTORE PUSH1 0x13 PUSH1 0x24 DUP3 ADD MSTORE PUSH19 0x496E646578206F7574206F6620626F756E6473 PUSH1 0x68 SHL PUSH1 0x44 DUP3 ADD MSTORE SWAP1 MLOAD SWAP1 DUP2 SWAP1 SUB PUSH1 0x64 ADD SWAP1 REVERT JUMPDEST PUSH32 0x2FE54C60D3ACABF3343A35B6EBA15DB4821B340F76E741E2249685ED4899AF6C DUP2 JUMP JUMPDEST PUSH32 0x0 DUP2 JUMP JUMPDEST PUSH1 0x1 PUSH1 0x20 MSTORE PUSH1 0x0 SWAP1 DUP2 MSTORE PUSH1 0x40 SWAP1 KECCAK256 SLOAD DUP2 JUMP JUMPDEST PUSH1 0x3 SLOAD PUSH5 0x100000000 SWAP1 DIV PUSH4 0xFFFFFFFF AND DUP2 JUMP JUMPDEST CALLVALUE ISZERO PUSH2 0x14F9 JUMPI PUSH1 0x40 DUP1 MLOAD PUSH3 0x461BCD PUSH1 0xE5 SHL DUP2 MSTORE PUSH1 0x20 PUSH1 0x4 DUP3 ADD MSTORE PUSH1 0x1D PUSH1 0x24 DUP3 ADD MSTORE PUSH32 0x43616E6E6F742073656E6420455448207768656E207769746864726177000000 PUSH1 0x44 DUP3 ADD MSTORE SWAP1 MLOAD SWAP1 DUP2 SWAP1 SUB PUSH1 0x64 ADD SWAP1 REVERT JUMPDEST DUP1 ISZERO PUSH2 0x154C JUMPI PUSH1 0x40 DUP1 MLOAD PUSH3 0x461BCD PUSH1 0xE5 SHL DUP2 MSTORE PUSH1 0x20 PUSH1 0x4 DUP3 ADD MSTORE PUSH1 0x1B PUSH1 0x24 DUP3 ADD MSTORE PUSH32 0x526566756E642076616C75652063616E6E6F74206265207A65726F0000000000 PUSH1 0x44 DUP3 ADD MSTORE SWAP1 MLOAD SWAP1 DUP2 SWAP1 SUB PUSH1 0x64 ADD SWAP1 REVERT JUMPDEST PUSH1 0x5 SLOAD PUSH1 0x40 MLOAD PUSH1 0x0 SWAP2 PUSH1 0x1 PUSH1 0x1 PUSH1 0xA0 SHL SUB DUP8 AND SWAP2 SWAP1 DUP6 SWAP1 SUB SWAP1 DUP4 DUP2 DUP2 DUP2 DUP6 DUP8 GAS CALL SWAP3 POP POP POP RETURNDATASIZE DUP1 PUSH1 0x0 DUP2 EQ PUSH2 0x159D JUMPI PUSH1 0x40 MLOAD SWAP2 POP PUSH1 0x1F NOT PUSH1 0x3F RETURNDATASIZE ADD AND DUP3 ADD PUSH1 0x40 MSTORE RETURNDATASIZE DUP3 MSTORE RETURNDATASIZE PUSH1 0x0 PUSH1 0x20 DUP5 ADD RETURNDATACOPY PUSH2 0x15A2 JUMP JUMPDEST PUSH1 0x60 SWAP2 POP JUMPDEST POP POP SWAP1 POP DUP1 PUSH2 0x15EF JUMPI PUSH1 0x40 DUP1 MLOAD PUSH3 0x461BCD PUSH1 0xE5 SHL DUP2 MSTORE PUSH1 0x20 PUSH1 0x4 DUP3 ADD MSTORE PUSH1 0x14 PUSH1 0x24 DUP3 ADD MSTORE PUSH20 0x455448207472616E73666572206661696C656421 PUSH1 0x60 SHL PUSH1 0x44 DUP3 ADD MSTORE SWAP1 MLOAD SWAP1 DUP2 SWAP1 SUB PUSH1 0x64 ADD SWAP1 REVERT JUMPDEST DUP3 ISZERO PUSH2 0x169B JUMPI PUSH1 0x40 MLOAD PUSH1 0x1 PUSH1 0x1 PUSH1 0xA0 SHL SUB DUP6 AND SWAP1 DUP5 SWAP1 PUSH1 0x0 DUP2 DUP2 DUP2 DUP6 DUP8 GAS CALL SWAP3 POP POP POP RETURNDATASIZE DUP1 PUSH1 0x0 DUP2 EQ PUSH2 0x163E JUMPI PUSH1 0x40 MLOAD SWAP2 POP PUSH1 0x1F NOT PUSH1 0x3F RETURNDATASIZE ADD AND DUP3 ADD PUSH1 0x40 MSTORE RETURNDATASIZE DUP3 MSTORE RETURNDATASIZE PUSH1 0x0 PUSH1 0x20 DUP5 ADD RETURNDATACOPY PUSH2 0x1643 JUMP JUMPDEST PUSH1 0x60 SWAP2 POP JUMPDEST POP POP DUP1 SWAP2 POP POP DUP1 PUSH2 0x169B JUMPI PUSH1 0x40 DUP1 MLOAD PUSH3 0x461BCD PUSH1 0xE5 SHL DUP2 MSTORE PUSH1 0x20 PUSH1 0x4 DUP3 ADD DUP2 SWAP1 MSTORE PUSH1 0x24 DUP3 ADD MSTORE PUSH32 0x455448207472616E7366657220746F205F72656C61796572206661696C656421 PUSH1 0x44 DUP3 ADD MSTORE SWAP1 MLOAD SWAP1 DUP2 SWAP1 SUB PUSH1 0x64 ADD SWAP1 REVERT JUMPDEST POP POP POP POP POP JUMP JUMPDEST PUSH1 0x3 SLOAD PUSH1 0x0 DUP1 SLOAD SWAP1 SWAP2 PUSH4 0xFFFFFFFF PUSH5 0x100000000 SWAP1 SWAP2 DIV DUP2 AND SWAP2 DUP2 AND PUSH1 0x2 EXP AND DUP2 EQ ISZERO PUSH2 0x1700 JUMPI PUSH1 0x40 MLOAD PUSH3 0x461BCD PUSH1 0xE5 SHL DUP2 MSTORE PUSH1 0x4 ADD DUP1 DUP1 PUSH1 0x20 ADD DUP3 DUP2 SUB DUP3 MSTORE PUSH1 0x30 DUP2 MSTORE PUSH1 0x20 ADD DUP1 PUSH2 0x18F6 PUSH1 0x30 SWAP2 CODECOPY PUSH1 0x40 ADD SWAP2 POP POP PUSH1 0x40 MLOAD DUP1 SWAP2 SUB SWAP1 REVERT JUMPDEST DUP1 DUP4 PUSH1 0x0 DUP1 DUP1 JUMPDEST PUSH1 0x0 SLOAD PUSH4 0xFFFFFFFF SWAP1 DUP2 AND SWAP1 DUP3 AND LT ISZERO PUSH2 0x17B1 JUMPI PUSH1 0x1 DUP6 AND PUSH2 0x1754 JUMPI DUP4 SWAP3 POP PUSH2 0x1735 DUP2 PUSH4 0xFFFFFFFF AND PUSH2 0xDF9 JUMP JUMPDEST PUSH4 0xFFFFFFFF DUP3 AND PUSH1 0x0 SWAP1 DUP2 MSTORE PUSH1 0x1 PUSH1 0x20 MSTORE PUSH1 0x40 SWAP1 KECCAK256 DUP6 SWAP1 SSTORE SWAP2 POP PUSH2 0x1770 JUMP JUMPDEST PUSH4 0xFFFFFFFF DUP2 AND PUSH1 0x0 SWAP1 DUP2 MSTORE PUSH1 0x1 PUSH1 0x20 MSTORE PUSH1 0x40 SWAP1 KECCAK256 SLOAD SWAP3 POP DUP4 SWAP2 POP JUMPDEST PUSH2 0x179B PUSH32 0x0 DUP5 DUP5 PUSH2 0xA1C JUMP JUMPDEST SWAP4 POP PUSH1 0x2 PUSH4 0xFFFFFFFF DUP7 AND DIV SWAP5 POP PUSH1 0x1 ADD PUSH2 0x1707 JUMP JUMPDEST POP POP PUSH1 0x3 DUP1 SLOAD PUSH1 0x1E PUSH4 0xFFFFFFFF DUP1 DUP4 AND PUSH1 0x1 SWAP1 DUP2 ADD DUP3 AND SWAP3 SWAP1 SWAP3 MOD DUP2 AND PUSH4 0xFFFFFFFF NOT SWAP1 SWAP4 AND DUP4 OR DUP5 SSTORE PUSH1 0x0 SWAP3 DUP4 MSTORE PUSH1 0x2 PUSH1 0x20 MSTORE PUSH1 0x40 SWAP1 SWAP3 KECCAK256 SWAP5 SWAP1 SWAP5 SSTORE DUP2 SLOAD SWAP4 DUP7 ADD AND PUSH5 0x100000000 MUL PUSH8 0xFFFFFFFF00000000 NOT SWAP1 SWAP4 AND SWAP3 SWAP1 SWAP3 OR SWAP1 SWAP2 SSTORE POP SWAP1 SWAP4 SWAP3 POP POP POP JUMP JUMPDEST PUSH1 0x5 SLOAD CALLVALUE EQ PUSH2 0x1858 JUMPI PUSH1 0x40 MLOAD PUSH3 0x461BCD PUSH1 0xE5 SHL DUP2 MSTORE PUSH1 0x4 ADD DUP1 DUP1 PUSH1 0x20 ADD DUP3 DUP2 SUB DUP3 MSTORE PUSH1 0x38 DUP2 MSTORE PUSH1 0x20 ADD DUP1 PUSH2 0x185B PUSH1 0x38 SWAP2 CODECOPY PUSH1 0x40 ADD SWAP2 POP POP PUSH1 0x40 MLOAD DUP1 SWAP2 SUB SWAP1 REVERT JUMPDEST JUMP INVALID POP PUSH13 0x656173652073656E6420606D69 PUSH25 0x44656E6F6D696E6174696F6E602045544820616C6F6E672077 PUSH10 0x7468207472616E736163 PUSH21 0x696F6E5F72696768742073686F756C642062652069 PUSH15 0x7369646520746865206669656C6463 PUSH16 0x6D6D69746D656E742068617665206265 PUSH6 0x6E2075736564 KECCAK256 PUSH2 0x6C72 PUSH6 0x616479213064 0x4E PUSH19 0xE131A029B85045B68181585D2833E84879B970 SWAP2 NUMBER 0xE1 CREATE2 SWAP4 CREATE STOP STOP ADD 0x4D PUSH6 0x726B6C652074 PUSH19 0x65652069732066756C6C2E204E6F206D6F7265 KECCAK256 PUSH13 0x65617665732063616E20626520 PUSH2 0x6464 PUSH6 0x64A264697066 PUSH20 0x58221220C4F700CB3DACB6F86FCFCD7A2675F2E4 GAS 0xDB 0xAE CALLER PUSH20 0x9228907988ECD43FD7DFEE64736F6C6343000700 STOP CALLER 0x5F PUSH13 0x6576656C732073686F756C6420 PUSH3 0x652067 PUSH19 0x6561746572207468616E207A65726F00000000 "},"methodIdentifiers":{"FIELD_SIZE()":"414a37ba","ROOT_HISTORY_SIZE()":"cd87a3b4","ZERO_VALUE()":"ec732959","currentRootIndex()":"90eeb02b","denomination()":"8bca6d16","deposit(bytes32)":"b214faa5","filledSubtrees(uint256)":"f178e47c","getLastRoot()":"ba70f757","hashLeftRight(address,bytes32,bytes32)":"8ea3099e","hasher()":"ed33639f","isKnownRoot(bytes32)":"6d9833e3","isSpent(bytes32)":"e5285dcc","isSpentArray(bytes32[])":"9fa12d0b","levels()":"4ecf518b","nextIndex()":"fc7e9c6f","nullifierHashes(bytes32)":"17cc915c","roots(uint256)":"c2b40ae4","verifier()":"2b7ac3f3","withdraw(uint256[2],uint256[2][2],uint256[2],bytes32,bytes32,address,address,uint256,uint256)":"2aa4eeec","zeros(uint256)":"e8295588"}}}}}