{"contracts/MerkleTree.sol":{"MerkleTreeWithHistory":{"abi":[{"inputs":[{"internalType":"uint32","name":"_levels","type":"uint32"},{"internalType":"contract IHasher","name":"_hasher","type":"address"}],"stateMutability":"nonpayable","type":"constructor"},{"inputs":[],"name":"FIELD_SIZE","outputs":[{"internalType":"uint256","name":"","type":"uint256"}],"stateMutability":"view","type":"function"},{"inputs":[],"name":"ROOT_HISTORY_SIZE","outputs":[{"internalType":"uint32","name":"","type":"uint32"}],"stateMutability":"view","type":"function"},{"inputs":[],"name":"ZERO_VALUE","outputs":[{"internalType":"uint256","name":"","type":"uint256"}],"stateMutability":"view","type":"function"},{"inputs":[],"name":"currentRootIndex","outputs":[{"internalType":"uint32","name":"","type":"uint32"}],"stateMutability":"view","type":"function"},{"inputs":[{"internalType":"uint256","name":"","type":"uint256"}],"name":"filledSubtrees","outputs":[{"internalType":"bytes32","name":"","type":"bytes32"}],"stateMutability":"view","type":"function"},{"inputs":[],"name":"getLastRoot","outputs":[{"internalType":"bytes32","name":"","type":"bytes32"}],"stateMutability":"view","type":"function"},{"inputs":[{"internalType":"contract IHasher","name":"_hasher","type":"address"},{"internalType":"bytes32","name":"_left","type":"bytes32"},{"internalType":"bytes32","name":"_right","type":"bytes32"}],"name":"hashLeftRight","outputs":[{"internalType":"bytes32","name":"","type":"bytes32"}],"stateMutability":"pure","type":"function"},{"inputs":[],"name":"hasher","outputs":[{"internalType":"contract IHasher","name":"","type":"address"}],"stateMutability":"view","type":"function"},{"inputs":[{"internalType":"bytes32","name":"_root","type":"bytes32"}],"name":"isKnownRoot","outputs":[{"internalType":"bool","name":"","type":"bool"}],"stateMutability":"view","type":"function"},{"inputs":[],"name":"levels","outputs":[{"internalType":"uint32","name":"","type":"uint32"}],"stateMutability":"view","type":"function"},{"inputs":[],"name":"nextIndex","outputs":[{"internalType":"uint32","name":"","type":"uint32"}],"stateMutability":"view","type":"function"},{"inputs":[{"internalType":"uint256","name":"","type":"uint256"}],"name":"roots","outputs":[{"internalType":"bytes32","name":"","type":"bytes32"}],"stateMutability":"view","type":"function"},{"inputs":[{"internalType":"uint256","name":"i","type":"uint256"}],"name":"zeros","outputs":[{"internalType":"bytes32","name":"","type":"bytes32"}],"stateMutability":"pure","type":"function"}],"evm":{"bytecode":{"linkReferences":{},"object":"60a0604052600380546001600160401b03191690553480156200002157600080fd5b506040516200144f3803806200144f833981810160405260408110156200004757600080fd5b50805160209091015163ffffffff8216620000945760405162461bcd60e51b81526004018080602001828103825260238152602001806200142c6023913960400191505060405180910390fd5b60208263ffffffff1610620000f0576040805162461bcd60e51b815260206004820152601e60248201527f5f6c6576656c732073686f756c64206265206c657373207468616e2033320000604482015290519081900360640190fd5b6000805463ffffffff191663ffffffff8416178155606082901b6001600160601b0319166080525b8263ffffffff168163ffffffff16101562000161576200013e63ffffffff8216620001ab565b63ffffffff82166000908152600160208190526040909120919091550162000118565b506200017763ffffffff600019840116620001ab565b6000805260026020527fac33ff75c19e70fe83507db0d683fd3465c996598dc972688b7ace676c89077b5550620008399050565b600081620001db57507f2fe54c60d3acabf3343a35b6eba15db4821b340f76e741e2249685ed4899af6c62000834565b81600114156200020d57507f256a6135777eee2fd26f54b8b7037a25439d5235caee224154186d2b8a52e31d62000834565b81600214156200023f57507f1151949895e82ab19924de92c40a3d6f7bcb60d92b00504b8199613683f0c20062000834565b81600314156200027157507f20121ee811489ff8d61f09fb89e313f14959a0f28bb428a20dba6b0b068b3bdb62000834565b8160041415620002a357507f0a89ca6ffa14cc462cfedb842c30ed221a50a3d6bf022a6a57dc82ab24c157c962000834565b8160051415620002d557507f24ca05c2b5cd42e890d6be94c68d0689f4f21c9cec9c0f13fe41d566dfb5495962000834565b81600614156200030757507f1ccb97c932565a92c60156bdba2d08f3bf1377464e025cee765679e604a7315c62000834565b81600714156200033957507f19156fbd7d1a8bf5cba8909367de1b624534ebab4f0f79e003bccdd1b182bdb462000834565b81600814156200036b57507f261af8c1f0912e465744641409f622d466c3920ac6e5ff37e36604cb11dfff8062000834565b81600914156200039c57507e58459724ff6ca5a1652fcbc3e82b93895cf08e975b19beab3f54c217d1c00762000834565b81600a1415620003ce57507f1f04ef20dee48d39984d8eabe768a70eafa6310ad20849d4573c3c40c2ad1e3062000834565b81600b14156200040057507f1bea3dec5dab51567ce7e200a30f7ba6d4276aeaa53e2686f962a46c66d511e562000834565b81600c14156200043257507f0ee0f941e2da4b9e31c3ca97a40d8fa9ce68d97c084177071b3cb46cd3372f0f62000834565b81600d14156200046457507f1ca9503e8935884501bbaf20be14eb4c46b89772c97b96e3b2ebf3a36a948bbd62000834565b81600e14156200049657507f133a80e30697cd55d8f7d4b0965b7be24057ba5dc3da898ee2187232446cb10862000834565b81600f1415620004c857507f13e6d8fc88839ed76e182c2a779af5b2c0da9dd18c90427a644f7e148a6253b662000834565b8160101415620004fa57507f1eb16b057a477f4bc8f572ea6bee39561098f78f15bfb3699dcbb7bd8db6185462000834565b81601114156200052c57507f0da2cb16a1ceaabf1c16b838f7a9e3f2a3a3088d9e0a6debaa748114620696ea62000834565b81601214156200055e57507f24a3b3d822420b14b5d8cb6c28a574f01e98ea9e940551d2ebd75cee12649f9d62000834565b81601314156200059057507f198622acbd783d1b0d9064105b1fc8e4d8889de95c4c519b3f635809fe6afc0562000834565b8160141415620005c257507f29d7ed391256ccc3ea596c86e933b89ff339d25ea8ddced975ae2fe30b5296d462000834565b8160151415620005f457507f19be59f2f0413ce78c0c3703a3a5451b1d7f39629fa33abd11548a76065b296762000834565b81601614156200062657507f1ff3f61797e538b70e619310d33f2a063e7eb59104e112e95738da1254dc345362000834565b81601714156200065857507f10c16ae9959cf8358980d9dd9616e48228737310a10e2b6b731c1a548f036c4862000834565b81601814156200068a57507f0ba433a63174a90ac20992e75e3095496812b652685b5e1a2eae0b1bf4e8fcd162000834565b8160191415620006bc57507f019ddb9df2bc98d987d0dfeca9d2b643deafab8f7036562e627c3667266a044c62000834565b81601a1415620006ee57507f2d3c88b23175c5a5565db928414c66d1912b11acf974b2e644caaac04739ce9962000834565b81601b14156200072057507f2eab55f6ae4e66e32c5189eed5c470840863445760f5ed7e7b69b2a62600f35462000834565b81601c14156200075157507e2df37a2642621802383cf952bf4dd1f32e05433beeb1fd41031fb7eace979d62000834565b81601d14156200078357507f104aeb41435db66c3e62feccc1d6f5d98d0a0ed75d1374db457cf462e3a1f42762000834565b81601e1415620007b557507f1f3c6fd858e9a7d4b0d1f38e256a09d81d5a5e3c963987e2d4b814cfab7c6ebb62000834565b81601f1415620007e757507f2c7a07d20dff79d01fecedc1134284a8d08436606c93693b67e333f671bf69cc62000834565b6040805162461bcd60e51b815260206004820152601360248201527f496e646578206f7574206f6620626f756e647300000000000000000000000000604482015290519081900360640190fd5b919050565b60805160601c610bd56200085760003980610b165250610bd56000f3fe608060405234801561001057600080fd5b50600436106100cf5760003560e01c8063c2b40ae41161008c578063ec73295911610066578063ec732959146101c4578063ed33639f146101cc578063f178e47c146101f0578063fc7e9c6f1461020d576100cf565b8063c2b40ae414610182578063cd87a3b41461019f578063e8295588146101a7576100cf565b8063414a37ba146100d45780634ecf518b146100ee5780636d9833e31461010f5780638ea3099e1461014057806390eeb02b14610172578063ba70f7571461017a575b600080fd5b6100dc610215565b60408051918252519081900360200190f35b6100f6610227565b6040805163ffffffff9092168252519081900360200190f35b61012c6004803603602081101561012557600080fd5b5035610233565b604080519115158252519081900360200190f35b6100dc6004803603606081101561015657600080fd5b506001600160a01b0381351690602081013590604001356102a7565b6100f6610473565b6100dc61047f565b6100dc6004803603602081101561019857600080fd5b503561049a565b6100f66104ac565b6100dc600480360360208110156101bd57600080fd5b50356104b1565b6100dc610af0565b6101d4610b14565b604080516001600160a01b039092168252519081900360200190f35b6100dc6004803603602081101561020657600080fd5b5035610b38565b6100f6610b4a565b600080516020610b8083398151915281565b60005463ffffffff1681565b600081610242575060006102a2565b60035463ffffffff165b63ffffffff81166000908152600260205260409020548314156102735760019150506102a2565b63ffffffff81166102825750601e5b6003546000199091019063ffffffff8083169116141561024c5760009150505b919050565b6000600080516020610b80833981519152831061030b576040805162461bcd60e51b815260206004820181905260248201527f5f6c6566742073686f756c6420626520696e7369646520746865206669656c64604482015290519081900360640190fd5b600080516020610b8083398151915282106103575760405162461bcd60e51b8152600401808060200182810382526021815260200180610b5f6021913960400191505060405180910390fd5b6040805163f47d33b560e01b8152600481018590526000602482018190528251869391926001600160a01b0389169263f47d33b592604480840193829003018186803b1580156103a657600080fd5b505afa1580156103ba573d6000803e3d6000fd5b505050506040513d60408110156103d057600080fd5b5080516020909101519092509050600080516020610b808339815191528483089150856001600160a01b031663f47d33b583836040518363ffffffff1660e01b81526004018083815260200182815260200192505050604080518083038186803b15801561043d57600080fd5b505afa158015610451573d6000803e3d6000fd5b505050506040513d604081101561046757600080fd5b50519695505050505050565b60035463ffffffff1681565b60035463ffffffff1660009081526002602052604090205490565b60026020526000908152604090205481565b601e81565b6000816104df57507f2fe54c60d3acabf3343a35b6eba15db4821b340f76e741e2249685ed4899af6c6102a2565b816001141561050f57507f256a6135777eee2fd26f54b8b7037a25439d5235caee224154186d2b8a52e31d6102a2565b816002141561053f57507f1151949895e82ab19924de92c40a3d6f7bcb60d92b00504b8199613683f0c2006102a2565b816003141561056f57507f20121ee811489ff8d61f09fb89e313f14959a0f28bb428a20dba6b0b068b3bdb6102a2565b816004141561059f57507f0a89ca6ffa14cc462cfedb842c30ed221a50a3d6bf022a6a57dc82ab24c157c96102a2565b81600514156105cf57507f24ca05c2b5cd42e890d6be94c68d0689f4f21c9cec9c0f13fe41d566dfb549596102a2565b81600614156105ff57507f1ccb97c932565a92c60156bdba2d08f3bf1377464e025cee765679e604a7315c6102a2565b816007141561062f57507f19156fbd7d1a8bf5cba8909367de1b624534ebab4f0f79e003bccdd1b182bdb46102a2565b816008141561065f57507f261af8c1f0912e465744641409f622d466c3920ac6e5ff37e36604cb11dfff806102a2565b816009141561068e57507e58459724ff6ca5a1652fcbc3e82b93895cf08e975b19beab3f54c217d1c0076102a2565b81600a14156106be57507f1f04ef20dee48d39984d8eabe768a70eafa6310ad20849d4573c3c40c2ad1e306102a2565b81600b14156106ee57507f1bea3dec5dab51567ce7e200a30f7ba6d4276aeaa53e2686f962a46c66d511e56102a2565b81600c141561071e57507f0ee0f941e2da4b9e31c3ca97a40d8fa9ce68d97c084177071b3cb46cd3372f0f6102a2565b81600d141561074e57507f1ca9503e8935884501bbaf20be14eb4c46b89772c97b96e3b2ebf3a36a948bbd6102a2565b81600e141561077e57507f133a80e30697cd55d8f7d4b0965b7be24057ba5dc3da898ee2187232446cb1086102a2565b81600f14156107ae57507f13e6d8fc88839ed76e182c2a779af5b2c0da9dd18c90427a644f7e148a6253b66102a2565b81601014156107de57507f1eb16b057a477f4bc8f572ea6bee39561098f78f15bfb3699dcbb7bd8db618546102a2565b816011141561080e57507f0da2cb16a1ceaabf1c16b838f7a9e3f2a3a3088d9e0a6debaa748114620696ea6102a2565b816012141561083e57507f24a3b3d822420b14b5d8cb6c28a574f01e98ea9e940551d2ebd75cee12649f9d6102a2565b816013141561086e57507f198622acbd783d1b0d9064105b1fc8e4d8889de95c4c519b3f635809fe6afc056102a2565b816014141561089e57507f29d7ed391256ccc3ea596c86e933b89ff339d25ea8ddced975ae2fe30b5296d46102a2565b81601514156108ce57507f19be59f2f0413ce78c0c3703a3a5451b1d7f39629fa33abd11548a76065b29676102a2565b81601614156108fe57507f1ff3f61797e538b70e619310d33f2a063e7eb59104e112e95738da1254dc34536102a2565b816017141561092e57507f10c16ae9959cf8358980d9dd9616e48228737310a10e2b6b731c1a548f036c486102a2565b816018141561095e57507f0ba433a63174a90ac20992e75e3095496812b652685b5e1a2eae0b1bf4e8fcd16102a2565b816019141561098e57507f019ddb9df2bc98d987d0dfeca9d2b643deafab8f7036562e627c3667266a044c6102a2565b81601a14156109be57507f2d3c88b23175c5a5565db928414c66d1912b11acf974b2e644caaac04739ce996102a2565b81601b14156109ee57507f2eab55f6ae4e66e32c5189eed5c470840863445760f5ed7e7b69b2a62600f3546102a2565b81601c1415610a1d57507e2df37a2642621802383cf952bf4dd1f32e05433beeb1fd41031fb7eace979d6102a2565b81601d1415610a4d57507f104aeb41435db66c3e62feccc1d6f5d98d0a0ed75d1374db457cf462e3a1f4276102a2565b81601e1415610a7d57507f1f3c6fd858e9a7d4b0d1f38e256a09d81d5a5e3c963987e2d4b814cfab7c6ebb6102a2565b81601f1415610aad57507f2c7a07d20dff79d01fecedc1134284a8d08436606c93693b67e333f671bf69cc6102a2565b6040805162461bcd60e51b8152602060048201526013602482015272496e646578206f7574206f6620626f756e647360681b604482015290519081900360640190fd5b7f2fe54c60d3acabf3343a35b6eba15db4821b340f76e741e2249685ed4899af6c81565b7f000000000000000000000000000000000000000000000000000000000000000081565b60016020526000908152604090205481565b600354640100000000900463ffffffff168156fe5f72696768742073686f756c6420626520696e7369646520746865206669656c6430644e72e131a029b85045b68181585d2833e84879b9709143e1f593f0000001a264697066735822122068a92858143fa42d5fa9d02475ac45b0c89bb998728ee0e0e77ad3bc6eafbd9064736f6c634300070000335f6c6576656c732073686f756c642062652067726561746572207468616e207a65726f","opcodes":"PUSH1 0xA0 PUSH1 0x40 MSTORE PUSH1 0x3 DUP1 SLOAD PUSH1 0x1 PUSH1 0x1 PUSH1 0x40 SHL SUB NOT AND SWAP1 SSTORE CALLVALUE DUP1 ISZERO PUSH3 0x21 JUMPI PUSH1 0x0 DUP1 REVERT JUMPDEST POP PUSH1 0x40 MLOAD PUSH3 0x144F CODESIZE SUB DUP1 PUSH3 0x144F DUP4 CODECOPY DUP2 DUP2 ADD PUSH1 0x40 MSTORE PUSH1 0x40 DUP2 LT ISZERO PUSH3 0x47 JUMPI PUSH1 0x0 DUP1 REVERT JUMPDEST POP DUP1 MLOAD PUSH1 0x20 SWAP1 SWAP2 ADD MLOAD PUSH4 0xFFFFFFFF DUP3 AND PUSH3 0x94 JUMPI PUSH1 0x40 MLOAD PUSH3 0x461BCD PUSH1 0xE5 SHL DUP2 MSTORE PUSH1 0x4 ADD DUP1 DUP1 PUSH1 0x20 ADD DUP3 DUP2 SUB DUP3 MSTORE PUSH1 0x23 DUP2 MSTORE PUSH1 0x20 ADD DUP1 PUSH3 0x142C PUSH1 0x23 SWAP2 CODECOPY PUSH1 0x40 ADD SWAP2 POP POP PUSH1 0x40 MLOAD DUP1 SWAP2 SUB SWAP1 REVERT JUMPDEST PUSH1 0x20 DUP3 PUSH4 0xFFFFFFFF AND LT PUSH3 0xF0 JUMPI PUSH1 0x40 DUP1 MLOAD PUSH3 0x461BCD PUSH1 0xE5 SHL DUP2 MSTORE PUSH1 0x20 PUSH1 0x4 DUP3 ADD MSTORE PUSH1 0x1E PUSH1 0x24 DUP3 ADD MSTORE PUSH32 0x5F6C6576656C732073686F756C64206265206C657373207468616E2033320000 PUSH1 0x44 DUP3 ADD MSTORE SWAP1 MLOAD SWAP1 DUP2 SWAP1 SUB PUSH1 0x64 ADD SWAP1 REVERT JUMPDEST PUSH1 0x0 DUP1 SLOAD PUSH4 0xFFFFFFFF NOT AND PUSH4 0xFFFFFFFF DUP5 AND OR DUP2 SSTORE PUSH1 0x60 DUP3 SWAP1 SHL PUSH1 0x1 PUSH1 0x1 PUSH1 0x60 SHL SUB NOT AND PUSH1 0x80 MSTORE JUMPDEST DUP3 PUSH4 0xFFFFFFFF AND DUP2 PUSH4 0xFFFFFFFF AND LT ISZERO PUSH3 0x161 JUMPI PUSH3 0x13E PUSH4 0xFFFFFFFF DUP3 AND PUSH3 0x1AB JUMP JUMPDEST PUSH4 0xFFFFFFFF DUP3 AND PUSH1 0x0 SWAP1 DUP2 MSTORE PUSH1 0x1 PUSH1 0x20 DUP2 SWAP1 MSTORE PUSH1 0x40 SWAP1 SWAP2 KECCAK256 SWAP2 SWAP1 SWAP2 SSTORE ADD PUSH3 0x118 JUMP JUMPDEST POP PUSH3 0x177 PUSH4 0xFFFFFFFF PUSH1 0x0 NOT DUP5 ADD AND PUSH3 0x1AB JUMP JUMPDEST PUSH1 0x0 DUP1 MSTORE PUSH1 0x2 PUSH1 0x20 MSTORE PUSH32 0xAC33FF75C19E70FE83507DB0D683FD3465C996598DC972688B7ACE676C89077B SSTORE POP PUSH3 0x839 SWAP1 POP JUMP JUMPDEST PUSH1 0x0 DUP2 PUSH3 0x1DB JUMPI POP PUSH32 0x2FE54C60D3ACABF3343A35B6EBA15DB4821B340F76E741E2249685ED4899AF6C PUSH3 0x834 JUMP JUMPDEST DUP2 PUSH1 0x1 EQ ISZERO PUSH3 0x20D JUMPI POP PUSH32 0x256A6135777EEE2FD26F54B8B7037A25439D5235CAEE224154186D2B8A52E31D PUSH3 0x834 JUMP JUMPDEST DUP2 PUSH1 0x2 EQ ISZERO PUSH3 0x23F JUMPI POP PUSH32 0x1151949895E82AB19924DE92C40A3D6F7BCB60D92B00504B8199613683F0C200 PUSH3 0x834 JUMP JUMPDEST DUP2 PUSH1 0x3 EQ ISZERO PUSH3 0x271 JUMPI POP PUSH32 0x20121EE811489FF8D61F09FB89E313F14959A0F28BB428A20DBA6B0B068B3BDB PUSH3 0x834 JUMP JUMPDEST DUP2 PUSH1 0x4 EQ ISZERO PUSH3 0x2A3 JUMPI POP PUSH32 0xA89CA6FFA14CC462CFEDB842C30ED221A50A3D6BF022A6A57DC82AB24C157C9 PUSH3 0x834 JUMP JUMPDEST DUP2 PUSH1 0x5 EQ ISZERO PUSH3 0x2D5 JUMPI POP PUSH32 0x24CA05C2B5CD42E890D6BE94C68D0689F4F21C9CEC9C0F13FE41D566DFB54959 PUSH3 0x834 JUMP JUMPDEST DUP2 PUSH1 0x6 EQ ISZERO PUSH3 0x307 JUMPI POP PUSH32 0x1CCB97C932565A92C60156BDBA2D08F3BF1377464E025CEE765679E604A7315C PUSH3 0x834 JUMP JUMPDEST DUP2 PUSH1 0x7 EQ ISZERO PUSH3 0x339 JUMPI POP PUSH32 0x19156FBD7D1A8BF5CBA8909367DE1B624534EBAB4F0F79E003BCCDD1B182BDB4 PUSH3 0x834 JUMP JUMPDEST DUP2 PUSH1 0x8 EQ ISZERO PUSH3 0x36B JUMPI POP PUSH32 0x261AF8C1F0912E465744641409F622D466C3920AC6E5FF37E36604CB11DFFF80 PUSH3 0x834 JUMP JUMPDEST DUP2 PUSH1 0x9 EQ ISZERO PUSH3 0x39C JUMPI POP PUSH31 0x58459724FF6CA5A1652FCBC3E82B93895CF08E975B19BEAB3F54C217D1C007 PUSH3 0x834 JUMP JUMPDEST DUP2 PUSH1 0xA EQ ISZERO PUSH3 0x3CE JUMPI POP PUSH32 0x1F04EF20DEE48D39984D8EABE768A70EAFA6310AD20849D4573C3C40C2AD1E30 PUSH3 0x834 JUMP JUMPDEST DUP2 PUSH1 0xB EQ ISZERO PUSH3 0x400 JUMPI POP PUSH32 0x1BEA3DEC5DAB51567CE7E200A30F7BA6D4276AEAA53E2686F962A46C66D511E5 PUSH3 0x834 JUMP JUMPDEST DUP2 PUSH1 0xC EQ ISZERO PUSH3 0x432 JUMPI POP PUSH32 0xEE0F941E2DA4B9E31C3CA97A40D8FA9CE68D97C084177071B3CB46CD3372F0F PUSH3 0x834 JUMP JUMPDEST DUP2 PUSH1 0xD EQ ISZERO PUSH3 0x464 JUMPI POP PUSH32 0x1CA9503E8935884501BBAF20BE14EB4C46B89772C97B96E3B2EBF3A36A948BBD PUSH3 0x834 JUMP JUMPDEST DUP2 PUSH1 0xE EQ ISZERO PUSH3 0x496 JUMPI POP PUSH32 0x133A80E30697CD55D8F7D4B0965B7BE24057BA5DC3DA898EE2187232446CB108 PUSH3 0x834 JUMP JUMPDEST DUP2 PUSH1 0xF EQ ISZERO PUSH3 0x4C8 JUMPI POP PUSH32 0x13E6D8FC88839ED76E182C2A779AF5B2C0DA9DD18C90427A644F7E148A6253B6 PUSH3 0x834 JUMP JUMPDEST DUP2 PUSH1 0x10 EQ ISZERO PUSH3 0x4FA JUMPI POP PUSH32 0x1EB16B057A477F4BC8F572EA6BEE39561098F78F15BFB3699DCBB7BD8DB61854 PUSH3 0x834 JUMP JUMPDEST DUP2 PUSH1 0x11 EQ ISZERO PUSH3 0x52C JUMPI POP PUSH32 0xDA2CB16A1CEAABF1C16B838F7A9E3F2A3A3088D9E0A6DEBAA748114620696EA PUSH3 0x834 JUMP JUMPDEST DUP2 PUSH1 0x12 EQ ISZERO PUSH3 0x55E JUMPI POP PUSH32 0x24A3B3D822420B14B5D8CB6C28A574F01E98EA9E940551D2EBD75CEE12649F9D PUSH3 0x834 JUMP JUMPDEST DUP2 PUSH1 0x13 EQ ISZERO PUSH3 0x590 JUMPI POP PUSH32 0x198622ACBD783D1B0D9064105B1FC8E4D8889DE95C4C519B3F635809FE6AFC05 PUSH3 0x834 JUMP JUMPDEST DUP2 PUSH1 0x14 EQ ISZERO PUSH3 0x5C2 JUMPI POP PUSH32 0x29D7ED391256CCC3EA596C86E933B89FF339D25EA8DDCED975AE2FE30B5296D4 PUSH3 0x834 JUMP JUMPDEST DUP2 PUSH1 0x15 EQ ISZERO PUSH3 0x5F4 JUMPI POP PUSH32 0x19BE59F2F0413CE78C0C3703A3A5451B1D7F39629FA33ABD11548A76065B2967 PUSH3 0x834 JUMP JUMPDEST DUP2 PUSH1 0x16 EQ ISZERO PUSH3 0x626 JUMPI POP PUSH32 0x1FF3F61797E538B70E619310D33F2A063E7EB59104E112E95738DA1254DC3453 PUSH3 0x834 JUMP JUMPDEST DUP2 PUSH1 0x17 EQ ISZERO PUSH3 0x658 JUMPI POP PUSH32 0x10C16AE9959CF8358980D9DD9616E48228737310A10E2B6B731C1A548F036C48 PUSH3 0x834 JUMP JUMPDEST DUP2 PUSH1 0x18 EQ ISZERO PUSH3 0x68A JUMPI POP PUSH32 0xBA433A63174A90AC20992E75E3095496812B652685B5E1A2EAE0B1BF4E8FCD1 PUSH3 0x834 JUMP JUMPDEST DUP2 PUSH1 0x19 EQ ISZERO PUSH3 0x6BC JUMPI POP PUSH32 0x19DDB9DF2BC98D987D0DFECA9D2B643DEAFAB8F7036562E627C3667266A044C PUSH3 0x834 JUMP JUMPDEST DUP2 PUSH1 0x1A EQ ISZERO PUSH3 0x6EE JUMPI POP PUSH32 0x2D3C88B23175C5A5565DB928414C66D1912B11ACF974B2E644CAAAC04739CE99 PUSH3 0x834 JUMP JUMPDEST DUP2 PUSH1 0x1B EQ ISZERO PUSH3 0x720 JUMPI POP PUSH32 0x2EAB55F6AE4E66E32C5189EED5C470840863445760F5ED7E7B69B2A62600F354 PUSH3 0x834 JUMP JUMPDEST DUP2 PUSH1 0x1C EQ ISZERO PUSH3 0x751 JUMPI POP PUSH31 0x2DF37A2642621802383CF952BF4DD1F32E05433BEEB1FD41031FB7EACE979D PUSH3 0x834 JUMP JUMPDEST DUP2 PUSH1 0x1D EQ ISZERO PUSH3 0x783 JUMPI POP PUSH32 0x104AEB41435DB66C3E62FECCC1D6F5D98D0A0ED75D1374DB457CF462E3A1F427 PUSH3 0x834 JUMP JUMPDEST DUP2 PUSH1 0x1E EQ ISZERO PUSH3 0x7B5 JUMPI POP PUSH32 0x1F3C6FD858E9A7D4B0D1F38E256A09D81D5A5E3C963987E2D4B814CFAB7C6EBB PUSH3 0x834 JUMP JUMPDEST DUP2 PUSH1 0x1F EQ ISZERO PUSH3 0x7E7 JUMPI POP PUSH32 0x2C7A07D20DFF79D01FECEDC1134284A8D08436606C93693B67E333F671BF69CC PUSH3 0x834 JUMP JUMPDEST PUSH1 0x40 DUP1 MLOAD PUSH3 0x461BCD PUSH1 0xE5 SHL DUP2 MSTORE PUSH1 0x20 PUSH1 0x4 DUP3 ADD MSTORE PUSH1 0x13 PUSH1 0x24 DUP3 ADD MSTORE PUSH32 0x496E646578206F7574206F6620626F756E647300000000000000000000000000 PUSH1 0x44 DUP3 ADD MSTORE SWAP1 MLOAD SWAP1 DUP2 SWAP1 SUB PUSH1 0x64 ADD SWAP1 REVERT JUMPDEST SWAP2 SWAP1 POP JUMP JUMPDEST PUSH1 0x80 MLOAD PUSH1 0x60 SHR PUSH2 0xBD5 PUSH3 0x857 PUSH1 0x0 CODECOPY DUP1 PUSH2 0xB16 MSTORE POP PUSH2 0xBD5 PUSH1 0x0 RETURN INVALID PUSH1 0x80 PUSH1 0x40 MSTORE CALLVALUE DUP1 ISZERO PUSH2 0x10 JUMPI PUSH1 0x0 DUP1 REVERT JUMPDEST POP PUSH1 0x4 CALLDATASIZE LT PUSH2 0xCF JUMPI PUSH1 0x0 CALLDATALOAD PUSH1 0xE0 SHR DUP1 PUSH4 0xC2B40AE4 GT PUSH2 0x8C JUMPI DUP1 PUSH4 0xEC732959 GT PUSH2 0x66 JUMPI DUP1 PUSH4 0xEC732959 EQ PUSH2 0x1C4 JUMPI DUP1 PUSH4 0xED33639F EQ PUSH2 0x1CC JUMPI DUP1 PUSH4 0xF178E47C EQ PUSH2 0x1F0 JUMPI DUP1 PUSH4 0xFC7E9C6F EQ PUSH2 0x20D JUMPI PUSH2 0xCF JUMP JUMPDEST DUP1 PUSH4 0xC2B40AE4 EQ PUSH2 0x182 JUMPI DUP1 PUSH4 0xCD87A3B4 EQ PUSH2 0x19F JUMPI DUP1 PUSH4 0xE8295588 EQ PUSH2 0x1A7 JUMPI PUSH2 0xCF JUMP JUMPDEST DUP1 PUSH4 0x414A37BA EQ PUSH2 0xD4 JUMPI DUP1 PUSH4 0x4ECF518B EQ PUSH2 0xEE JUMPI DUP1 PUSH4 0x6D9833E3 EQ PUSH2 0x10F JUMPI DUP1 PUSH4 0x8EA3099E EQ PUSH2 0x140 JUMPI DUP1 PUSH4 0x90EEB02B EQ PUSH2 0x172 JUMPI DUP1 PUSH4 0xBA70F757 EQ PUSH2 0x17A JUMPI JUMPDEST PUSH1 0x0 DUP1 REVERT JUMPDEST PUSH2 0xDC PUSH2 0x215 JUMP JUMPDEST PUSH1 0x40 DUP1 MLOAD SWAP2 DUP3 MSTORE MLOAD SWAP1 DUP2 SWAP1 SUB PUSH1 0x20 ADD SWAP1 RETURN JUMPDEST PUSH2 0xF6 PUSH2 0x227 JUMP JUMPDEST PUSH1 0x40 DUP1 MLOAD PUSH4 0xFFFFFFFF SWAP1 SWAP3 AND DUP3 MSTORE MLOAD SWAP1 DUP2 SWAP1 SUB PUSH1 0x20 ADD SWAP1 RETURN JUMPDEST PUSH2 0x12C PUSH1 0x4 DUP1 CALLDATASIZE SUB PUSH1 0x20 DUP2 LT ISZERO PUSH2 0x125 JUMPI PUSH1 0x0 DUP1 REVERT JUMPDEST POP CALLDATALOAD PUSH2 0x233 JUMP JUMPDEST PUSH1 0x40 DUP1 MLOAD SWAP2 ISZERO ISZERO DUP3 MSTORE MLOAD SWAP1 DUP2 SWAP1 SUB PUSH1 0x20 ADD SWAP1 RETURN JUMPDEST PUSH2 0xDC PUSH1 0x4 DUP1 CALLDATASIZE SUB PUSH1 0x60 DUP2 LT ISZERO PUSH2 0x156 JUMPI PUSH1 0x0 DUP1 REVERT JUMPDEST POP PUSH1 0x1 PUSH1 0x1 PUSH1 0xA0 SHL SUB DUP2 CALLDATALOAD AND SWAP1 PUSH1 0x20 DUP2 ADD CALLDATALOAD SWAP1 PUSH1 0x40 ADD CALLDATALOAD PUSH2 0x2A7 JUMP JUMPDEST PUSH2 0xF6 PUSH2 0x473 JUMP JUMPDEST PUSH2 0xDC PUSH2 0x47F JUMP JUMPDEST PUSH2 0xDC PUSH1 0x4 DUP1 CALLDATASIZE SUB PUSH1 0x20 DUP2 LT ISZERO PUSH2 0x198 JUMPI PUSH1 0x0 DUP1 REVERT JUMPDEST POP CALLDATALOAD PUSH2 0x49A JUMP JUMPDEST PUSH2 0xF6 PUSH2 0x4AC JUMP JUMPDEST PUSH2 0xDC PUSH1 0x4 DUP1 CALLDATASIZE SUB PUSH1 0x20 DUP2 LT ISZERO PUSH2 0x1BD JUMPI PUSH1 0x0 DUP1 REVERT JUMPDEST POP CALLDATALOAD PUSH2 0x4B1 JUMP JUMPDEST PUSH2 0xDC PUSH2 0xAF0 JUMP JUMPDEST PUSH2 0x1D4 PUSH2 0xB14 JUMP JUMPDEST PUSH1 0x40 DUP1 MLOAD PUSH1 0x1 PUSH1 0x1 PUSH1 0xA0 SHL SUB SWAP1 SWAP3 AND DUP3 MSTORE MLOAD SWAP1 DUP2 SWAP1 SUB PUSH1 0x20 ADD SWAP1 RETURN JUMPDEST PUSH2 0xDC PUSH1 0x4 DUP1 CALLDATASIZE SUB PUSH1 0x20 DUP2 LT ISZERO PUSH2 0x206 JUMPI PUSH1 0x0 DUP1 REVERT JUMPDEST POP CALLDATALOAD PUSH2 0xB38 JUMP JUMPDEST PUSH2 0xF6 PUSH2 0xB4A JUMP JUMPDEST PUSH1 0x0 DUP1 MLOAD PUSH1 0x20 PUSH2 0xB80 DUP4 CODECOPY DUP2 MLOAD SWAP2 MSTORE DUP2 JUMP JUMPDEST PUSH1 0x0 SLOAD PUSH4 0xFFFFFFFF AND DUP2 JUMP JUMPDEST PUSH1 0x0 DUP2 PUSH2 0x242 JUMPI POP PUSH1 0x0 PUSH2 0x2A2 JUMP JUMPDEST PUSH1 0x3 SLOAD PUSH4 0xFFFFFFFF AND JUMPDEST PUSH4 0xFFFFFFFF DUP2 AND PUSH1 0x0 SWAP1 DUP2 MSTORE PUSH1 0x2 PUSH1 0x20 MSTORE PUSH1 0x40 SWAP1 KECCAK256 SLOAD DUP4 EQ ISZERO PUSH2 0x273 JUMPI PUSH1 0x1 SWAP2 POP POP PUSH2 0x2A2 JUMP JUMPDEST PUSH4 0xFFFFFFFF DUP2 AND PUSH2 0x282 JUMPI POP PUSH1 0x1E JUMPDEST PUSH1 0x3 SLOAD PUSH1 0x0 NOT SWAP1 SWAP2 ADD SWAP1 PUSH4 0xFFFFFFFF DUP1 DUP4 AND SWAP2 AND EQ ISZERO PUSH2 0x24C JUMPI PUSH1 0x0 SWAP2 POP POP JUMPDEST SWAP2 SWAP1 POP JUMP JUMPDEST PUSH1 0x0 PUSH1 0x0 DUP1 MLOAD PUSH1 0x20 PUSH2 0xB80 DUP4 CODECOPY DUP2 MLOAD SWAP2 MSTORE DUP4 LT PUSH2 0x30B JUMPI PUSH1 0x40 DUP1 MLOAD PUSH3 0x461BCD PUSH1 0xE5 SHL DUP2 MSTORE PUSH1 0x20 PUSH1 0x4 DUP3 ADD DUP2 SWAP1 MSTORE PUSH1 0x24 DUP3 ADD MSTORE PUSH32 0x5F6C6566742073686F756C6420626520696E7369646520746865206669656C64 PUSH1 0x44 DUP3 ADD MSTORE SWAP1 MLOAD SWAP1 DUP2 SWAP1 SUB PUSH1 0x64 ADD SWAP1 REVERT JUMPDEST PUSH1 0x0 DUP1 MLOAD PUSH1 0x20 PUSH2 0xB80 DUP4 CODECOPY DUP2 MLOAD SWAP2 MSTORE DUP3 LT PUSH2 0x357 JUMPI PUSH1 0x40 MLOAD PUSH3 0x461BCD PUSH1 0xE5 SHL DUP2 MSTORE PUSH1 0x4 ADD DUP1 DUP1 PUSH1 0x20 ADD DUP3 DUP2 SUB DUP3 MSTORE PUSH1 0x21 DUP2 MSTORE PUSH1 0x20 ADD DUP1 PUSH2 0xB5F PUSH1 0x21 SWAP2 CODECOPY PUSH1 0x40 ADD SWAP2 POP POP PUSH1 0x40 MLOAD DUP1 SWAP2 SUB SWAP1 REVERT JUMPDEST PUSH1 0x40 DUP1 MLOAD PUSH4 0xF47D33B5 PUSH1 0xE0 SHL DUP2 MSTORE PUSH1 0x4 DUP2 ADD DUP6 SWAP1 MSTORE PUSH1 0x0 PUSH1 0x24 DUP3 ADD DUP2 SWAP1 MSTORE DUP3 MLOAD DUP7 SWAP4 SWAP2 SWAP3 PUSH1 0x1 PUSH1 0x1 PUSH1 0xA0 SHL SUB DUP10 AND SWAP3 PUSH4 0xF47D33B5 SWAP3 PUSH1 0x44 DUP1 DUP5 ADD SWAP4 DUP3 SWAP1 SUB ADD DUP2 DUP7 DUP1 EXTCODESIZE ISZERO DUP1 ISZERO PUSH2 0x3A6 JUMPI PUSH1 0x0 DUP1 REVERT JUMPDEST POP GAS STATICCALL ISZERO DUP1 ISZERO PUSH2 0x3BA JUMPI RETURNDATASIZE PUSH1 0x0 DUP1 RETURNDATACOPY RETURNDATASIZE PUSH1 0x0 REVERT JUMPDEST POP POP POP POP PUSH1 0x40 MLOAD RETURNDATASIZE PUSH1 0x40 DUP2 LT ISZERO PUSH2 0x3D0 JUMPI PUSH1 0x0 DUP1 REVERT JUMPDEST POP DUP1 MLOAD PUSH1 0x20 SWAP1 SWAP2 ADD MLOAD SWAP1 SWAP3 POP SWAP1 POP PUSH1 0x0 DUP1 MLOAD PUSH1 0x20 PUSH2 0xB80 DUP4 CODECOPY DUP2 MLOAD SWAP2 MSTORE DUP5 DUP4 ADDMOD SWAP2 POP DUP6 PUSH1 0x1 PUSH1 0x1 PUSH1 0xA0 SHL SUB AND PUSH4 0xF47D33B5 DUP4 DUP4 PUSH1 0x40 MLOAD DUP4 PUSH4 0xFFFFFFFF AND PUSH1 0xE0 SHL DUP2 MSTORE PUSH1 0x4 ADD DUP1 DUP4 DUP2 MSTORE PUSH1 0x20 ADD DUP3 DUP2 MSTORE PUSH1 0x20 ADD SWAP3 POP POP POP PUSH1 0x40 DUP1 MLOAD DUP1 DUP4 SUB DUP2 DUP7 DUP1 EXTCODESIZE ISZERO DUP1 ISZERO PUSH2 0x43D JUMPI PUSH1 0x0 DUP1 REVERT JUMPDEST POP GAS STATICCALL ISZERO DUP1 ISZERO PUSH2 0x451 JUMPI RETURNDATASIZE PUSH1 0x0 DUP1 RETURNDATACOPY RETURNDATASIZE PUSH1 0x0 REVERT JUMPDEST POP POP POP POP PUSH1 0x40 MLOAD RETURNDATASIZE PUSH1 0x40 DUP2 LT ISZERO PUSH2 0x467 JUMPI PUSH1 0x0 DUP1 REVERT JUMPDEST POP MLOAD SWAP7 SWAP6 POP POP POP POP POP POP JUMP JUMPDEST PUSH1 0x3 SLOAD PUSH4 0xFFFFFFFF AND DUP2 JUMP JUMPDEST PUSH1 0x3 SLOAD PUSH4 0xFFFFFFFF AND PUSH1 0x0 SWAP1 DUP2 MSTORE PUSH1 0x2 PUSH1 0x20 MSTORE PUSH1 0x40 SWAP1 KECCAK256 SLOAD SWAP1 JUMP JUMPDEST PUSH1 0x2 PUSH1 0x20 MSTORE PUSH1 0x0 SWAP1 DUP2 MSTORE PUSH1 0x40 SWAP1 KECCAK256 SLOAD DUP2 JUMP JUMPDEST PUSH1 0x1E DUP2 JUMP JUMPDEST PUSH1 0x0 DUP2 PUSH2 0x4DF JUMPI POP PUSH32 0x2FE54C60D3ACABF3343A35B6EBA15DB4821B340F76E741E2249685ED4899AF6C PUSH2 0x2A2 JUMP JUMPDEST DUP2 PUSH1 0x1 EQ ISZERO PUSH2 0x50F JUMPI POP PUSH32 0x256A6135777EEE2FD26F54B8B7037A25439D5235CAEE224154186D2B8A52E31D PUSH2 0x2A2 JUMP JUMPDEST DUP2 PUSH1 0x2 EQ ISZERO PUSH2 0x53F JUMPI POP PUSH32 0x1151949895E82AB19924DE92C40A3D6F7BCB60D92B00504B8199613683F0C200 PUSH2 0x2A2 JUMP JUMPDEST DUP2 PUSH1 0x3 EQ ISZERO PUSH2 0x56F JUMPI POP PUSH32 0x20121EE811489FF8D61F09FB89E313F14959A0F28BB428A20DBA6B0B068B3BDB PUSH2 0x2A2 JUMP JUMPDEST DUP2 PUSH1 0x4 EQ ISZERO PUSH2 0x59F JUMPI POP PUSH32 0xA89CA6FFA14CC462CFEDB842C30ED221A50A3D6BF022A6A57DC82AB24C157C9 PUSH2 0x2A2 JUMP JUMPDEST DUP2 PUSH1 0x5 EQ ISZERO PUSH2 0x5CF JUMPI POP PUSH32 0x24CA05C2B5CD42E890D6BE94C68D0689F4F21C9CEC9C0F13FE41D566DFB54959 PUSH2 0x2A2 JUMP JUMPDEST DUP2 PUSH1 0x6 EQ ISZERO PUSH2 0x5FF JUMPI POP PUSH32 0x1CCB97C932565A92C60156BDBA2D08F3BF1377464E025CEE765679E604A7315C PUSH2 0x2A2 JUMP JUMPDEST DUP2 PUSH1 0x7 EQ ISZERO PUSH2 0x62F JUMPI POP PUSH32 0x19156FBD7D1A8BF5CBA8909367DE1B624534EBAB4F0F79E003BCCDD1B182BDB4 PUSH2 0x2A2 JUMP JUMPDEST DUP2 PUSH1 0x8 EQ ISZERO PUSH2 0x65F JUMPI POP PUSH32 0x261AF8C1F0912E465744641409F622D466C3920AC6E5FF37E36604CB11DFFF80 PUSH2 0x2A2 JUMP JUMPDEST DUP2 PUSH1 0x9 EQ ISZERO PUSH2 0x68E JUMPI POP PUSH31 0x58459724FF6CA5A1652FCBC3E82B93895CF08E975B19BEAB3F54C217D1C007 PUSH2 0x2A2 JUMP JUMPDEST DUP2 PUSH1 0xA EQ ISZERO PUSH2 0x6BE JUMPI POP PUSH32 0x1F04EF20DEE48D39984D8EABE768A70EAFA6310AD20849D4573C3C40C2AD1E30 PUSH2 0x2A2 JUMP JUMPDEST DUP2 PUSH1 0xB EQ ISZERO PUSH2 0x6EE JUMPI POP PUSH32 0x1BEA3DEC5DAB51567CE7E200A30F7BA6D4276AEAA53E2686F962A46C66D511E5 PUSH2 0x2A2 JUMP JUMPDEST DUP2 PUSH1 0xC EQ ISZERO PUSH2 0x71E JUMPI POP PUSH32 0xEE0F941E2DA4B9E31C3CA97A40D8FA9CE68D97C084177071B3CB46CD3372F0F PUSH2 0x2A2 JUMP JUMPDEST DUP2 PUSH1 0xD EQ ISZERO PUSH2 0x74E JUMPI POP PUSH32 0x1CA9503E8935884501BBAF20BE14EB4C46B89772C97B96E3B2EBF3A36A948BBD PUSH2 0x2A2 JUMP JUMPDEST DUP2 PUSH1 0xE EQ ISZERO PUSH2 0x77E JUMPI POP PUSH32 0x133A80E30697CD55D8F7D4B0965B7BE24057BA5DC3DA898EE2187232446CB108 PUSH2 0x2A2 JUMP JUMPDEST DUP2 PUSH1 0xF EQ ISZERO PUSH2 0x7AE JUMPI POP PUSH32 0x13E6D8FC88839ED76E182C2A779AF5B2C0DA9DD18C90427A644F7E148A6253B6 PUSH2 0x2A2 JUMP JUMPDEST DUP2 PUSH1 0x10 EQ ISZERO PUSH2 0x7DE JUMPI POP PUSH32 0x1EB16B057A477F4BC8F572EA6BEE39561098F78F15BFB3699DCBB7BD8DB61854 PUSH2 0x2A2 JUMP JUMPDEST DUP2 PUSH1 0x11 EQ ISZERO PUSH2 0x80E JUMPI POP PUSH32 0xDA2CB16A1CEAABF1C16B838F7A9E3F2A3A3088D9E0A6DEBAA748114620696EA PUSH2 0x2A2 JUMP JUMPDEST DUP2 PUSH1 0x12 EQ ISZERO PUSH2 0x83E JUMPI POP PUSH32 0x24A3B3D822420B14B5D8CB6C28A574F01E98EA9E940551D2EBD75CEE12649F9D PUSH2 0x2A2 JUMP JUMPDEST DUP2 PUSH1 0x13 EQ ISZERO PUSH2 0x86E JUMPI POP PUSH32 0x198622ACBD783D1B0D9064105B1FC8E4D8889DE95C4C519B3F635809FE6AFC05 PUSH2 0x2A2 JUMP JUMPDEST DUP2 PUSH1 0x14 EQ ISZERO PUSH2 0x89E JUMPI POP PUSH32 0x29D7ED391256CCC3EA596C86E933B89FF339D25EA8DDCED975AE2FE30B5296D4 PUSH2 0x2A2 JUMP JUMPDEST DUP2 PUSH1 0x15 EQ ISZERO PUSH2 0x8CE JUMPI POP PUSH32 0x19BE59F2F0413CE78C0C3703A3A5451B1D7F39629FA33ABD11548A76065B2967 PUSH2 0x2A2 JUMP JUMPDEST DUP2 PUSH1 0x16 EQ ISZERO PUSH2 0x8FE JUMPI POP PUSH32 0x1FF3F61797E538B70E619310D33F2A063E7EB59104E112E95738DA1254DC3453 PUSH2 0x2A2 JUMP JUMPDEST DUP2 PUSH1 0x17 EQ ISZERO PUSH2 0x92E JUMPI POP PUSH32 0x10C16AE9959CF8358980D9DD9616E48228737310A10E2B6B731C1A548F036C48 PUSH2 0x2A2 JUMP JUMPDEST DUP2 PUSH1 0x18 EQ ISZERO PUSH2 0x95E JUMPI POP PUSH32 0xBA433A63174A90AC20992E75E3095496812B652685B5E1A2EAE0B1BF4E8FCD1 PUSH2 0x2A2 JUMP JUMPDEST DUP2 PUSH1 0x19 EQ ISZERO PUSH2 0x98E JUMPI POP PUSH32 0x19DDB9DF2BC98D987D0DFECA9D2B643DEAFAB8F7036562E627C3667266A044C PUSH2 0x2A2 JUMP JUMPDEST DUP2 PUSH1 0x1A EQ ISZERO PUSH2 0x9BE JUMPI POP PUSH32 0x2D3C88B23175C5A5565DB928414C66D1912B11ACF974B2E644CAAAC04739CE99 PUSH2 0x2A2 JUMP JUMPDEST DUP2 PUSH1 0x1B EQ ISZERO PUSH2 0x9EE JUMPI POP PUSH32 0x2EAB55F6AE4E66E32C5189EED5C470840863445760F5ED7E7B69B2A62600F354 PUSH2 0x2A2 JUMP JUMPDEST DUP2 PUSH1 0x1C EQ ISZERO PUSH2 0xA1D JUMPI POP PUSH31 0x2DF37A2642621802383CF952BF4DD1F32E05433BEEB1FD41031FB7EACE979D PUSH2 0x2A2 JUMP JUMPDEST DUP2 PUSH1 0x1D EQ ISZERO PUSH2 0xA4D JUMPI POP PUSH32 0x104AEB41435DB66C3E62FECCC1D6F5D98D0A0ED75D1374DB457CF462E3A1F427 PUSH2 0x2A2 JUMP JUMPDEST DUP2 PUSH1 0x1E EQ ISZERO PUSH2 0xA7D JUMPI POP PUSH32 0x1F3C6FD858E9A7D4B0D1F38E256A09D81D5A5E3C963987E2D4B814CFAB7C6EBB PUSH2 0x2A2 JUMP JUMPDEST DUP2 PUSH1 0x1F EQ ISZERO PUSH2 0xAAD JUMPI POP PUSH32 0x2C7A07D20DFF79D01FECEDC1134284A8D08436606C93693B67E333F671BF69CC PUSH2 0x2A2 JUMP JUMPDEST PUSH1 0x40 DUP1 MLOAD PUSH3 0x461BCD PUSH1 0xE5 SHL DUP2 MSTORE PUSH1 0x20 PUSH1 0x4 DUP3 ADD MSTORE PUSH1 0x13 PUSH1 0x24 DUP3 ADD MSTORE PUSH19 0x496E646578206F7574206F6620626F756E6473 PUSH1 0x68 SHL PUSH1 0x44 DUP3 ADD MSTORE SWAP1 MLOAD SWAP1 DUP2 SWAP1 SUB PUSH1 0x64 ADD SWAP1 REVERT JUMPDEST PUSH32 0x2FE54C60D3ACABF3343A35B6EBA15DB4821B340F76E741E2249685ED4899AF6C DUP2 JUMP JUMPDEST PUSH32 0x0 DUP2 JUMP JUMPDEST PUSH1 0x1 PUSH1 0x20 MSTORE PUSH1 0x0 SWAP1 DUP2 MSTORE PUSH1 0x40 SWAP1 KECCAK256 SLOAD DUP2 JUMP JUMPDEST PUSH1 0x3 SLOAD PUSH5 0x100000000 SWAP1 DIV PUSH4 0xFFFFFFFF AND DUP2 JUMP INVALID 0x5F PUSH19 0x696768742073686F756C6420626520696E7369 PUSH5 0x6520746865 KECCAK256 PUSH7 0x69656C6430644E PUSH19 0xE131A029B85045B68181585D2833E84879B970 SWAP2 NUMBER 0xE1 CREATE2 SWAP4 CREATE STOP STOP ADD LOG2 PUSH5 0x6970667358 0x22 SLT KECCAK256 PUSH9 0xA92858143FA42D5FA9 0xD0 0x24 PUSH22 0xAC45B0C89BB998728EE0E0E77AD3BC6EAFBD9064736F PUSH13 0x634300070000335F6C6576656C PUSH20 0x2073686F756C6420626520677265617465722074 PUSH9 0x616E207A65726F0000 "},"methodIdentifiers":{"FIELD_SIZE()":"414a37ba","ROOT_HISTORY_SIZE()":"cd87a3b4","ZERO_VALUE()":"ec732959","currentRootIndex()":"90eeb02b","filledSubtrees(uint256)":"f178e47c","getLastRoot()":"ba70f757","hashLeftRight(address,bytes32,bytes32)":"8ea3099e","hasher()":"ed33639f","isKnownRoot(bytes32)":"6d9833e3","levels()":"4ecf518b","nextIndex()":"fc7e9c6f","roots(uint256)":"c2b40ae4","zeros(uint256)":"e8295588"}}}}}