{"contracts/Verifier.sol":{"Groth16Verifier":{"abi":[{"inputs":[{"internalType":"uint256[2]","name":"_pA","type":"uint256[2]"},{"internalType":"uint256[2][2]","name":"_pB","type":"uint256[2][2]"},{"internalType":"uint256[2]","name":"_pC","type":"uint256[2]"},{"internalType":"uint256[6]","name":"_pubSignals","type":"uint256[6]"}],"name":"verifyProof","outputs":[{"internalType":"bool","name":"","type":"bool"}],"stateMutability":"view","type":"function"}],"evm":{"bytecode":{"linkReferences":{},"object":"608060405234801561001057600080fd5b506106d5806100206000396000f3fe608060405234801561001057600080fd5b506004361061002b5760003560e01c8063f398789b14610030575b600080fd5b61005a60048036036101c081101561004757600080fd5b506040810160c08201610100830161006e565b604080519115158252519081900360200190f35b6000610621565b7f30644e72e131a029b85045b68181585d2833e84879b9709143e1f593f000000181106100a6576000805260206000f35b50565b600060405183815284602082015285604082015260408160608360076107d05a03fa9150816100dc576000805260206000f35b825160408201526020830151606082015260408360808360066107d05a03fa9150508061010d576000805260206000f35b5050505050565b7f1a38eab1a510fd5fdc4a6e6eac4420ea8e1701e62dffb95a7152595f9bbefd5685527f27976f647a952ff27ca53cf4542f3e7126e15a5b550624405647e372c2b0d3e46020860152600060808601866101b187357f17a585d4c4e18d0a0f14da0b4d728b8b6cc87f3b9e3fd881a7f829444d7386de7f0958e0a88f181fd11c33284c2ae8be9b96b84448be3f56bff807c749a3df7845846100a9565b61020160208801357f15353d5f543e732e615322378952c28ccd9bb85a84b67cb84cb9a44230da19007f0670e3d1884317e788696886bfcfc805d828b400e7164803ebeaa417812d77b8846100a9565b61025160408801357f124b245f316ec5552aa313a274556fcf0de0bc0e0cfa70e9abf1bbff9e3e7c407f2bf8c16cd1bc60de5ddde4bfe65a5c38510b3900d326201b4a25b8fff28b0073846100a9565b6102a160608801357f036c4fdccd8f972087e5f91274718c5ed538db23123e88d42d4d28f2031b2fbf7f26bf5ef4f1a1e0b67dbedea4fdefbce5674511cef2094d69ca384daf56fb6932846100a9565b6102f160808801357f0ebe1471fbe6ab95f6c3eb680affe51bb01bcad44210479903352324398a1ea57f05113d04a461616cb202fdd6d3ba39d82a4d3cd7f40e37d7ca7ff48693968451846100a9565b61034160a08801357f17e30a5987f78da5238450a352e3cf29980df396e63bec5707ccd193b3aa31307f1b1662480f58f338b114205c3ac531192dbfcbf168bf2ceb4d0399ff6f83846b846100a9565b50823581527f30644e72e131a029b85045b68181585d97816a916871ca8d3c208c16d87cfd4760208401357f30644e72e131a029b85045b68181585d97816a916871ca8d3c208c16d87cfd4703066020820152833560408201526020840135606082015260408401356080820152606084013560a08201527f25ed42ccb2bf261ebf90271a40d114321529456ce1cf8340ef045c74837cd90d60c08201527f141b11592e649dd9e124c36e910434f87507c1493d1c4e01079271b1d259e6b660e08201527f175e250495ab4ea226f4a18613408f2f43f377a69ca558c49d48f80412cee3986101008201527f110d32eabaeea64b3d5c4253bcb22b297ff07f3c212e3f159c99fdc6089b14f86101208201527f0520d36f0f4862b459f29c79e686795092d22e30a3be167bd6dc6572e065fad96101408201527f1d5463913a738b32663bbb23a290bd29b1ef9be09776c76b6f1a0f0600130a16610160820152600087015161018082015260206000018701516101a08201527f198e9393920d483a7260bfb731fb5d25f1aa493335a9e71297e485b7aef312c26101c08201527f1800deef121f1e76426a00665e5c4479674322d4f75edadd46debd5cd992f6ed6101e08201527f090689d0585ff075ec9e99ad690c3395bc4b313370b38ef355acdadcd122975b6102008201527f12c85ea5db8c6deb4aab71808dcb408fe3d1e7690c43d37b4ce6cc0166fa7daa610220820152843561024082015260208501356102608201527f1bd68e6d5b0b8329dce67ccd75f5fbaddc4f0c9e2bfa94a933185c5558c404e06102808201527f279a333e2517e84b47d10c390f1f3cd6196cfd9c4799ef031df5ac7d3771e14b6102a08201527f1cad2f450e4618dcdb631fd33624f80914814dca6db2ed495764c207b113c9a76102c08201527f01bb10517d4b10166215af19c7d0a20f5c32c4640717c16102436f13fde4c8d26102e08201526020816103008360086107d05a03fa9051169695505050505050565b60405161038081016040526106396000840135610075565b6106466020840135610075565b6106536040840135610075565b6106606060840135610075565b61066d6080840135610075565b61067a60a0840135610075565b61068760c0840135610075565b610694818486888a610114565b600090815260209150f3fea26469706673582212202181f8d913e5ecf31f9499b8459c1817e16386d7226623120f20fd38a6bc62ff64736f6c63430007000033","opcodes":"PUSH1 0x80 PUSH1 0x40 MSTORE CALLVALUE DUP1 ISZERO PUSH2 0x10 JUMPI PUSH1 0x0 DUP1 REVERT JUMPDEST POP PUSH2 0x6D5 DUP1 PUSH2 0x20 PUSH1 0x0 CODECOPY PUSH1 0x0 RETURN INVALID PUSH1 0x80 PUSH1 0x40 MSTORE CALLVALUE DUP1 ISZERO PUSH2 0x10 JUMPI PUSH1 0x0 DUP1 REVERT JUMPDEST POP PUSH1 0x4 CALLDATASIZE LT PUSH2 0x2B JUMPI PUSH1 0x0 CALLDATALOAD PUSH1 0xE0 SHR DUP1 PUSH4 0xF398789B EQ PUSH2 0x30 JUMPI JUMPDEST PUSH1 0x0 DUP1 REVERT JUMPDEST PUSH2 0x5A PUSH1 0x4 DUP1 CALLDATASIZE SUB PUSH2 0x1C0 DUP2 LT ISZERO PUSH2 0x47 JUMPI PUSH1 0x0 DUP1 REVERT JUMPDEST POP PUSH1 0x40 DUP2 ADD PUSH1 0xC0 DUP3 ADD PUSH2 0x100 DUP4 ADD PUSH2 0x6E JUMP JUMPDEST PUSH1 0x40 DUP1 MLOAD SWAP2 ISZERO ISZERO DUP3 MSTORE MLOAD SWAP1 DUP2 SWAP1 SUB PUSH1 0x20 ADD SWAP1 RETURN JUMPDEST PUSH1 0x0 PUSH2 0x621 JUMP JUMPDEST PUSH32 0x30644E72E131A029B85045B68181585D2833E84879B9709143E1F593F0000001 DUP2 LT PUSH2 0xA6 JUMPI PUSH1 0x0 DUP1 MSTORE PUSH1 0x20 PUSH1 0x0 RETURN JUMPDEST POP JUMP JUMPDEST PUSH1 0x0 PUSH1 0x40 MLOAD DUP4 DUP2 MSTORE DUP5 PUSH1 0x20 DUP3 ADD MSTORE DUP6 PUSH1 0x40 DUP3 ADD MSTORE PUSH1 0x40 DUP2 PUSH1 0x60 DUP4 PUSH1 0x7 PUSH2 0x7D0 GAS SUB STATICCALL SWAP2 POP DUP2 PUSH2 0xDC JUMPI PUSH1 0x0 DUP1 MSTORE PUSH1 0x20 PUSH1 0x0 RETURN JUMPDEST DUP3 MLOAD PUSH1 0x40 DUP3 ADD MSTORE PUSH1 0x20 DUP4 ADD MLOAD PUSH1 0x60 DUP3 ADD MSTORE PUSH1 0x40 DUP4 PUSH1 0x80 DUP4 PUSH1 0x6 PUSH2 0x7D0 GAS SUB STATICCALL SWAP2 POP POP DUP1 PUSH2 0x10D JUMPI PUSH1 0x0 DUP1 MSTORE PUSH1 0x20 PUSH1 0x0 RETURN JUMPDEST POP POP POP POP POP JUMP JUMPDEST PUSH32 0x1A38EAB1A510FD5FDC4A6E6EAC4420EA8E1701E62DFFB95A7152595F9BBEFD56 DUP6 MSTORE PUSH32 0x27976F647A952FF27CA53CF4542F3E7126E15A5B550624405647E372C2B0D3E4 PUSH1 0x20 DUP7 ADD MSTORE PUSH1 0x0 PUSH1 0x80 DUP7 ADD DUP7 PUSH2 0x1B1 DUP8 CALLDATALOAD PUSH32 0x17A585D4C4E18D0A0F14DA0B4D728B8B6CC87F3B9E3FD881A7F829444D7386DE PUSH32 0x958E0A88F181FD11C33284C2AE8BE9B96B84448BE3F56BFF807C749A3DF7845 DUP5 PUSH2 0xA9 JUMP JUMPDEST PUSH2 0x201 PUSH1 0x20 DUP9 ADD CALLDATALOAD PUSH32 0x15353D5F543E732E615322378952C28CCD9BB85A84B67CB84CB9A44230DA1900 PUSH32 0x670E3D1884317E788696886BFCFC805D828B400E7164803EBEAA417812D77B8 DUP5 PUSH2 0xA9 JUMP JUMPDEST PUSH2 0x251 PUSH1 0x40 DUP9 ADD CALLDATALOAD PUSH32 0x124B245F316EC5552AA313A274556FCF0DE0BC0E0CFA70E9ABF1BBFF9E3E7C40 PUSH32 0x2BF8C16CD1BC60DE5DDDE4BFE65A5C38510B3900D326201B4A25B8FFF28B0073 DUP5 PUSH2 0xA9 JUMP JUMPDEST PUSH2 0x2A1 PUSH1 0x60 DUP9 ADD CALLDATALOAD PUSH32 0x36C4FDCCD8F972087E5F91274718C5ED538DB23123E88D42D4D28F2031B2FBF PUSH32 0x26BF5EF4F1A1E0B67DBEDEA4FDEFBCE5674511CEF2094D69CA384DAF56FB6932 DUP5 PUSH2 0xA9 JUMP JUMPDEST PUSH2 0x2F1 PUSH1 0x80 DUP9 ADD CALLDATALOAD PUSH32 0xEBE1471FBE6AB95F6C3EB680AFFE51BB01BCAD44210479903352324398A1EA5 PUSH32 0x5113D04A461616CB202FDD6D3BA39D82A4D3CD7F40E37D7CA7FF48693968451 DUP5 PUSH2 0xA9 JUMP JUMPDEST PUSH2 0x341 PUSH1 0xA0 DUP9 ADD CALLDATALOAD PUSH32 0x17E30A5987F78DA5238450A352E3CF29980DF396E63BEC5707CCD193B3AA3130 PUSH32 0x1B1662480F58F338B114205C3AC531192DBFCBF168BF2CEB4D0399FF6F83846B DUP5 PUSH2 0xA9 JUMP JUMPDEST POP DUP3 CALLDATALOAD DUP2 MSTORE PUSH32 0x30644E72E131A029B85045B68181585D97816A916871CA8D3C208C16D87CFD47 PUSH1 0x20 DUP5 ADD CALLDATALOAD PUSH32 0x30644E72E131A029B85045B68181585D97816A916871CA8D3C208C16D87CFD47 SUB MOD PUSH1 0x20 DUP3 ADD MSTORE DUP4 CALLDATALOAD PUSH1 0x40 DUP3 ADD MSTORE PUSH1 0x20 DUP5 ADD CALLDATALOAD PUSH1 0x60 DUP3 ADD MSTORE PUSH1 0x40 DUP5 ADD CALLDATALOAD PUSH1 0x80 DUP3 ADD MSTORE PUSH1 0x60 DUP5 ADD CALLDATALOAD PUSH1 0xA0 DUP3 ADD MSTORE PUSH32 0x25ED42CCB2BF261EBF90271A40D114321529456CE1CF8340EF045C74837CD90D PUSH1 0xC0 DUP3 ADD MSTORE PUSH32 0x141B11592E649DD9E124C36E910434F87507C1493D1C4E01079271B1D259E6B6 PUSH1 0xE0 DUP3 ADD MSTORE PUSH32 0x175E250495AB4EA226F4A18613408F2F43F377A69CA558C49D48F80412CEE398 PUSH2 0x100 DUP3 ADD MSTORE PUSH32 0x110D32EABAEEA64B3D5C4253BCB22B297FF07F3C212E3F159C99FDC6089B14F8 PUSH2 0x120 DUP3 ADD MSTORE PUSH32 0x520D36F0F4862B459F29C79E686795092D22E30A3BE167BD6DC6572E065FAD9 PUSH2 0x140 DUP3 ADD MSTORE PUSH32 0x1D5463913A738B32663BBB23A290BD29B1EF9BE09776C76B6F1A0F0600130A16 PUSH2 0x160 DUP3 ADD MSTORE PUSH1 0x0 DUP8 ADD MLOAD PUSH2 0x180 DUP3 ADD MSTORE PUSH1 0x20 PUSH1 0x0 ADD DUP8 ADD MLOAD PUSH2 0x1A0 DUP3 ADD MSTORE PUSH32 0x198E9393920D483A7260BFB731FB5D25F1AA493335A9E71297E485B7AEF312C2 PUSH2 0x1C0 DUP3 ADD MSTORE PUSH32 0x1800DEEF121F1E76426A00665E5C4479674322D4F75EDADD46DEBD5CD992F6ED PUSH2 0x1E0 DUP3 ADD MSTORE PUSH32 0x90689D0585FF075EC9E99AD690C3395BC4B313370B38EF355ACDADCD122975B PUSH2 0x200 DUP3 ADD MSTORE PUSH32 0x12C85EA5DB8C6DEB4AAB71808DCB408FE3D1E7690C43D37B4CE6CC0166FA7DAA PUSH2 0x220 DUP3 ADD MSTORE DUP5 CALLDATALOAD PUSH2 0x240 DUP3 ADD MSTORE PUSH1 0x20 DUP6 ADD CALLDATALOAD PUSH2 0x260 DUP3 ADD MSTORE PUSH32 0x1BD68E6D5B0B8329DCE67CCD75F5FBADDC4F0C9E2BFA94A933185C5558C404E0 PUSH2 0x280 DUP3 ADD MSTORE PUSH32 0x279A333E2517E84B47D10C390F1F3CD6196CFD9C4799EF031DF5AC7D3771E14B PUSH2 0x2A0 DUP3 ADD MSTORE PUSH32 0x1CAD2F450E4618DCDB631FD33624F80914814DCA6DB2ED495764C207B113C9A7 PUSH2 0x2C0 DUP3 ADD MSTORE PUSH32 0x1BB10517D4B10166215AF19C7D0A20F5C32C4640717C16102436F13FDE4C8D2 PUSH2 0x2E0 DUP3 ADD MSTORE PUSH1 0x20 DUP2 PUSH2 0x300 DUP4 PUSH1 0x8 PUSH2 0x7D0 GAS SUB STATICCALL SWAP1 MLOAD AND SWAP7 SWAP6 POP POP POP POP POP POP JUMP JUMPDEST PUSH1 0x40 MLOAD PUSH2 0x380 DUP2 ADD PUSH1 0x40 MSTORE PUSH2 0x639 PUSH1 0x0 DUP5 ADD CALLDATALOAD PUSH2 0x75 JUMP JUMPDEST PUSH2 0x646 PUSH1 0x20 DUP5 ADD CALLDATALOAD PUSH2 0x75 JUMP JUMPDEST PUSH2 0x653 PUSH1 0x40 DUP5 ADD CALLDATALOAD PUSH2 0x75 JUMP JUMPDEST PUSH2 0x660 PUSH1 0x60 DUP5 ADD CALLDATALOAD PUSH2 0x75 JUMP JUMPDEST PUSH2 0x66D PUSH1 0x80 DUP5 ADD CALLDATALOAD PUSH2 0x75 JUMP JUMPDEST PUSH2 0x67A PUSH1 0xA0 DUP5 ADD CALLDATALOAD PUSH2 0x75 JUMP JUMPDEST PUSH2 0x687 PUSH1 0xC0 DUP5 ADD CALLDATALOAD PUSH2 0x75 JUMP JUMPDEST PUSH2 0x694 DUP2 DUP5 DUP7 DUP9 DUP11 PUSH2 0x114 JUMP JUMPDEST PUSH1 0x0 SWAP1 DUP2 MSTORE PUSH1 0x20 SWAP2 POP RETURN INVALID LOG2 PUSH5 0x6970667358 0x22 SLT KECCAK256 0x21 DUP2 0xF8 0xD9 SGT 0xE5 0xEC RETURN 0x1F SWAP5 SWAP10 0xB8 GASLIMIT SWAP13 XOR OR 0xE1 PUSH4 0x86D72266 0x23 SLT 0xF KECCAK256 REVERT CODESIZE 0xA6 0xBC PUSH3 0xFF6473 PUSH16 0x6C634300070000330000000000000000 "},"methodIdentifiers":{"verifyProof(uint256[2],uint256[2][2],uint256[2],uint256[6])":"f398789b"}}}}}