{
  "_format": "hh-sol-artifact-1",
  "contractName": "Groth16Verifier",
  "sourceName": "contracts/Verifier.sol",
  "abi": [
    {
      "inputs": [
        {
          "internalType": "uint256[2]",
          "name": "_pA",
          "type": "uint256[2]"
        },
        {
          "internalType": "uint256[2][2]",
          "name": "_pB",
          "type": "uint256[2][2]"
        },
        {
          "internalType": "uint256[2]",
          "name": "_pC",
          "type": "uint256[2]"
        },
        {
          "internalType": "uint256[6]",
          "name": "_pubSignals",
          "type": "uint256[6]"
        }
      ],
      "name": "verifyProof",
      "outputs": [
        {
          "internalType": "bool",
          "name": "",
          "type": "bool"
        }
      ],
      "stateMutability": "view",
      "type": "function"
    }
  ],
  "bytecode": "0x608060405234801561001057600080fd5b506106d5806100206000396000f3fe608060405234801561001057600080fd5b506004361061002b5760003560e01c8063f398789b14610030575b600080fd5b61005a60048036036101c081101561004757600080fd5b506040810160c08201610100830161006e565b604080519115158252519081900360200190f35b6000610621565b7f30644e72e131a029b85045b68181585d2833e84879b9709143e1f593f000000181106100a6576000805260206000f35b50565b600060405183815284602082015285604082015260408160608360076107d05a03fa9150816100dc576000805260206000f35b825160408201526020830151606082015260408360808360066107d05a03fa9150508061010d576000805260206000f35b5050505050565b7f1a38eab1a510fd5fdc4a6e6eac4420ea8e1701e62dffb95a7152595f9bbefd5685527f27976f647a952ff27ca53cf4542f3e7126e15a5b550624405647e372c2b0d3e46020860152600060808601866101b187357f17a585d4c4e18d0a0f14da0b4d728b8b6cc87f3b9e3fd881a7f829444d7386de7f0958e0a88f181fd11c33284c2ae8be9b96b84448be3f56bff807c749a3df7845846100a9565b61020160208801357f15353d5f543e732e615322378952c28ccd9bb85a84b67cb84cb9a44230da19007f0670e3d1884317e788696886bfcfc805d828b400e7164803ebeaa417812d77b8846100a9565b61025160408801357f124b245f316ec5552aa313a274556fcf0de0bc0e0cfa70e9abf1bbff9e3e7c407f2bf8c16cd1bc60de5ddde4bfe65a5c38510b3900d326201b4a25b8fff28b0073846100a9565b6102a160608801357f036c4fdccd8f972087e5f91274718c5ed538db23123e88d42d4d28f2031b2fbf7f26bf5ef4f1a1e0b67dbedea4fdefbce5674511cef2094d69ca384daf56fb6932846100a9565b6102f160808801357f0ebe1471fbe6ab95f6c3eb680affe51bb01bcad44210479903352324398a1ea57f05113d04a461616cb202fdd6d3ba39d82a4d3cd7f40e37d7ca7ff48693968451846100a9565b61034160a08801357f17e30a5987f78da5238450a352e3cf29980df396e63bec5707ccd193b3aa31307f1b1662480f58f338b114205c3ac531192dbfcbf168bf2ceb4d0399ff6f83846b846100a9565b50823581527f30644e72e131a029b85045b68181585d97816a916871ca8d3c208c16d87cfd4760208401357f30644e72e131a029b85045b68181585d97816a916871ca8d3c208c16d87cfd4703066020820152833560408201526020840135606082015260408401356080820152606084013560a08201527f25ed42ccb2bf261ebf90271a40d114321529456ce1cf8340ef045c74837cd90d60c08201527f141b11592e649dd9e124c36e910434f87507c1493d1c4e01079271b1d259e6b660e08201527f175e250495ab4ea226f4a18613408f2f43f377a69ca558c49d48f80412cee3986101008201527f110d32eabaeea64b3d5c4253bcb22b297ff07f3c212e3f159c99fdc6089b14f86101208201527f0520d36f0f4862b459f29c79e686795092d22e30a3be167bd6dc6572e065fad96101408201527f1d5463913a738b32663bbb23a290bd29b1ef9be09776c76b6f1a0f0600130a16610160820152600087015161018082015260206000018701516101a08201527f198e9393920d483a7260bfb731fb5d25f1aa493335a9e71297e485b7aef312c26101c08201527f1800deef121f1e76426a00665e5c4479674322d4f75edadd46debd5cd992f6ed6101e08201527f090689d0585ff075ec9e99ad690c3395bc4b313370b38ef355acdadcd122975b6102008201527f12c85ea5db8c6deb4aab71808dcb408fe3d1e7690c43d37b4ce6cc0166fa7daa610220820152843561024082015260208501356102608201527f1bd68e6d5b0b8329dce67ccd75f5fbaddc4f0c9e2bfa94a933185c5558c404e06102808201527f279a333e2517e84b47d10c390f1f3cd6196cfd9c4799ef031df5ac7d3771e14b6102a08201527f1cad2f450e4618dcdb631fd33624f80914814dca6db2ed495764c207b113c9a76102c08201527f01bb10517d4b10166215af19c7d0a20f5c32c4640717c16102436f13fde4c8d26102e08201526020816103008360086107d05a03fa9051169695505050505050565b60405161038081016040526106396000840135610075565b6106466020840135610075565b6106536040840135610075565b6106606060840135610075565b61066d6080840135610075565b61067a60a0840135610075565b61068760c0840135610075565b610694818486888a610114565b600090815260209150f3fea26469706673582212202181f8d913e5ecf31f9499b8459c1817e16386d7226623120f20fd38a6bc62ff64736f6c63430007000033",
  "linkReferences": {},
  "deployedLinkReferences": {}
}