{
  "_format": "hh-sol-artifact-1",
  "contractName": "Groth16Verifier",
  "sourceName": "contracts/Verifier.sol",
  "abi": [
    {
      "inputs": [
        {
          "internalType": "uint256[2]",
          "name": "_pA",
          "type": "uint256[2]"
        },
        {
          "internalType": "uint256[2][2]",
          "name": "_pB",
          "type": "uint256[2][2]"
        },
        {
          "internalType": "uint256[2]",
          "name": "_pC",
          "type": "uint256[2]"
        },
        {
          "internalType": "uint256[6]",
          "name": "_pubSignals",
          "type": "uint256[6]"
        }
      ],
      "name": "verifyProof",
      "outputs": [
        {
          "internalType": "bool",
          "name": "",
          "type": "bool"
        }
      ],
      "stateMutability": "view",
      "type": "function"
    }
  ],
  "bytecode": "0x608060405234801561001057600080fd5b506106d5806100206000396000f3fe608060405234801561001057600080fd5b506004361061002b5760003560e01c8063f398789b14610030575b600080fd5b61005a60048036036101c081101561004757600080fd5b506040810160c08201610100830161006e565b604080519115158252519081900360200190f35b6000610621565b7f30644e72e131a029b85045b68181585d2833e84879b9709143e1f593f000000181106100a6576000805260206000f35b50565b600060405183815284602082015285604082015260408160608360076107d05a03fa9150816100dc576000805260206000f35b825160408201526020830151606082015260408360808360066107d05a03fa9150508061010d576000805260206000f35b5050505050565b7f278c049e67e2a65b30e5ecae57e10ea40693a7dd659355ee524eff6b564770dc85527f1a7fd5d504af683cacc6bbad0ffe5cfc03273ce09f381b5ff1be5377ee2f56a66020860152600060808601866101b187357f0d62515ff8c423e8a9531352e4fce27e9828ef89a4c41443d019e11271091efc7f2c8df97d93ccce335fb0aefda1f02e7ddb37212601b6109b5f891e9d728ef665846100a9565b61020160208801357f1ec5efdf2767b92f196ef30960980afe9d793f7f9f9dd5725ff8c2acdc992a637f18b9f45f1ffbefe5374bbcfb28e1f4bc264a2966ea75c8abf41a2fd8d0249d5d846100a9565b61025160408801357f147b802d7b13c955741707b63fbef2108e940e3764a1bf8eea3a4aceb97b915d7f1e068ec9cc5e7a9f6dc07f39edb84afcc29b6bf99e9f862bf0b63dc67f70e236846100a9565b6102a160608801357f0e952837974edd8bf66bd47153e8cab72df6cfcdd2510c3bb376ae004be252177f14b9f07bc61c0e379b1be659788b68838ceb14327eafdf315c8f53af4b5cfd28846100a9565b6102f160808801357f027172e792b8d278b1016059a175bbc4361f81ea48208e70ebabfbbcd78327757f159b278f635c94715cca725458dbe5aa19a9333f1c0513f32ad971299a2c0022846100a9565b61034160a08801357f06e6768510aa462904c2abdacabe15cc866d21bfbaa44e0e93fcbd748fe09b577f0b93fcfb282903a04a1de2b433751fa410a75a6b669fd5cb1d11f770c9c72c24846100a9565b50823581527f30644e72e131a029b85045b68181585d97816a916871ca8d3c208c16d87cfd4760208401357f30644e72e131a029b85045b68181585d97816a916871ca8d3c208c16d87cfd4703066020820152833560408201526020840135606082015260408401356080820152606084013560a08201527f2182be87095edb059c8137a4e25a56d542d383ce0fbb297bde28f3d875d234e960c08201527f052ebb09f23e07051ab51d30f1338beb9532fd8ad1355542ebd7ede383b0d0ac60e08201527f251dd4eeac1ea7749fd1345095c383536f8ce2c06f9aba26a81ed572b6a74e496101008201527f18a72a6098704e0a7660a50cd11af6723b178fdb2de1382fc6646c2b6d469a226101208201527f26402858dfd2f45ea5cea1665dc1d45751e011edfb71c6e8c1199bd99842efa66101408201527f040942c7bd26df34fdecf749276634434640fff6ccbaee0f3f2a0bfa5638e04c610160820152600087015161018082015260206000018701516101a08201527f198e9393920d483a7260bfb731fb5d25f1aa493335a9e71297e485b7aef312c26101c08201527f1800deef121f1e76426a00665e5c4479674322d4f75edadd46debd5cd992f6ed6101e08201527f090689d0585ff075ec9e99ad690c3395bc4b313370b38ef355acdadcd122975b6102008201527f12c85ea5db8c6deb4aab71808dcb408fe3d1e7690c43d37b4ce6cc0166fa7daa610220820152843561024082015260208501356102608201527f099ed1bcda5d08ed6a84e1bda8238d937f78980aa5647093d3de599b2c0874256102808201527f2212a572747d002b937522f91ba53a1b739b61bd1beb6eb61b0a1d4dfef54d106102a08201527f17d0b510b28328df074492c75d7f47b9db27121dd7eeade315d0349a0aeeb89c6102c08201527f15ac16b9be28c551f99502f40dd357c4e7176874792dfb7546f136cd48d1f34a6102e08201526020816103008360086107d05a03fa9051169695505050505050565b60405161038081016040526106396000840135610075565b6106466020840135610075565b6106536040840135610075565b6106606060840135610075565b61066d6080840135610075565b61067a60a0840135610075565b61068760c0840135610075565b610694818486888a610114565b600090815260209150f3fea26469706673582212204dad9665a2d298985aa06bf6968375051ab4fce0b50e3028c1fdcf1c0c957d0764736f6c63430007000033",
  "linkReferences": {},
  "deployedLinkReferences": {}
}