{
  "_format": "hh-sol-artifact-1",
  "contractName": "ETHTornado",
  "sourceName": "contracts/ETHTornado.sol",
  "abi": [
    {
      "inputs": [
        {
          "internalType": "contract IVerifier",
          "name": "_verifier",
          "type": "address"
        },
        {
          "internalType": "contract IHasher",
          "name": "_hasher",
          "type": "address"
        },
        {
          "internalType": "uint256",
          "name": "_denomination",
          "type": "uint256"
        },
        {
          "internalType": "uint32",
          "name": "_merkleTreeHeight",
          "type": "uint32"
        }
      ],
      "stateMutability": "nonpayable",
      "type": "constructor"
    },
    {
      "anonymous": false,
      "inputs": [
        {
          "indexed": true,
          "internalType": "bytes32",
          "name": "commitment",
          "type": "bytes32"
        },
        {
          "indexed": false,
          "internalType": "uint32",
          "name": "leafIndex",
          "type": "uint32"
        },
        {
          "indexed": false,
          "internalType": "uint256",
          "name": "timestamp",
          "type": "uint256"
        }
      ],
      "name": "Deposit",
      "type": "event"
    },
    {
      "anonymous": false,
      "inputs": [
        {
          "indexed": false,
          "internalType": "address",
          "name": "to",
          "type": "address"
        },
        {
          "indexed": false,
          "internalType": "bytes32",
          "name": "nullifierHash",
          "type": "bytes32"
        },
        {
          "indexed": true,
          "internalType": "address",
          "name": "relayer",
          "type": "address"
        },
        {
          "indexed": false,
          "internalType": "uint256",
          "name": "fee",
          "type": "uint256"
        }
      ],
      "name": "Withdrawal",
      "type": "event"
    },
    {
      "inputs": [],
      "name": "FIELD_SIZE",
      "outputs": [
        {
          "internalType": "uint256",
          "name": "",
          "type": "uint256"
        }
      ],
      "stateMutability": "view",
      "type": "function"
    },
    {
      "inputs": [],
      "name": "ROOT_HISTORY_SIZE",
      "outputs": [
        {
          "internalType": "uint32",
          "name": "",
          "type": "uint32"
        }
      ],
      "stateMutability": "view",
      "type": "function"
    },
    {
      "inputs": [],
      "name": "ZERO_VALUE",
      "outputs": [
        {
          "internalType": "uint256",
          "name": "",
          "type": "uint256"
        }
      ],
      "stateMutability": "view",
      "type": "function"
    },
    {
      "inputs": [],
      "name": "currentRootIndex",
      "outputs": [
        {
          "internalType": "uint32",
          "name": "",
          "type": "uint32"
        }
      ],
      "stateMutability": "view",
      "type": "function"
    },
    {
      "inputs": [],
      "name": "denomination",
      "outputs": [
        {
          "internalType": "uint256",
          "name": "",
          "type": "uint256"
        }
      ],
      "stateMutability": "view",
      "type": "function"
    },
    {
      "inputs": [
        {
          "internalType": "bytes32",
          "name": "_commitment",
          "type": "bytes32"
        }
      ],
      "name": "deposit",
      "outputs": [],
      "stateMutability": "payable",
      "type": "function"
    },
    {
      "inputs": [
        {
          "internalType": "uint256",
          "name": "",
          "type": "uint256"
        }
      ],
      "name": "filledSubtrees",
      "outputs": [
        {
          "internalType": "bytes32",
          "name": "",
          "type": "bytes32"
        }
      ],
      "stateMutability": "view",
      "type": "function"
    },
    {
      "inputs": [],
      "name": "getLastRoot",
      "outputs": [
        {
          "internalType": "bytes32",
          "name": "",
          "type": "bytes32"
        }
      ],
      "stateMutability": "view",
      "type": "function"
    },
    {
      "inputs": [
        {
          "internalType": "contract IHasher",
          "name": "_hasher",
          "type": "address"
        },
        {
          "internalType": "bytes32",
          "name": "_left",
          "type": "bytes32"
        },
        {
          "internalType": "bytes32",
          "name": "_right",
          "type": "bytes32"
        }
      ],
      "name": "hashLeftRight",
      "outputs": [
        {
          "internalType": "bytes32",
          "name": "",
          "type": "bytes32"
        }
      ],
      "stateMutability": "pure",
      "type": "function"
    },
    {
      "inputs": [],
      "name": "hasher",
      "outputs": [
        {
          "internalType": "contract IHasher",
          "name": "",
          "type": "address"
        }
      ],
      "stateMutability": "view",
      "type": "function"
    },
    {
      "inputs": [
        {
          "internalType": "bytes32",
          "name": "_root",
          "type": "bytes32"
        }
      ],
      "name": "isKnownRoot",
      "outputs": [
        {
          "internalType": "bool",
          "name": "",
          "type": "bool"
        }
      ],
      "stateMutability": "view",
      "type": "function"
    },
    {
      "inputs": [
        {
          "internalType": "bytes32",
          "name": "_nullifierHash",
          "type": "bytes32"
        }
      ],
      "name": "isSpent",
      "outputs": [
        {
          "internalType": "bool",
          "name": "",
          "type": "bool"
        }
      ],
      "stateMutability": "view",
      "type": "function"
    },
    {
      "inputs": [
        {
          "internalType": "bytes32[]",
          "name": "_nullifierHashes",
          "type": "bytes32[]"
        }
      ],
      "name": "isSpentArray",
      "outputs": [
        {
          "internalType": "bool[]",
          "name": "spent",
          "type": "bool[]"
        }
      ],
      "stateMutability": "view",
      "type": "function"
    },
    {
      "inputs": [],
      "name": "levels",
      "outputs": [
        {
          "internalType": "uint32",
          "name": "",
          "type": "uint32"
        }
      ],
      "stateMutability": "view",
      "type": "function"
    },
    {
      "inputs": [],
      "name": "nextIndex",
      "outputs": [
        {
          "internalType": "uint32",
          "name": "",
          "type": "uint32"
        }
      ],
      "stateMutability": "view",
      "type": "function"
    },
    {
      "inputs": [
        {
          "internalType": "bytes32",
          "name": "",
          "type": "bytes32"
        }
      ],
      "name": "nullifierHashes",
      "outputs": [
        {
          "internalType": "bool",
          "name": "",
          "type": "bool"
        }
      ],
      "stateMutability": "view",
      "type": "function"
    },
    {
      "inputs": [
        {
          "internalType": "uint256",
          "name": "",
          "type": "uint256"
        }
      ],
      "name": "roots",
      "outputs": [
        {
          "internalType": "bytes32",
          "name": "",
          "type": "bytes32"
        }
      ],
      "stateMutability": "view",
      "type": "function"
    },
    {
      "inputs": [],
      "name": "verifier",
      "outputs": [
        {
          "internalType": "contract IVerifier",
          "name": "",
          "type": "address"
        }
      ],
      "stateMutability": "view",
      "type": "function"
    },
    {
      "inputs": [
        {
          "internalType": "uint256[2]",
          "name": "_proof_a",
          "type": "uint256[2]"
        },
        {
          "internalType": "uint256[2][2]",
          "name": "_proof_b",
          "type": "uint256[2][2]"
        },
        {
          "internalType": "uint256[2]",
          "name": "_proof_c",
          "type": "uint256[2]"
        },
        {
          "internalType": "bytes32",
          "name": "_root",
          "type": "bytes32"
        },
        {
          "internalType": "bytes32",
          "name": "_nullifierHash",
          "type": "bytes32"
        },
        {
          "internalType": "address payable",
          "name": "_recipient",
          "type": "address"
        },
        {
          "internalType": "address payable",
          "name": "_relayer",
          "type": "address"
        },
        {
          "internalType": "uint256",
          "name": "_fee",
          "type": "uint256"
        },
        {
          "internalType": "uint256",
          "name": "_refund",
          "type": "uint256"
        }
      ],
      "name": "withdraw",
      "outputs": [],
      "stateMutability": "payable",
      "type": "function"
    },
    {
      "inputs": [
        {
          "internalType": "uint256",
          "name": "i",
          "type": "uint256"
        }
      ],
      "name": "zeros",
      "outputs": [
        {
          "internalType": "bytes32",
          "name": "",
          "type": "bytes32"
        }
      ],
      "stateMutability": "pure",
      "type": "function"
    }
  ],
  "bytecode": "0x60c0604052600380546001600160401b03191690553480156200002157600080fd5b506040516200227338038062002273833981810160405260808110156200004757600080fd5b508051602082015160408301516060909301519192909183838383808363ffffffff8216620000a85760405162461bcd60e51b8152600401808060200182810382526023815260200180620022506023913960400191505060405180910390fd5b60208263ffffffff161062000104576040805162461bcd60e51b815260206004820152601e60248201527f5f6c6576656c732073686f756c64206265206c657373207468616e2033320000604482015290519081900360640190fd5b6000805463ffffffff191663ffffffff8416178155606082901b6001600160601b0319166080525b8263ffffffff168163ffffffff16101562000175576200015263ffffffff821662000233565b63ffffffff8216600090815260016020819052604090912091909155016200012c565b506200018b63ffffffff60001984011662000233565b6000805260026020527fac33ff75c19e70fe83507db0d683fd3465c996598dc972688b7ace676c89077b55505060016004558162000210576040805162461bcd60e51b815260206004820152601a60248201527f64656e6f6d696e6174696f6e2063616e206e6f74206265203021000000000000604482015290519081900360640190fd5b5060609290921b6001600160601b03191660a0525060055550620008c192505050565b6000816200026357507f2fe54c60d3acabf3343a35b6eba15db4821b340f76e741e2249685ed4899af6c620008bc565b81600114156200029557507f256a6135777eee2fd26f54b8b7037a25439d5235caee224154186d2b8a52e31d620008bc565b8160021415620002c757507f1151949895e82ab19924de92c40a3d6f7bcb60d92b00504b8199613683f0c200620008bc565b8160031415620002f957507f20121ee811489ff8d61f09fb89e313f14959a0f28bb428a20dba6b0b068b3bdb620008bc565b81600414156200032b57507f0a89ca6ffa14cc462cfedb842c30ed221a50a3d6bf022a6a57dc82ab24c157c9620008bc565b81600514156200035d57507f24ca05c2b5cd42e890d6be94c68d0689f4f21c9cec9c0f13fe41d566dfb54959620008bc565b81600614156200038f57507f1ccb97c932565a92c60156bdba2d08f3bf1377464e025cee765679e604a7315c620008bc565b8160071415620003c157507f19156fbd7d1a8bf5cba8909367de1b624534ebab4f0f79e003bccdd1b182bdb4620008bc565b8160081415620003f357507f261af8c1f0912e465744641409f622d466c3920ac6e5ff37e36604cb11dfff80620008bc565b81600914156200042457507e58459724ff6ca5a1652fcbc3e82b93895cf08e975b19beab3f54c217d1c007620008bc565b81600a14156200045657507f1f04ef20dee48d39984d8eabe768a70eafa6310ad20849d4573c3c40c2ad1e30620008bc565b81600b14156200048857507f1bea3dec5dab51567ce7e200a30f7ba6d4276aeaa53e2686f962a46c66d511e5620008bc565b81600c1415620004ba57507f0ee0f941e2da4b9e31c3ca97a40d8fa9ce68d97c084177071b3cb46cd3372f0f620008bc565b81600d1415620004ec57507f1ca9503e8935884501bbaf20be14eb4c46b89772c97b96e3b2ebf3a36a948bbd620008bc565b81600e14156200051e57507f133a80e30697cd55d8f7d4b0965b7be24057ba5dc3da898ee2187232446cb108620008bc565b81600f14156200055057507f13e6d8fc88839ed76e182c2a779af5b2c0da9dd18c90427a644f7e148a6253b6620008bc565b81601014156200058257507f1eb16b057a477f4bc8f572ea6bee39561098f78f15bfb3699dcbb7bd8db61854620008bc565b8160111415620005b457507f0da2cb16a1ceaabf1c16b838f7a9e3f2a3a3088d9e0a6debaa748114620696ea620008bc565b8160121415620005e657507f24a3b3d822420b14b5d8cb6c28a574f01e98ea9e940551d2ebd75cee12649f9d620008bc565b81601314156200061857507f198622acbd783d1b0d9064105b1fc8e4d8889de95c4c519b3f635809fe6afc05620008bc565b81601414156200064a57507f29d7ed391256ccc3ea596c86e933b89ff339d25ea8ddced975ae2fe30b5296d4620008bc565b81601514156200067c57507f19be59f2f0413ce78c0c3703a3a5451b1d7f39629fa33abd11548a76065b2967620008bc565b8160161415620006ae57507f1ff3f61797e538b70e619310d33f2a063e7eb59104e112e95738da1254dc3453620008bc565b8160171415620006e057507f10c16ae9959cf8358980d9dd9616e48228737310a10e2b6b731c1a548f036c48620008bc565b81601814156200071257507f0ba433a63174a90ac20992e75e3095496812b652685b5e1a2eae0b1bf4e8fcd1620008bc565b81601914156200074457507f019ddb9df2bc98d987d0dfeca9d2b643deafab8f7036562e627c3667266a044c620008bc565b81601a14156200077657507f2d3c88b23175c5a5565db928414c66d1912b11acf974b2e644caaac04739ce99620008bc565b81601b1415620007a857507f2eab55f6ae4e66e32c5189eed5c470840863445760f5ed7e7b69b2a62600f354620008bc565b81601c1415620007d957507e2df37a2642621802383cf952bf4dd1f32e05433beeb1fd41031fb7eace979d620008bc565b81601d14156200080b57507f104aeb41435db66c3e62feccc1d6f5d98d0a0ed75d1374db457cf462e3a1f427620008bc565b81601e14156200083d57507f1f3c6fd858e9a7d4b0d1f38e256a09d81d5a5e3c963987e2d4b814cfab7c6ebb620008bc565b81601f14156200086f57507f2c7a07d20dff79d01fecedc1134284a8d08436606c93693b67e333f671bf69cc620008bc565b6040805162461bcd60e51b815260206004820152601360248201527f496e646578206f7574206f6620626f756e647300000000000000000000000000604482015290519081900360640190fd5b919050565b60805160601c60a05160601c61195b620008f5600039806106fb528061096252508061145e5280611775525061195b6000f3fe60806040526004361061011f5760003560e01c8063b214faa5116100a0578063e829558811610064578063e8295588146104df578063ec73295914610509578063ed33639f1461051e578063f178e47c14610533578063fc7e9c6f1461055d5761011f565b8063b214faa514610444578063ba70f75714610461578063c2b40ae414610476578063cd87a3b4146104a0578063e5285dcc146104b55761011f565b80636d9833e3116100e75780636d9833e3146102e45780638bca6d161461030e5780638ea3099e1461032357806390eeb02b146103625780639fa12d0b146103775761011f565b806317cc915c146101245780632aa4eeec146101625780632b7ac3f31461025e578063414a37ba1461028f5780634ecf518b146102b6575b600080fd5b34801561013057600080fd5b5061014e6004803603602081101561014757600080fd5b5035610572565b604080519115158252519081900360200190f35b61025c60048036036101c081101561017957600080fd5b6040805180820182529183019291818301918390600290839083908082843760009201829052506040805180820190915293969594608081019493509150600290835b828210156101fa57604080518082018252908084028601906002908390839080828437600092019190915250505081526001909101906020016101bc565b505060408051808201825293969594818101949350915060029083908390808284376000920191909152509194505081359250506020810135906001600160a01b03604082013581169160608101359091169060808101359060a00135610587565b005b34801561026a57600080fd5b50610273610960565b604080516001600160a01b039092168252519081900360200190f35b34801561029b57600080fd5b506102a4610984565b60408051918252519081900360200190f35b3480156102c257600080fd5b506102cb610996565b6040805163ffffffff9092168252519081900360200190f35b3480156102f057600080fd5b5061014e6004803603602081101561030757600080fd5b50356109a2565b34801561031a57600080fd5b506102a4610a16565b34801561032f57600080fd5b506102a46004803603606081101561034657600080fd5b506001600160a01b038135169060208101359060400135610a1c565b34801561036e57600080fd5b506102cb610be8565b34801561038357600080fd5b506103f46004803603602081101561039a57600080fd5b8101906020810181356401000000008111156103b557600080fd5b8201836020820111156103c757600080fd5b803590602001918460208302840111640100000000831117156103e957600080fd5b509092509050610bf4565b60408051602080825283518183015283519192839290830191858101910280838360005b83811015610430578181015183820152602001610418565b505050509050019250505060405180910390f35b61025c6004803603602081101561045a57600080fd5b5035610c93565b34801561046d57600080fd5b506102a4610db2565b34801561048257600080fd5b506102a46004803603602081101561049957600080fd5b5035610dcd565b3480156104ac57600080fd5b506102cb610ddf565b3480156104c157600080fd5b5061014e600480360360208110156104d857600080fd5b5035610de4565b3480156104eb57600080fd5b506102a46004803603602081101561050257600080fd5b5035610df9565b34801561051557600080fd5b506102a4611438565b34801561052a57600080fd5b5061027361145c565b34801561053f57600080fd5b506102a46004803603602081101561055657600080fd5b5035611480565b34801561056957600080fd5b506102cb611492565b60066020526000908152604090205460ff1681565b600260045414156105df576040805162461bcd60e51b815260206004820152601f60248201527f5265656e7472616e637947756172643a207265656e7472616e742063616c6c00604482015290519081900360640190fd5b600260045560055482111561063b576040805162461bcd60e51b815260206004820152601a60248201527f4665652065786365656473207472616e736665722076616c7565000000000000604482015290519081900360640190fd5b60008581526006602052604090205460ff161561069f576040805162461bcd60e51b815260206004820152601f60248201527f546865206e6f746520686173206265656e20616c7265616479207370656e7400604482015290519081900360640190fd5b6106a8866109a2565b6106f9576040805162461bcd60e51b815260206004820152601c60248201527f43616e6e6f742066696e6420796f7572206d65726b6c6520726f6f7400000000604482015290519081900360640190fd5b7f00000000000000000000000000000000000000000000000000000000000000006001600160a01b031663f398789b8a8a8a6040518060c001604052808c60001c81526020018b60001c81526020018a6001600160a01b03168152602001896001600160a01b03168152602001888152602001878152506040518563ffffffff1660e01b81526004018085600260200280838360005b838110156107a757818101518382015260200161078f565b505050509050018460026000925b818410156107f55760208402830151604080838360005b838110156107e45781810151838201526020016107cc565b5050505090500192600101926107b5565b9250505083600260200280838360005b8381101561081d578181015183820152602001610805565b5050505090500182600660200280838360005b83811015610848578181015183820152602001610830565b50505050905001945050505050602060405180830381600087803b15801561086f57600080fd5b505af1158015610883573d6000803e3d6000fd5b505050506040513d602081101561089957600080fd5b50516108dd576040805162461bcd60e51b815260206004820152600e60248201526d70726f6f6620696e76616c69646560901b604482015290519081900360640190fd5b6000858152600660205260409020805460ff19166001179055610902848484846114a6565b604080516001600160a01b038681168252602082018890528183018590529151918516917fe9e508bad6d4c3227e881ca19068f099da81b5164dd6d62b2eaf1e8bc6c349319181900360600190a25050600160045550505050505050565b7f000000000000000000000000000000000000000000000000000000000000000081565b6000805160206118d683398151915281565b60005463ffffffff1681565b6000816109b157506000610a11565b60035463ffffffff165b63ffffffff81166000908152600260205260409020548314156109e2576001915050610a11565b63ffffffff81166109f15750601e5b6003546000199091019063ffffffff808316911614156109bb5760009150505b919050565b60055481565b60006000805160206118d68339815191528310610a80576040805162461bcd60e51b815260206004820181905260248201527f5f6c6566742073686f756c6420626520696e7369646520746865206669656c64604482015290519081900360640190fd5b6000805160206118d68339815191528210610acc5760405162461bcd60e51b81526004018080602001828103825260218152602001806118936021913960400191505060405180910390fd5b6040805163f47d33b560e01b8152600481018590526000602482018190528251869391926001600160a01b0389169263f47d33b592604480840193829003018186803b158015610b1b57600080fd5b505afa158015610b2f573d6000803e3d6000fd5b505050506040513d6040811015610b4557600080fd5b50805160209091015190925090506000805160206118d68339815191528483089150856001600160a01b031663f47d33b583836040518363ffffffff1660e01b81526004018083815260200182815260200192505050604080518083038186803b158015610bb257600080fd5b505afa158015610bc6573d6000803e3d6000fd5b505050506040513d6040811015610bdc57600080fd5b50519695505050505050565b60035463ffffffff1681565b60608167ffffffffffffffff81118015610c0d57600080fd5b50604051908082528060200260200182016040528015610c37578160200160208202803683370190505b50905060005b82811015610c8c57610c60848483818110610c5457fe5b90506020020135610de4565b15610c84576001828281518110610c7357fe5b911515602092830291909101909101525b600101610c3d565b5092915050565b60026004541415610ceb576040805162461bcd60e51b815260206004820152601f60248201527f5265656e7472616e637947756172643a207265656e7472616e742063616c6c00604482015290519081900360640190fd5b600260045560008181526007602052604090205460ff1615610d3e5760405162461bcd60e51b81526004018080602001828103825260228152602001806118b46022913960400191505060405180910390fd5b6000818152600760205260408120805460ff19166001179055610d60826116a2565b9050610d6a611818565b6040805163ffffffff83168152426020820152815184927fa945e51eec50ab98c161376f0db4cf2aeba3ec92755fe2fcd388bdbbb80ff196928290030190a250506001600455565b60035463ffffffff1660009081526002602052604090205490565b60026020526000908152604090205481565b601e81565b60009081526006602052604090205460ff1690565b600081610e2757507f2fe54c60d3acabf3343a35b6eba15db4821b340f76e741e2249685ed4899af6c610a11565b8160011415610e5757507f256a6135777eee2fd26f54b8b7037a25439d5235caee224154186d2b8a52e31d610a11565b8160021415610e8757507f1151949895e82ab19924de92c40a3d6f7bcb60d92b00504b8199613683f0c200610a11565b8160031415610eb757507f20121ee811489ff8d61f09fb89e313f14959a0f28bb428a20dba6b0b068b3bdb610a11565b8160041415610ee757507f0a89ca6ffa14cc462cfedb842c30ed221a50a3d6bf022a6a57dc82ab24c157c9610a11565b8160051415610f1757507f24ca05c2b5cd42e890d6be94c68d0689f4f21c9cec9c0f13fe41d566dfb54959610a11565b8160061415610f4757507f1ccb97c932565a92c60156bdba2d08f3bf1377464e025cee765679e604a7315c610a11565b8160071415610f7757507f19156fbd7d1a8bf5cba8909367de1b624534ebab4f0f79e003bccdd1b182bdb4610a11565b8160081415610fa757507f261af8c1f0912e465744641409f622d466c3920ac6e5ff37e36604cb11dfff80610a11565b8160091415610fd657507e58459724ff6ca5a1652fcbc3e82b93895cf08e975b19beab3f54c217d1c007610a11565b81600a141561100657507f1f04ef20dee48d39984d8eabe768a70eafa6310ad20849d4573c3c40c2ad1e30610a11565b81600b141561103657507f1bea3dec5dab51567ce7e200a30f7ba6d4276aeaa53e2686f962a46c66d511e5610a11565b81600c141561106657507f0ee0f941e2da4b9e31c3ca97a40d8fa9ce68d97c084177071b3cb46cd3372f0f610a11565b81600d141561109657507f1ca9503e8935884501bbaf20be14eb4c46b89772c97b96e3b2ebf3a36a948bbd610a11565b81600e14156110c657507f133a80e30697cd55d8f7d4b0965b7be24057ba5dc3da898ee2187232446cb108610a11565b81600f14156110f657507f13e6d8fc88839ed76e182c2a779af5b2c0da9dd18c90427a644f7e148a6253b6610a11565b816010141561112657507f1eb16b057a477f4bc8f572ea6bee39561098f78f15bfb3699dcbb7bd8db61854610a11565b816011141561115657507f0da2cb16a1ceaabf1c16b838f7a9e3f2a3a3088d9e0a6debaa748114620696ea610a11565b816012141561118657507f24a3b3d822420b14b5d8cb6c28a574f01e98ea9e940551d2ebd75cee12649f9d610a11565b81601314156111b657507f198622acbd783d1b0d9064105b1fc8e4d8889de95c4c519b3f635809fe6afc05610a11565b81601414156111e657507f29d7ed391256ccc3ea596c86e933b89ff339d25ea8ddced975ae2fe30b5296d4610a11565b816015141561121657507f19be59f2f0413ce78c0c3703a3a5451b1d7f39629fa33abd11548a76065b2967610a11565b816016141561124657507f1ff3f61797e538b70e619310d33f2a063e7eb59104e112e95738da1254dc3453610a11565b816017141561127657507f10c16ae9959cf8358980d9dd9616e48228737310a10e2b6b731c1a548f036c48610a11565b81601814156112a657507f0ba433a63174a90ac20992e75e3095496812b652685b5e1a2eae0b1bf4e8fcd1610a11565b81601914156112d657507f019ddb9df2bc98d987d0dfeca9d2b643deafab8f7036562e627c3667266a044c610a11565b81601a141561130657507f2d3c88b23175c5a5565db928414c66d1912b11acf974b2e644caaac04739ce99610a11565b81601b141561133657507f2eab55f6ae4e66e32c5189eed5c470840863445760f5ed7e7b69b2a62600f354610a11565b81601c141561136557507e2df37a2642621802383cf952bf4dd1f32e05433beeb1fd41031fb7eace979d610a11565b81601d141561139557507f104aeb41435db66c3e62feccc1d6f5d98d0a0ed75d1374db457cf462e3a1f427610a11565b81601e14156113c557507f1f3c6fd858e9a7d4b0d1f38e256a09d81d5a5e3c963987e2d4b814cfab7c6ebb610a11565b81601f14156113f557507f2c7a07d20dff79d01fecedc1134284a8d08436606c93693b67e333f671bf69cc610a11565b6040805162461bcd60e51b8152602060048201526013602482015272496e646578206f7574206f6620626f756e647360681b604482015290519081900360640190fd5b7f2fe54c60d3acabf3343a35b6eba15db4821b340f76e741e2249685ed4899af6c81565b7f000000000000000000000000000000000000000000000000000000000000000081565b60016020526000908152604090205481565b600354640100000000900463ffffffff1681565b34156114f9576040805162461bcd60e51b815260206004820152601d60248201527f43616e6e6f742073656e6420455448207768656e207769746864726177000000604482015290519081900360640190fd5b801561154c576040805162461bcd60e51b815260206004820152601b60248201527f526566756e642076616c75652063616e6e6f74206265207a65726f0000000000604482015290519081900360640190fd5b6005546040516000916001600160a01b0387169190859003908381818185875af1925050503d806000811461159d576040519150601f19603f3d011682016040523d82523d6000602084013e6115a2565b606091505b50509050806115ef576040805162461bcd60e51b8152602060048201526014602482015273455448207472616e73666572206661696c65642160601b604482015290519081900360640190fd5b821561169b576040516001600160a01b038516908490600081818185875af1925050503d806000811461163e576040519150601f19603f3d011682016040523d82523d6000602084013e611643565b606091505b5050809150508061169b576040805162461bcd60e51b815260206004820181905260248201527f455448207472616e7366657220746f205f72656c61796572206661696c656421604482015290519081900360640190fd5b5050505050565b60035460008054909163ffffffff640100000000909104811691811660020a168114156117005760405162461bcd60e51b81526004018080602001828103825260308152602001806118f66030913960400191505060405180910390fd5b8083600080805b60005463ffffffff90811690821610156117b15760018516611754578392506117358163ffffffff16610df9565b63ffffffff821660009081526001602052604090208590559150611770565b63ffffffff811660009081526001602052604090205492508391505b61179b7f00000000000000000000000000000000000000000000000000000000000000008484610a1c565b9350600263ffffffff8616049450600101611707565b505060038054601e63ffffffff8083166001908101821692909206811663ffffffff1990931683178455600092835260026020526040909220949094558154938601166401000000000267ffffffff00000000199093169290921790915550909392505050565b60055434146118585760405162461bcd60e51b815260040180806020018281038252603881526020018061185b6038913960400191505060405180910390fd5b56fe506c656173652073656e6420606d697844656e6f6d696e6174696f6e602045544820616c6f6e672077697468207472616e73616374696f6e5f72696768742073686f756c6420626520696e7369646520746865206669656c64636f6d6d69746d656e742068617665206265656e207573656420616c72656164792130644e72e131a029b85045b68181585d2833e84879b9709143e1f593f00000014d65726b6c6520747265652069732066756c6c2e204e6f206d6f7265206c65617665732063616e206265206164646564a2646970667358221220c4f700cb3dacb6f86fcfcd7a2675f2e45adbae33739228907988ecd43fd7dfee64736f6c634300070000335f6c6576656c732073686f756c642062652067726561746572207468616e207a65726f",
  "linkReferences": {},
  "deployedLinkReferences": {}
}